{
  "address": "0xe99C7F6A328516DFE09CB49772733C8315DB250F",
  "abi": [
    {
      "inputs": [
        {
          "internalType": "address",
          "name": "_ctf",
          "type": "address"
        },
        {
          "internalType": "address",
          "name": "_forwarderAddress",
          "type": "address"
        },
        {
          "internalType": "uint256",
          "name": "_disputeWindow",
          "type": "uint256"
        },
        {
          "internalType": "address[]",
          "name": "_multisigSigners",
          "type": "address[]"
        },
        {
          "internalType": "uint256",
          "name": "_multisigThreshold",
          "type": "uint256"
        }
      ],
      "stateMutability": "nonpayable",
      "type": "constructor"
    },
    {
      "inputs": [],
      "name": "AlreadyApproved",
      "type": "error"
    },
    {
      "inputs": [],
      "name": "AlreadyInitialized",
      "type": "error"
    },
    {
      "inputs": [],
      "name": "AlreadyResolved",
      "type": "error"
    },
    {
      "inputs": [],
      "name": "DisputeWindowActive",
      "type": "error"
    },
    {
      "inputs": [],
      "name": "DisputeWindowExpired",
      "type": "error"
    },
    {
      "inputs": [
        {
          "internalType": "address",
          "name": "received",
          "type": "address"
        },
        {
          "internalType": "address",
          "name": "expected",
          "type": "address"
        }
      ],
      "name": "InvalidAuthor",
      "type": "error"
    },
    {
      "inputs": [],
      "name": "InvalidDisputeWindow",
      "type": "error"
    },
    {
      "inputs": [],
      "name": "InvalidForwarderAddress",
      "type": "error"
    },
    {
      "inputs": [],
      "name": "InvalidPayouts",
      "type": "error"
    },
    {
      "inputs": [
        {
          "internalType": "address",
          "name": "sender",
          "type": "address"
        },
        {
          "internalType": "address",
          "name": "expected",
          "type": "address"
        }
      ],
      "name": "InvalidSender",
      "type": "error"
    },
    {
      "inputs": [],
      "name": "InvalidThreshold",
      "type": "error"
    },
    {
      "inputs": [
        {
          "internalType": "bytes32",
          "name": "received",
          "type": "bytes32"
        },
        {
          "internalType": "bytes32",
          "name": "expected",
          "type": "bytes32"
        }
      ],
      "name": "InvalidWorkflowId",
      "type": "error"
    },
    {
      "inputs": [
        {
          "internalType": "bytes10",
          "name": "received",
          "type": "bytes10"
        },
        {
          "internalType": "bytes10",
          "name": "expected",
          "type": "bytes10"
        }
      ],
      "name": "InvalidWorkflowName",
      "type": "error"
    },
    {
      "inputs": [],
      "name": "NoProposalPending",
      "type": "error"
    },
    {
      "inputs": [],
      "name": "NotInitialized",
      "type": "error"
    },
    {
      "inputs": [],
      "name": "NotMultisigSigner",
      "type": "error"
    },
    {
      "inputs": [],
      "name": "NotRegistry",
      "type": "error"
    },
    {
      "inputs": [
        {
          "internalType": "address",
          "name": "owner",
          "type": "address"
        }
      ],
      "name": "OwnableInvalidOwner",
      "type": "error"
    },
    {
      "inputs": [
        {
          "internalType": "address",
          "name": "account",
          "type": "address"
        }
      ],
      "name": "OwnableUnauthorizedAccount",
      "type": "error"
    },
    {
      "inputs": [],
      "name": "ThresholdNotMet",
      "type": "error"
    },
    {
      "inputs": [],
      "name": "WorkflowNameRequiresAuthorValidation",
      "type": "error"
    },
    {
      "inputs": [],
      "name": "ZeroOutcomeCount",
      "type": "error"
    },
    {
      "anonymous": false,
      "inputs": [
        {
          "indexed": false,
          "internalType": "uint256",
          "name": "newWindow",
          "type": "uint256"
        }
      ],
      "name": "DisputeWindowUpdated",
      "type": "event"
    },
    {
      "anonymous": false,
      "inputs": [
        {
          "indexed": true,
          "internalType": "address",
          "name": "previousAuthor",
          "type": "address"
        },
        {
          "indexed": true,
          "internalType": "address",
          "name": "newAuthor",
          "type": "address"
        }
      ],
      "name": "ExpectedAuthorUpdated",
      "type": "event"
    },
    {
      "anonymous": false,
      "inputs": [
        {
          "indexed": true,
          "internalType": "bytes32",
          "name": "previousId",
          "type": "bytes32"
        },
        {
          "indexed": true,
          "internalType": "bytes32",
          "name": "newId",
          "type": "bytes32"
        }
      ],
      "name": "ExpectedWorkflowIdUpdated",
      "type": "event"
    },
    {
      "anonymous": false,
      "inputs": [
        {
          "indexed": true,
          "internalType": "bytes10",
          "name": "previousName",
          "type": "bytes10"
        },
        {
          "indexed": true,
          "internalType": "bytes10",
          "name": "newName",
          "type": "bytes10"
        }
      ],
      "name": "ExpectedWorkflowNameUpdated",
      "type": "event"
    },
    {
      "anonymous": false,
      "inputs": [
        {
          "indexed": true,
          "internalType": "address",
          "name": "previousForwarder",
          "type": "address"
        },
        {
          "indexed": true,
          "internalType": "address",
          "name": "newForwarder",
          "type": "address"
        }
      ],
      "name": "ForwarderAddressUpdated",
      "type": "event"
    },
    {
      "anonymous": false,
      "inputs": [
        {
          "indexed": true,
          "internalType": "bytes32",
          "name": "questionId",
          "type": "bytes32"
        },
        {
          "indexed": false,
          "internalType": "string",
          "name": "ipfsCid",
          "type": "string"
        },
        {
          "indexed": false,
          "internalType": "uint256",
          "name": "outcomeCount",
          "type": "uint256"
        },
        {
          "indexed": false,
          "internalType": "uint256",
          "name": "resolutionTime",
          "type": "uint256"
        }
      ],
      "name": "MarketInitialized",
      "type": "event"
    },
    {
      "anonymous": false,
      "inputs": [
        {
          "indexed": true,
          "internalType": "bytes32",
          "name": "questionId",
          "type": "bytes32"
        },
        {
          "indexed": false,
          "internalType": "uint256[]",
          "name": "payouts",
          "type": "uint256[]"
        }
      ],
      "name": "MarketResolved",
      "type": "event"
    },
    {
      "anonymous": false,
      "inputs": [
        {
          "indexed": true,
          "internalType": "bytes32",
          "name": "questionId",
          "type": "bytes32"
        },
        {
          "indexed": true,
          "internalType": "address",
          "name": "signer",
          "type": "address"
        },
        {
          "indexed": false,
          "internalType": "uint256",
          "name": "approvalsNow",
          "type": "uint256"
        },
        {
          "indexed": false,
          "internalType": "uint256",
          "name": "threshold",
          "type": "uint256"
        }
      ],
      "name": "MultisigOverrideApproved",
      "type": "event"
    },
    {
      "anonymous": false,
      "inputs": [
        {
          "indexed": false,
          "internalType": "address[]",
          "name": "newSigners",
          "type": "address[]"
        }
      ],
      "name": "MultisigSignersUpdated",
      "type": "event"
    },
    {
      "anonymous": false,
      "inputs": [
        {
          "indexed": false,
          "internalType": "uint256",
          "name": "newThreshold",
          "type": "uint256"
        }
      ],
      "name": "MultisigThresholdUpdated",
      "type": "event"
    },
    {
      "anonymous": false,
      "inputs": [
        {
          "indexed": true,
          "internalType": "address",
          "name": "previousOwner",
          "type": "address"
        },
        {
          "indexed": true,
          "internalType": "address",
          "name": "newOwner",
          "type": "address"
        }
      ],
      "name": "OwnershipTransferred",
      "type": "event"
    },
    {
      "anonymous": false,
      "inputs": [
        {
          "indexed": false,
          "internalType": "address",
          "name": "newRegistry",
          "type": "address"
        }
      ],
      "name": "RegistryUpdated",
      "type": "event"
    },
    {
      "anonymous": false,
      "inputs": [
        {
          "indexed": true,
          "internalType": "bytes32",
          "name": "questionId",
          "type": "bytes32"
        },
        {
          "indexed": false,
          "internalType": "uint256[]",
          "name": "newPayouts",
          "type": "uint256[]"
        },
        {
          "indexed": false,
          "internalType": "address",
          "name": "replacedBy",
          "type": "address"
        }
      ],
      "name": "ResolutionProposalReplaced",
      "type": "event"
    },
    {
      "anonymous": false,
      "inputs": [
        {
          "indexed": true,
          "internalType": "bytes32",
          "name": "questionId",
          "type": "bytes32"
        },
        {
          "indexed": false,
          "internalType": "uint256[]",
          "name": "payouts",
          "type": "uint256[]"
        },
        {
          "indexed": false,
          "internalType": "uint256",
          "name": "disputeWindowEnd",
          "type": "uint256"
        }
      ],
      "name": "ResolutionProposed",
      "type": "event"
    },
    {
      "anonymous": false,
      "inputs": [
        {
          "indexed": false,
          "internalType": "string",
          "name": "message",
          "type": "string"
        }
      ],
      "name": "SecurityWarning",
      "type": "event"
    },
    {
      "inputs": [
        {
          "internalType": "bytes32",
          "name": "questionId",
          "type": "bytes32"
        },
        {
          "internalType": "uint256[]",
          "name": "payouts",
          "type": "uint256[]"
        }
      ],
      "name": "adminOverride",
      "outputs": [],
      "stateMutability": "nonpayable",
      "type": "function"
    },
    {
      "inputs": [
        {
          "internalType": "bytes32",
          "name": "questionId",
          "type": "bytes32"
        },
        {
          "internalType": "uint256[]",
          "name": "payouts",
          "type": "uint256[]"
        }
      ],
      "name": "adminResolve",
      "outputs": [],
      "stateMutability": "nonpayable",
      "type": "function"
    },
    {
      "inputs": [],
      "name": "ctf",
      "outputs": [
        {
          "internalType": "contract ConditionalTokens",
          "name": "",
          "type": "address"
        }
      ],
      "stateMutability": "view",
      "type": "function"
    },
    {
      "inputs": [],
      "name": "disputeWindow",
      "outputs": [
        {
          "internalType": "uint256",
          "name": "",
          "type": "uint256"
        }
      ],
      "stateMutability": "view",
      "type": "function"
    },
    {
      "inputs": [
        {
          "internalType": "bytes32",
          "name": "questionId",
          "type": "bytes32"
        }
      ],
      "name": "finalizeResolution",
      "outputs": [],
      "stateMutability": "nonpayable",
      "type": "function"
    },
    {
      "inputs": [
        {
          "internalType": "bytes32",
          "name": "questionId",
          "type": "bytes32"
        }
      ],
      "name": "getDisputeWindowEnd",
      "outputs": [
        {
          "internalType": "uint256",
          "name": "",
          "type": "uint256"
        }
      ],
      "stateMutability": "view",
      "type": "function"
    },
    {
      "inputs": [],
      "name": "getExpectedAuthor",
      "outputs": [
        {
          "internalType": "address",
          "name": "",
          "type": "address"
        }
      ],
      "stateMutability": "view",
      "type": "function"
    },
    {
      "inputs": [],
      "name": "getExpectedWorkflowId",
      "outputs": [
        {
          "internalType": "bytes32",
          "name": "",
          "type": "bytes32"
        }
      ],
      "stateMutability": "view",
      "type": "function"
    },
    {
      "inputs": [],
      "name": "getExpectedWorkflowName",
      "outputs": [
        {
          "internalType": "bytes10",
          "name": "",
          "type": "bytes10"
        }
      ],
      "stateMutability": "view",
      "type": "function"
    },
    {
      "inputs": [],
      "name": "getForwarderAddress",
      "outputs": [
        {
          "internalType": "address",
          "name": "",
          "type": "address"
        }
      ],
      "stateMutability": "view",
      "type": "function"
    },
    {
      "inputs": [],
      "name": "getMultisigSigners",
      "outputs": [
        {
          "internalType": "address[]",
          "name": "",
          "type": "address[]"
        }
      ],
      "stateMutability": "view",
      "type": "function"
    },
    {
      "inputs": [
        {
          "internalType": "bytes32",
          "name": "questionId",
          "type": "bytes32"
        }
      ],
      "name": "getQuestion",
      "outputs": [
        {
          "components": [
            {
              "internalType": "uint256",
              "name": "resolutionTime",
              "type": "uint256"
            },
            {
              "internalType": "uint256",
              "name": "proposedAt",
              "type": "uint256"
            },
            {
              "internalType": "uint256[]",
              "name": "proposedPayouts",
              "type": "uint256[]"
            },
            {
              "internalType": "uint256",
              "name": "outcomeCount",
              "type": "uint256"
            },
            {
              "internalType": "enum AiCTFAdapter.MarketStatus",
              "name": "status",
              "type": "uint8"
            },
            {
              "internalType": "bool",
              "name": "multisigApproved",
              "type": "bool"
            }
          ],
          "internalType": "struct AiCTFAdapter.MarketQuestion",
          "name": "",
          "type": "tuple"
        }
      ],
      "stateMutability": "view",
      "type": "function"
    },
    {
      "inputs": [
        {
          "internalType": "bytes32",
          "name": "questionId",
          "type": "bytes32"
        },
        {
          "internalType": "string",
          "name": "ipfsCid",
          "type": "string"
        },
        {
          "internalType": "uint256",
          "name": "outcomeCount",
          "type": "uint256"
        },
        {
          "internalType": "uint256",
          "name": "resolutionTime",
          "type": "uint256"
        }
      ],
      "name": "initializeMarket",
      "outputs": [],
      "stateMutability": "nonpayable",
      "type": "function"
    },
    {
      "inputs": [
        {
          "internalType": "address",
          "name": "addr",
          "type": "address"
        }
      ],
      "name": "isMultisigSigner",
      "outputs": [
        {
          "internalType": "bool",
          "name": "",
          "type": "bool"
        }
      ],
      "stateMutability": "view",
      "type": "function"
    },
    {
      "inputs": [
        {
          "internalType": "bytes32",
          "name": "",
          "type": "bytes32"
        }
      ],
      "name": "multisigApprovalCount",
      "outputs": [
        {
          "internalType": "uint256",
          "name": "",
          "type": "uint256"
        }
      ],
      "stateMutability": "view",
      "type": "function"
    },
    {
      "inputs": [
        {
          "internalType": "bytes32",
          "name": "",
          "type": "bytes32"
        },
        {
          "internalType": "address",
          "name": "",
          "type": "address"
        }
      ],
      "name": "multisigApprovals",
      "outputs": [
        {
          "internalType": "bool",
          "name": "",
          "type": "bool"
        }
      ],
      "stateMutability": "view",
      "type": "function"
    },
    {
      "inputs": [
        {
          "internalType": "bytes32",
          "name": "questionId",
          "type": "bytes32"
        },
        {
          "internalType": "uint256[]",
          "name": "payouts",
          "type": "uint256[]"
        }
      ],
      "name": "multisigOverride",
      "outputs": [],
      "stateMutability": "nonpayable",
      "type": "function"
    },
    {
      "inputs": [
        {
          "internalType": "uint256",
          "name": "",
          "type": "uint256"
        }
      ],
      "name": "multisigSigners",
      "outputs": [
        {
          "internalType": "address",
          "name": "",
          "type": "address"
        }
      ],
      "stateMutability": "view",
      "type": "function"
    },
    {
      "inputs": [],
      "name": "multisigThreshold",
      "outputs": [
        {
          "internalType": "uint256",
          "name": "",
          "type": "uint256"
        }
      ],
      "stateMutability": "view",
      "type": "function"
    },
    {
      "inputs": [
        {
          "internalType": "bytes",
          "name": "metadata",
          "type": "bytes"
        },
        {
          "internalType": "bytes",
          "name": "report",
          "type": "bytes"
        }
      ],
      "name": "onReport",
      "outputs": [],
      "stateMutability": "nonpayable",
      "type": "function"
    },
    {
      "inputs": [],
      "name": "owner",
      "outputs": [
        {
          "internalType": "address",
          "name": "",
          "type": "address"
        }
      ],
      "stateMutability": "view",
      "type": "function"
    },
    {
      "inputs": [
        {
          "internalType": "bytes32",
          "name": "",
          "type": "bytes32"
        }
      ],
      "name": "questions",
      "outputs": [
        {
          "internalType": "uint256",
          "name": "resolutionTime",
          "type": "uint256"
        },
        {
          "internalType": "uint256",
          "name": "proposedAt",
          "type": "uint256"
        },
        {
          "internalType": "uint256",
          "name": "outcomeCount",
          "type": "uint256"
        },
        {
          "internalType": "enum AiCTFAdapter.MarketStatus",
          "name": "status",
          "type": "uint8"
        },
        {
          "internalType": "bool",
          "name": "multisigApproved",
          "type": "bool"
        }
      ],
      "stateMutability": "view",
      "type": "function"
    },
    {
      "inputs": [],
      "name": "registry",
      "outputs": [
        {
          "internalType": "address",
          "name": "",
          "type": "address"
        }
      ],
      "stateMutability": "view",
      "type": "function"
    },
    {
      "inputs": [],
      "name": "renounceOwnership",
      "outputs": [],
      "stateMutability": "nonpayable",
      "type": "function"
    },
    {
      "inputs": [
        {
          "internalType": "uint256",
          "name": "_window",
          "type": "uint256"
        }
      ],
      "name": "setDisputeWindow",
      "outputs": [],
      "stateMutability": "nonpayable",
      "type": "function"
    },
    {
      "inputs": [
        {
          "internalType": "address",
          "name": "_author",
          "type": "address"
        }
      ],
      "name": "setExpectedAuthor",
      "outputs": [],
      "stateMutability": "nonpayable",
      "type": "function"
    },
    {
      "inputs": [
        {
          "internalType": "bytes32",
          "name": "_id",
          "type": "bytes32"
        }
      ],
      "name": "setExpectedWorkflowId",
      "outputs": [],
      "stateMutability": "nonpayable",
      "type": "function"
    },
    {
      "inputs": [
        {
          "internalType": "string",
          "name": "_name",
          "type": "string"
        }
      ],
      "name": "setExpectedWorkflowName",
      "outputs": [],
      "stateMutability": "nonpayable",
      "type": "function"
    },
    {
      "inputs": [
        {
          "internalType": "address",
          "name": "_forwarder",
          "type": "address"
        }
      ],
      "name": "setForwarderAddress",
      "outputs": [],
      "stateMutability": "nonpayable",
      "type": "function"
    },
    {
      "inputs": [
        {
          "internalType": "address[]",
          "name": "_signers",
          "type": "address[]"
        },
        {
          "internalType": "uint256",
          "name": "_threshold",
          "type": "uint256"
        }
      ],
      "name": "setMultisigSigners",
      "outputs": [],
      "stateMutability": "nonpayable",
      "type": "function"
    },
    {
      "inputs": [
        {
          "internalType": "address",
          "name": "_registry",
          "type": "address"
        }
      ],
      "name": "setRegistry",
      "outputs": [],
      "stateMutability": "nonpayable",
      "type": "function"
    },
    {
      "inputs": [
        {
          "internalType": "bytes4",
          "name": "interfaceId",
          "type": "bytes4"
        }
      ],
      "name": "supportsInterface",
      "outputs": [
        {
          "internalType": "bool",
          "name": "",
          "type": "bool"
        }
      ],
      "stateMutability": "pure",
      "type": "function"
    },
    {
      "inputs": [
        {
          "internalType": "address",
          "name": "newOwner",
          "type": "address"
        }
      ],
      "name": "transferOwnership",
      "outputs": [],
      "stateMutability": "nonpayable",
      "type": "function"
    }
  ],
  "transactionHash": "0x55c453269558b170f80333f924a79687b9860e986098ce543ec986f84f90d811",
  "args": [
    "0x8B5B40467436967E8D232A36905Ee535826faA01",
    "0x6E9EE680ef59ef64Aa8C7371279c27E496b5eDc1",
    7200,
    [
      "0x81a6A8b67702acfab6E604f4849e9cFAb762E592",
      "0xe53c55806328d94A345f2784c7387495505B1CF1"
    ],
    2
  ],
  "numDeployments": 1,
  "solcInputHash": "43473dc0f9316c7f28f2950e3aae9a3b",
  "bytecode": "0x604060a0815234620002b2576200261d803803806200001e81620002cd565b92833981019060a081830312620002b2576200003a81620002f3565b9060206200004a818301620002f3565b8286015160608401516001600160401b03949293919290858111620002b25781019087601f83011215620002b257815197868911620002b7578860051b928462000096818601620002cd565b809b81520190858295820101928311620002b25785809101915b838310620002975750505050608001519633156200027f57600080546001600160a01b03198082163390811784558c51919a6001600160a01b039994989490938a929083167f8be0079c531659141344cd1fd0a4f28419497f9722a3daafe3b4186f6b6457e08b80a3169081156200027157508060019a8b5416178a558b5190877f039ad854736757070884dd787ef1a7f58db33546639d1f3efddcf4a33fb8997e8180a382156200026257508251801515908162000243575b5062000232578616608052600455519485116200021e576801000000000000000085116200021e5760065485600655808610620001f3575b509260068352818320925b858110620001df57888860055551612314908162000309823960805181818161034e015281816107eb0152611af30152f35b8451821684820155938201938601620001ad565b60068452868684862092830192015b82811062000212575050620001a2565b85815501879062000202565b634e487b7160e01b83526041600452602483fd5b8a5163aabd5a0960e01b8152600490fd5b8b159150811562000257575b50386200016a565b90508a11386200024f565b6310034a8b60e01b8152600490fd5b62e0775560e61b8152600490fd5b8851631e4fbdf760e01b815260006004820152602490fd5b8190620002a484620002f3565b8152019101908590620000b0565b600080fd5b634e487b7160e01b600052604160045260246000fd5b6040519190601f01601f191682016001600160401b03811183821017620002b757604052565b51906001600160a01b0382168203620002b25756fe6080604052600436101561001257600080fd5b60003560e01c806301ffc9a7146102275780630a0cfa2814610222578063117f5f921461021d5780631cf20ee61461021857806322a9339f146102135780632d27deaf1461020e578063332226d0146102095780633397cf67146102045780633441856f146101ff57806358c039cd146101fa5780636436e53d146101f557806365051945146101f057806367afaf28146101eb578063715018a6146101e65780637781f0a1146101e15780637b103999146101dc578063805f2132146101d75780638c75ec80146101d25780638da5cb5b146101cd57806395addb90146101c8578063a619d818146101c3578063a7721594146101be578063a91ee0dc146101b9578063bc1fc27a146101b4578063c3c44ac2146101af578063c735f93f146101aa578063cb9c99a9146101a5578063d60c884b146101a0578063d777cc6d1461019b578063e8c4212514610196578063ea68556514610191578063f2fde38b1461018c5763f5c793ef1461018757600080fd5b61162f565b6115a3565b6114e8565b6113a1565b6112d1565b611263565b611199565b610e04565b610dba565b610d79565b610d09565b610cc0565b610c7a565b610c15565b610bec565b610bce565b6109a9565b610980565b61094f565b6108f4565b610763565b61067e565b610652565b61056c565b61048f565b610466565b610401565b6103e0565b610338565b6102e2565b6102b3565b610282565b3461027d57602036600319011261027d5760043563ffffffff60e01b811680910361027d5760209063402f909960e11b811490811561026c575b506040519015158152f35b6301ffc9a760e01b14905038610261565b600080fd5b3461027d57602036600319011261027d5760206102a0600435611d8f565b604051908152f35b600091031261027d57565b3461027d57600036600319011261027d576020600454604051908152f35b6001600160a01b0381160361027d57565b3461027d57604036600319011261027d57602060ff61032c602435610306816102d1565b6004356000526008845260406000209060018060a01b0316600052602052604060002090565b54166040519015158152f35b3461027d57600036600319011261027d576040517f00000000000000000000000000000000000000000000000000000000000000006001600160a01b03168152602090f35b9181601f8401121561027d578235916001600160401b03831161027d576020808501948460051b01011161027d57565b90604060031983011261027d5760043591602435906001600160401b03821161027d576103dc9160040161037d565b9091565b3461027d576103ff6103f1366103ad565b916103fa61164d565b611908565b005b3461027d57602036600319011261027d5760043561041d61164d565b8015610454576020817f5c157a613f3e087909e16add9322412e7c5f67e0612bd2e069190064490da64792600455604051908152a1005b6040516310034a8b60e01b8152600490fd5b3461027d57600036600319011261027d576002546040516001600160a01b039091168152602090f35b3461027d57600036600319011261027d576001546040516001600160a01b039091168152602090f35b600411156104c257565b634e487b7160e01b600052602160045260246000fd5b9060048210156104c25752565b60209182825260e082019281518184015280820151604084015260408201519360c06060850152845180915281610100850195019160005b82811061055857505050509060c060a0836060610555950151608085015261054c6080820151838601906104d8565b01511515910152565b90565b83518752958101959281019260010161051d565b3461027d57602036600319011261027d5760a06040805161058c8161168f565b60009281848093528260208201526060848201528260608201528260808201520152600435825260076020528082209060048151926105ca8461168f565b805484526001810154602085015282516105f2816105eb8160028601611a93565b03826116d8565b838501526003810154606085015201549260ff841690600482101561063e575060ff61063a9461063092608086015260081c1660a084019015159052565b51918291826104e5565b0390f35b634e487b7160e01b81526021600452602490fd5b3461027d57602036600319011261027d5760043560005260096020526020604060002054604051908152f35b3461027d576000806003193601126107335760405180916006549081835260208093018092600683526000805160206122bf83398151915290835b81811061071657505050846106cf9103856116d8565b60405193838594850191818652518092526040850193925b8281106106f657505050500390f35b83516001600160a01b0316855286955093810193928101926001016106e7565b82546001600160a01b0316845292860192600192830192016106b9565b80fd5b9181601f8401121561027d578235916001600160401b03831161027d576020838186019501011161027d57565b3461027d57608036600319011261027d5760048035906024356001600160401b03811161027d576107979036908301610736565b9060443560643560018060a01b039182600a541633036108e357600281106108d2576107cd876000526007602052604060002090565b868101936107dc855460ff1690565b6107e5816104b8565b6108c2577f000000000000000000000000000000000000000000000000000000000000000016803b1561027d576040805163365bb9d560e21b815230998101998a5260208a018b905290890184905297600091899182908490829060600103925af19384156108bd57826003610893937ffc494f392f96fcc692b5dbb5e55fa38ce4c322ca25afb09ea64664fd8665e4119a61089f986108a4575b508681550155805460ff19166001179055565b60405194859485611705565b0390a2005b806108b16108b7926116aa565b806102a8565b38610880565b6116f9565b60405162dc149f60e41b81528890fd5b60405163785b673760e11b81528690fd5b604051633217675b60e21b81528690fd5b3461027d576000806003193601126107335761090e61164d565b80546001600160a01b03198116825581906001600160a01b03167f8be0079c531659141344cd1fd0a4f28419497f9722a3daafe3b4186f6b6457e08280a380f35b3461027d57602036600319011261027d576020610976600435610971816102d1565b611c56565b6040519015158152f35b3461027d57600036600319011261027d57600a546040516001600160a01b039091168152602090f35b3461027d5760408060031936011261027d576004906001600160401b0390823582811161027d576109dd9036908501610736565b93909260243590811161027d576109f79036908301610736565b600154909491936001600160a01b0392909183168015158181610bc3575b50610b9657506003549081159788158099610b82575b8015610b6a575b610a41575b6103ff8888611eed565b610a6691610a50913691611de8565b602081015191604a604083015192015160601c90565b92909880610b60575b610b3c575050600254908382168015948186159182610b2f575b5050610b0057505060101b6001600160b01b03199081169283610aad575b80610a37565b610af0578290871603610ac1578080610aa7565b5163362304d360e11b81526001600160b01b031980871693820193845290911660208301529081906040010390fd5b8151634847901160e01b81528490fd5b8351631715315f60e31b81526001600160a01b0392831687820190815291909216602082015281900360400190fd5b8416141590508138610a89565b8351634dfd1cdd60e11b815280870192835260208301919091529081906040010390fd5b5080821415610a6f565b5060025460101b6001600160b01b0319161515610a32565b506002546001600160a01b03161515610a2b565b825163708986dd60e11b8152338187019081526001600160a01b0390921660208301529081906040010390fd5b905033141538610a15565b3461027d57600036600319011261027d576020600554604051908152f35b3461027d57600036600319011261027d576000546040516001600160a01b039091168152602090f35b3461027d57602036600319011261027d57600435600052600760205260a0604060002060ff815491600181015490600460038201549101549160405194855260208501526040840152610c6d606084018383166104d8565b60081c1615156080820152f35b3461027d57600036600319011261027d57602069ffffffffffffffffffff60b01b60025460101b16604051908152f35b634e487b7160e01b600052603260045260246000fd5b3461027d57602036600319011261027d5760043560065481101561027d5760066000526000805160206122bf83398151915201546040516001600160a01b039091168152602090f35b3461027d57602036600319011261027d577fd6ceddf6d2a22f21c7c81675c518004eff43bc5c8a6fc32a0b748e69d58671cd6020600435610d49816102d1565b610d5161164d565b600a80546001600160a01b0319166001600160a01b03929092169182179055604051908152a1005b3461027d57602036600319011261027d576004356001600160401b03811161027d57610dac6103ff913690600401610736565b90610db561164d565b612009565b3461027d57602036600319011261027d57600435610dd661164d565b600354816003557f0dbedcdf21925e053b4c574eae180d7f2883235ab4976ecc0873598a2a999b03600080a3005b3461027d57610e12366103ad565b9091610e28816000526007602052604060002090565b90600480830193610e3a855460ff1690565b610e43816104b8565b801561118857610e52816104b8565b6003811461117757610e63816104b8565b600281141580611163575b61115257610e82610e7e33611c56565b1590565b61114157610ebf610eb833610ea1876000526008602052604060002090565b9060018060a01b0316600052602052604060002090565b5460ff1690565b61113057610ede610e7e6003870154610ed936868c61173b565b611baa565b61111f5780610eee6001926104b8565b03611093578394956002849501928284541480159061107f575b610fee575b50505050505b610f3b610f2e33610ea1846000526008602052604060002090565b805460ff19166001179055565b610f4f816000526009602052604060002090565b610f598154611a84565b9055610f6f816000526009602052604060002090565b5460055490827f443f583469bc5b36b5724587be97cb2d0ed52ea1b8eea3d499e877e129cc4dd260405180610fb38633968360209093929193604081019481520152565b0390a3610fca826000526009602052604060002090565b541015610fd357005b610fe96103ff9361010061ff0019825416179055565b611ae1565b6110666110729161100f858560008051602061229f8339815191529861183c565b4260018a0155895460ff19166002178a555b61102a87611cae565b867ffc5e845be2c15171c338768fef89c94ea5d837482cc700be1016f266b55220016040518061105c338a8a846118c2565b0390a25442611891565b604051938493846118eb565b0390a28038808080610f0d565b5061108e610e7e858585611bf1565b610f08565b60018401956110a58754845490611891565b42101561110e5784959660028596016110c2610e7e828686611bf1565b6110d2575b505050505050610f13565b60008051602061229f83398151915294611100926110f486866110669561183c565b42905561102a87611cae565b0390a28038808080806110c7565b60405163234c0ffd60e21b81528390fd5b604051630331a49d60e51b81528390fd5b60405163080fc0bd60e11b81528390fd5b6040516390db74b960e01b81528390fd5b6040516353f7b14960e11b81528390fd5b5061116d816104b8565b6001811415610e6e565b6040516336ab81e160e11b81528390fd5b6040516321c4e35760e21b81528390fd5b3461027d576111a7366103ad565b916111b061164d565b6111c4816000526007602052604060002090565b916111d3600484015460ff1690565b6111dc816104b8565b801561125157806111ee6003926104b8565b1461123f57611209610e7e6003850154610ed936888661173b565b61122d576103ff9361121e916002850161183c565b426001830155610fe981611cae565b604051630331a49d60e51b8152600490fd5b6040516336ab81e160e11b8152600490fd5b6040516321c4e35760e21b8152600490fd5b3461027d57602036600319011261027d57600435611280816102d1565b61128861164d565b600280546001600160a01b039283166001600160a01b0319821681179092559091167f3321cda85c145617e47418aa14255e9dcbec53a753778e57591703b89a3cad31600080a3005b3461027d57602036600319011261027d576004356112ee816102d1565b6112f661164d565b6001546001600160a01b0391821691908215611345575b6001600160a01b031981168317600155167f039ad854736757070884dd787ef1a7f58db33546639d1f3efddcf4a33fb8997e600080a3005b7f704da7db165c79c1e33d542c079333bbde970a733032d2f95fec8fb7d770cbf76060604051602081526020808201527f466f727761726465722073657420746f207a65726f202d20494e5345435552456040820152a161130d565b3461027d57604036600319011261027d576001600160401b0360043581811161027d576113d290369060040161037d565b90602435926113df61164d565b821515806114d7575b6114c55782116114c057600160401b82116114c05761140d82600654816006556117d9565b80600660005260005b838110611495577f8b77fc0c41e5e6289d444110fa28b136e2bc46cdda4c5e5b80eea22ed8dc3b74611490867f7a7b5af5606cac99657636707b7a3a267438992c76e16d75810a6bee0d57f18a878761146e84600555565b61147d60405192839283611d41565b0390a16040519081529081906020820190565b0390a1005b60019060208335936114a6856102d1565b0192816000805160206122bf833981519152015501611416565b611679565b60405163aabd5a0960e01b8152600490fd5b508315806113e857508284116113e8565b3461027d57602036600319011261027d5760048035611511816000526007602052604060002090565b9061151f8383015460ff1690565b611528816104b8565b801561159257611537816104b8565b60028103611581578061154b6003926104b8565b14611177576115606001830154845490611891565b4210611570576103ff9250611ae1565b60405163e52e798f60e01b81528390fd5b6040516353f7b14960e11b81528490fd5b6040516321c4e35760e21b81528490fd5b3461027d57602036600319011261027d576004356115c0816102d1565b6115c861164d565b6001600160a01b03908116801561161657600080546001600160a01b03198116831782559092167f8be0079c531659141344cd1fd0a4f28419497f9722a3daafe3b4186f6b6457e08380a380f35b604051631e4fbdf760e01b815260006004820152602490fd5b3461027d57600036600319011261027d576020600354604051908152f35b6000546001600160a01b0316330361166157565b60405163118cdaa760e01b8152336004820152602490fd5b634e487b7160e01b600052604160045260246000fd5b60c081019081106001600160401b038211176114c057604052565b6001600160401b0381116114c057604052565b604081019081106001600160401b038211176114c057604052565b90601f801991011681019081106001600160401b038211176114c057604052565b6040513d6000823e3d90fd5b90826040936080929796959760608552816060860152838501376000828285010152601f80199101168201019460208201520152565b9092916001600160401b0384116114c0578360051b6040519260208094611764828501826116d8565b809781520191810192831161027d57905b8282106117825750505050565b81358152908301908301611775565b634e487b7160e01b600052601160045260246000fd5b908160011b91808304600214901517156117bd57565b611791565b8181106117cd575050565b600081556001016117c2565b8082106117e4575050565b6118069160066000526000805160206122bf83398151915291820191016117c2565b565b90600160401b81116114c05781549080835581811061182657505050565b61180692600052602060002091820191016117c2565b906001600160401b0383116114c0576118558383611808565b906000526020806000209060005b848110611871575050505050565b83358382015592810192600101611863565b90600182018092116117bd57565b919082018092116117bd57565b81835290916001600160fb1b03831161027d5760209260051b809284830137010190565b916020916118db9195949560408552604085019161189e565b6001600160a01b03909416910152565b9392916020916119039160408752604087019161189e565b930152565b90929161191f826000526007602052604060002090565b93600494858101611931815460ff1690565b61193a816104b8565b8015611a7357611949816104b8565b60038114611a62578061195d6001926104b8565b14611a09575460029060ff16611972816104b8565b036119f85760018101906119898254885490611891565b4210156119e7576119a6610e7e6003830154610ed936888861173b565b6119d65760008051602061229f8339815191529495966119d1926110f486866002611066960161183c565b0390a2565b604051630331a49d60e51b81528790fd5b60405163234c0ffd60e21b81528790fd5b6040516353f7b14960e11b81528690fd5b90611a20610e7e6003830154610ed936888861173b565b6119d65760008051602061229f8339815191529495966110216119d19383611a4f88886002611066980161183c565b600142910155600260ff19825416179055565b6040516336ab81e160e11b81528890fd5b6040516321c4e35760e21b81528890fd5b60001981146117bd5760010190565b90815480825260208092019260005281600020916000905b828210611ab9575050505090565b835485529384019360019384019390910190611aab565b906020610555928181520190611a93565b60048201805460ff19166003179055907f00000000000000000000000000000000000000000000000000000000000000006001600160a01b031690600201813b1561027d5760006040518093633124a62b60e21b825285600483015260406024830152818381611b546044820188611a93565b03925af19081156108bd577f08fa4e1452e81caa286f92a5c26f4f713d231fd5585c56d9920451d8263ae2ed926119d192611b97575b5060405191829182611ad0565b806108b1611ba4926116aa565b38611b8a565b9190825103611beb57600091825b8151841015611be45760208460051b8301015181018091116117bd57611bde9093611a84565b92611bb8565b1515925050565b60009150565b90918054808403611c4d5760005b848110611c10575050505050600190565b81811015611c48578260005280602060002001548160051b85013503611c3e57611c3990611a84565b611bff565b5050505050600090565b610caa565b50505050600090565b600090819060068054925b838110611c6f575050505090565b8185526000805160206122bf8339815191528101546001600160a01b03848116911614611ca457611c9f90611a84565b611c61565b5050505050600190565b60005b60068054821015611d06575060008281526008602090815260408083206000805160206122bf8339815191528501546001600160a01b031684529091529020805460ff19169055611d0190611a84565b611cb1565b5050611d356004916000611d24826000526009602052604060002090565b556000526007602052604060002090565b01805461ff0019169055565b90916040602092828482018583525201929160005b828110611d64575050505090565b9091929382806001928735611d78816102d1565b848060a01b03168152019501910192919092611d56565b6000526007602052604060002060ff60048201541660048110156104c257600203611dc7576001015460045481018091116117bd5790565b50600090565b6001600160401b0381116114c057601f01601f191660200190565b929192611df482611dcd565b91611e0260405193846116d8565b82948184528183011161027d578281602093846000960137010152565b919060408382031261027d578235926020810135906001600160401b03821161027d57019080601f8301121561027d578160206105559335910161173b565b8151916001600160401b0383116114c057611e798383611808565b602080910191600052806000209060005b848110611e98575050505050565b83518382015592810192600101611e8a565b92919060408401604085528151809152606085019060208093019060005b84828210611ed95750505050930152565b835185529384019390920191600101611ec8565b611ef991810190611e1f565b611f0d826000526007602052604060002090565b906004820191611f1e835460ff1690565b611f27816104b8565b80156112515780611f396003926104b8565b1461123f57611f4f610e7e600383015484611baa565b61122d5760008051602061229f8339815191529281611a4f846002611f749501611e5e565b611f7d83611cae565b611f8960045442611891565b906119d160405192839283611eaa565b908092918237016000815290565b60405190611fb4826116bd565b600a825260203681840137565b908151811015611c48570160200190565b906020825192015169ffffffffffffffffffff60b01b9081811693600a8110611ffa57505050565b600a0360031b82901b16169150565b60025490919060101b6001600160b01b0319169181156121375760209060405180612038816000968795611f99565b039060025afa156108bd5761207461206161206f83516040519283916020830160209181520190565b03601f1981018352826116d8565b6121ae565b61207c611fa7565b90825b600a81106121015750506120956120c691611fd2565b6002805469ffffffffffffffffffff60a01b191660109290921c69ffffffffffffffffffff60a01b16919091179055565b60025460101b6001600160b01b03199081169216907f1e7ddd09d504c82dcfc784a464b167469f5aad967606ec4822d848ef9141dfa59080a3565b806121206121126121329385611fc1565b516001600160f81b03191690565b851a61212c8286611fc1565b53611a84565b61207f565b50506002805469ffffffffffffffffffff60a01b191690556000906001600160b01b0319167f1e7ddd09d504c82dcfc784a464b167469f5aad967606ec4822d848ef9141dfa58280a3565b6040519061218f826116bd565b601082526f181899199a1a9b1b9c1cb0b131b232b360811b6020830152565b906121b982516117a7565b6121c281611dcd565b906121d060405192836116d8565b8082526121df601f1991611dcd565b01366020830137600092835b8151811015612297576122929061223a612112612206612182565b61223461222e61222861221c612112888b611fc1565b60041c600f60f81b1690565b60f81c90565b60ff1690565b90611fc1565b612250612246836117a7565b91881a9186611fc1565b5361227e61211261225f612182565b61223461222e600f60f81b612277612112888b611fc1565b1660f81c90565b61212c61224661228d846117a7565b611883565b6121eb565b509092505056fee2c02bd9ed13a4523e9bd53a88191407d3d5631253252ffe56fe560d6214647df652222313e28459528d920b65115c16c04f3efc82aaedc97be59f3f377c0d3fa264697066735822122059f738e377bb498ca840e57e909e727193320f76534951bfa79affc9f5a4a77a64736f6c63430008140033",
  "devdoc": {
    "details": "Architecture:  1. `initializeMarket()` prepares a CTF condition and emits `MarketInitialized` (triggers CRE).  2. CRE detects the event, calls Gemini AI, then submits `onReport(metadata, report)`.  3. The adapter starts a `disputeWindow` timer and emits `ResolutionProposed`.  4. After the window, anyone calls `finalizeResolution()` to call `ctf.reportPayouts()`.  5. Before the window elapses (public finalize):     - The contract owner can `adminOverride()` to replace the proposed payouts.     - The multisig (if set) can call `multisigOverride()` which requires M-of-N signers.  6. Owner / multisig bypass (no need to wait for CRE or resolution time):     - `adminResolve()` — owner sets payouts and resolves immediately (Active or Proposed, any time).     - `adminOverride()` — also allowed while Active to start a proposal + dispute window without CRE.     - `multisigOverride()` — signers may begin or complete resolution while Active (first approvals       move the market to Proposed and open the usual dispute window for public finalize). Key invariants:  - AiCTFAdapter is the sole oracle address in every `prepareCondition()` call.  - No market string metadata is stored on-chain — only the IPFS CID via events.  - Permissionless `finalizeResolution` still requires the dispute window to elapse after a proposal.",
    "errors": {
      "OwnableInvalidOwner(address)": [
        {
          "details": "The owner is not a valid owner account. (eg. `address(0)`)"
        }
      ],
      "OwnableUnauthorizedAccount(address)": [
        {
          "details": "The caller account is not authorized to perform an operation."
        }
      ]
    },
    "kind": "dev",
    "methods": {
      "adminOverride(bytes32,uint256[])": {
        "details": "While Active: sets status to Proposed and opens the dispute window (no CRE required).      While Proposed: only callable before the dispute window ends (same as before).",
        "params": {
          "payouts": "Payout array for the new proposal.",
          "questionId": "The market to override."
        }
      },
      "adminResolve(bytes32,uint256[])": {
        "details": "Works while market is Active (before CRE) or Proposed. Bypasses resolution time,      dispute window, and CRE. Does not require a prior AI proposal.",
        "params": {
          "payouts": "Payout numerators per outcome (same semantics as CTF `reportPayouts`).",
          "questionId": "The market to resolve."
        }
      },
      "constructor": {
        "params": {
          "_ctf": "Address of the deployed ConditionalTokens contract.",
          "_disputeWindow": "Seconds after a proposal before it can be finalized.",
          "_forwarderAddress": "Chainlink CRE forwarder (only address allowed to call onReport).",
          "_multisigSigners": "Initial list of multisig signer addresses.",
          "_multisigThreshold": "Minimum approvals required (must be ≤ _multisigSigners.length)."
        }
      },
      "finalizeResolution(bytes32)": {
        "details": "Permissionless — anyone can call once the window is over.",
        "params": {
          "questionId": "The market to finalize."
        }
      },
      "initializeMarket(bytes32,string,uint256,uint256)": {
        "details": "Only callable by the MarketRegistry contract.      Emits MarketInitialized — this event is the CRE log trigger.",
        "params": {
          "ipfsCid": "IPFS CID of the JSON metadata — NOT stored on-chain, emitted only.",
          "outcomeCount": "Number of outcome slots (2 for binary markets).",
          "questionId": "keccak256(abi.encodePacked(ipfsCid))",
          "resolutionTime": "Unix timestamp when CRE should attempt resolution."
        }
      },
      "multisigOverride(bytes32,uint256[])": {
        "details": "Once `multisigThreshold` approvals are collected, the resolution is finalized      immediately — bypassing the remaining dispute window.      While Active: signers pin payouts, the market moves to Proposed, then approvals accrue;      meeting threshold finalizes immediately (same as after a CRE proposal).      While Proposed: the dispute window must still be open (same as before).",
        "params": {
          "payouts": "The new payout array all signers are approving.                    All signers must supply identical payouts; any mismatch resets approvals.",
          "questionId": "The market question ID."
        }
      },
      "owner()": {
        "details": "Returns the address of the current owner."
      },
      "renounceOwnership()": {
        "details": "Leaves the contract without owner. It will not be possible to call `onlyOwner` functions. Can only be called by the current owner. NOTE: Renouncing ownership will leave the contract without an owner, thereby disabling any functionality that is only available to the owner."
      },
      "supportsInterface(bytes4)": {
        "details": "Returns true if this contract implements the interface defined by `interfaceId`. See the corresponding https://eips.ethereum.org/EIPS/eip-165#how-interfaces-are-identified[EIP section] to learn more about how these ids are created. This function call must use less than 30 000 gas."
      },
      "transferOwnership(address)": {
        "details": "Transfers ownership of the contract to a new account (`newOwner`). Can only be called by the current owner."
      }
    },
    "title": "AiCTFAdapter",
    "version": 1
  },
  "userdoc": {
    "kind": "user",
    "methods": {
      "adminOverride(bytes32,uint256[])": {
        "notice": "Owner replaces payouts and (re)starts the dispute window without resolving."
      },
      "adminResolve(bytes32,uint256[])": {
        "notice": "Owner may resolve immediately with the given payouts."
      },
      "ctf()": {
        "notice": "The Gnosis Conditional Token Framework contract"
      },
      "disputeWindow()": {
        "notice": "Duration of the dispute window after a resolution is proposed"
      },
      "finalizeResolution(bytes32)": {
        "notice": "Finalizes a proposed resolution after the dispute window elapses."
      },
      "initializeMarket(bytes32,string,uint256,uint256)": {
        "notice": "Registers a new prediction market with the CTF and Chainlink CRE."
      },
      "multisigApprovalCount(bytes32)": {
        "notice": "questionId → current multisig approval count for a proposed override"
      },
      "multisigApprovals(bytes32,address)": {
        "notice": "questionId → signer → has approved the pending proposal override"
      },
      "multisigOverride(bytes32,uint256[])": {
        "notice": "A multisig signer approves the current pending proposal override."
      },
      "multisigSigners(uint256)": {
        "notice": "List of authorised multisig signers"
      },
      "multisigThreshold()": {
        "notice": "Minimum number of multisig signers required to approve an override"
      },
      "questions(bytes32)": {
        "notice": "questionId → MarketQuestion"
      },
      "registry()": {
        "notice": "Address of the MarketRegistry (only it may call initializeMarket)"
      },
      "setRegistry(address)": {
        "notice": "Only the deployer (owner) can set the registry address."
      }
    },
    "notice": "Oracle adapter that resolves Conditional Token Framework markets via Chainlink CRE + Gemini AI.",
    "version": 1
  },
  "storageLayout": {
    "storage": [
      {
        "astId": 8,
        "contract": "contracts/AiCTFAdapter.sol:AiCTFAdapter",
        "label": "_owner",
        "offset": 0,
        "slot": "0",
        "type": "t_address"
      },
      {
        "astId": 5861,
        "contract": "contracts/AiCTFAdapter.sol:AiCTFAdapter",
        "label": "s_forwarderAddress",
        "offset": 0,
        "slot": "1",
        "type": "t_address"
      },
      {
        "astId": 5863,
        "contract": "contracts/AiCTFAdapter.sol:AiCTFAdapter",
        "label": "s_expectedAuthor",
        "offset": 0,
        "slot": "2",
        "type": "t_address"
      },
      {
        "astId": 5865,
        "contract": "contracts/AiCTFAdapter.sol:AiCTFAdapter",
        "label": "s_expectedWorkflowName",
        "offset": 20,
        "slot": "2",
        "type": "t_bytes10"
      },
      {
        "astId": 5867,
        "contract": "contracts/AiCTFAdapter.sol:AiCTFAdapter",
        "label": "s_expectedWorkflowId",
        "offset": 0,
        "slot": "3",
        "type": "t_bytes32"
      },
      {
        "astId": 3047,
        "contract": "contracts/AiCTFAdapter.sol:AiCTFAdapter",
        "label": "disputeWindow",
        "offset": 0,
        "slot": "4",
        "type": "t_uint256"
      },
      {
        "astId": 3050,
        "contract": "contracts/AiCTFAdapter.sol:AiCTFAdapter",
        "label": "multisigThreshold",
        "offset": 0,
        "slot": "5",
        "type": "t_uint256"
      },
      {
        "astId": 3054,
        "contract": "contracts/AiCTFAdapter.sol:AiCTFAdapter",
        "label": "multisigSigners",
        "offset": 0,
        "slot": "6",
        "type": "t_array(t_address)dyn_storage"
      },
      {
        "astId": 3060,
        "contract": "contracts/AiCTFAdapter.sol:AiCTFAdapter",
        "label": "questions",
        "offset": 0,
        "slot": "7",
        "type": "t_mapping(t_bytes32,t_struct(MarketQuestion)3040_storage)"
      },
      {
        "astId": 3067,
        "contract": "contracts/AiCTFAdapter.sol:AiCTFAdapter",
        "label": "multisigApprovals",
        "offset": 0,
        "slot": "8",
        "type": "t_mapping(t_bytes32,t_mapping(t_address,t_bool))"
      },
      {
        "astId": 3072,
        "contract": "contracts/AiCTFAdapter.sol:AiCTFAdapter",
        "label": "multisigApprovalCount",
        "offset": 0,
        "slot": "9",
        "type": "t_mapping(t_bytes32,t_uint256)"
      },
      {
        "astId": 3075,
        "contract": "contracts/AiCTFAdapter.sol:AiCTFAdapter",
        "label": "registry",
        "offset": 0,
        "slot": "10",
        "type": "t_address"
      }
    ],
    "types": {
      "t_address": {
        "encoding": "inplace",
        "label": "address",
        "numberOfBytes": "20"
      },
      "t_array(t_address)dyn_storage": {
        "base": "t_address",
        "encoding": "dynamic_array",
        "label": "address[]",
        "numberOfBytes": "32"
      },
      "t_array(t_uint256)dyn_storage": {
        "base": "t_uint256",
        "encoding": "dynamic_array",
        "label": "uint256[]",
        "numberOfBytes": "32"
      },
      "t_bool": {
        "encoding": "inplace",
        "label": "bool",
        "numberOfBytes": "1"
      },
      "t_bytes10": {
        "encoding": "inplace",
        "label": "bytes10",
        "numberOfBytes": "10"
      },
      "t_bytes32": {
        "encoding": "inplace",
        "label": "bytes32",
        "numberOfBytes": "32"
      },
      "t_enum(MarketStatus)3025": {
        "encoding": "inplace",
        "label": "enum AiCTFAdapter.MarketStatus",
        "numberOfBytes": "1"
      },
      "t_mapping(t_address,t_bool)": {
        "encoding": "mapping",
        "key": "t_address",
        "label": "mapping(address => bool)",
        "numberOfBytes": "32",
        "value": "t_bool"
      },
      "t_mapping(t_bytes32,t_mapping(t_address,t_bool))": {
        "encoding": "mapping",
        "key": "t_bytes32",
        "label": "mapping(bytes32 => mapping(address => bool))",
        "numberOfBytes": "32",
        "value": "t_mapping(t_address,t_bool)"
      },
      "t_mapping(t_bytes32,t_struct(MarketQuestion)3040_storage)": {
        "encoding": "mapping",
        "key": "t_bytes32",
        "label": "mapping(bytes32 => struct AiCTFAdapter.MarketQuestion)",
        "numberOfBytes": "32",
        "value": "t_struct(MarketQuestion)3040_storage"
      },
      "t_mapping(t_bytes32,t_uint256)": {
        "encoding": "mapping",
        "key": "t_bytes32",
        "label": "mapping(bytes32 => uint256)",
        "numberOfBytes": "32",
        "value": "t_uint256"
      },
      "t_struct(MarketQuestion)3040_storage": {
        "encoding": "inplace",
        "label": "struct AiCTFAdapter.MarketQuestion",
        "members": [
          {
            "astId": 3027,
            "contract": "contracts/AiCTFAdapter.sol:AiCTFAdapter",
            "label": "resolutionTime",
            "offset": 0,
            "slot": "0",
            "type": "t_uint256"
          },
          {
            "astId": 3029,
            "contract": "contracts/AiCTFAdapter.sol:AiCTFAdapter",
            "label": "proposedAt",
            "offset": 0,
            "slot": "1",
            "type": "t_uint256"
          },
          {
            "astId": 3032,
            "contract": "contracts/AiCTFAdapter.sol:AiCTFAdapter",
            "label": "proposedPayouts",
            "offset": 0,
            "slot": "2",
            "type": "t_array(t_uint256)dyn_storage"
          },
          {
            "astId": 3034,
            "contract": "contracts/AiCTFAdapter.sol:AiCTFAdapter",
            "label": "outcomeCount",
            "offset": 0,
            "slot": "3",
            "type": "t_uint256"
          },
          {
            "astId": 3037,
            "contract": "contracts/AiCTFAdapter.sol:AiCTFAdapter",
            "label": "status",
            "offset": 0,
            "slot": "4",
            "type": "t_enum(MarketStatus)3025"
          },
          {
            "astId": 3039,
            "contract": "contracts/AiCTFAdapter.sol:AiCTFAdapter",
            "label": "multisigApproved",
            "offset": 1,
            "slot": "4",
            "type": "t_bool"
          }
        ],
        "numberOfBytes": "160"
      },
      "t_uint256": {
        "encoding": "inplace",
        "label": "uint256",
        "numberOfBytes": "32"
      }
    }
  }
}