{
  "address": "0xe1779C5a00252e8126A3B5309b1380e2F1c6E5D2",
  "abi": [
    {
      "inputs": [
        {
          "internalType": "address",
          "name": "_adapter",
          "type": "address"
        }
      ],
      "stateMutability": "nonpayable",
      "type": "constructor"
    },
    {
      "inputs": [],
      "name": "EmptyCid",
      "type": "error"
    },
    {
      "inputs": [],
      "name": "InvalidOutcomeCount",
      "type": "error"
    },
    {
      "inputs": [],
      "name": "InvalidResolutionTime",
      "type": "error"
    },
    {
      "inputs": [
        {
          "internalType": "bytes32",
          "name": "questionId",
          "type": "bytes32"
        }
      ],
      "name": "MarketAlreadyExists",
      "type": "error"
    },
    {
      "inputs": [
        {
          "internalType": "bytes32",
          "name": "questionId",
          "type": "bytes32"
        }
      ],
      "name": "MarketNotFound",
      "type": "error"
    },
    {
      "inputs": [
        {
          "internalType": "address",
          "name": "owner",
          "type": "address"
        }
      ],
      "name": "OwnableInvalidOwner",
      "type": "error"
    },
    {
      "inputs": [
        {
          "internalType": "address",
          "name": "account",
          "type": "address"
        }
      ],
      "name": "OwnableUnauthorizedAccount",
      "type": "error"
    },
    {
      "anonymous": false,
      "inputs": [
        {
          "indexed": true,
          "internalType": "bytes32",
          "name": "questionId",
          "type": "bytes32"
        },
        {
          "indexed": false,
          "internalType": "string",
          "name": "ipfsCid",
          "type": "string"
        },
        {
          "indexed": false,
          "internalType": "uint256",
          "name": "outcomeCount",
          "type": "uint256"
        },
        {
          "indexed": false,
          "internalType": "uint256",
          "name": "resolutionTime",
          "type": "uint256"
        },
        {
          "indexed": true,
          "internalType": "address",
          "name": "creator",
          "type": "address"
        },
        {
          "indexed": false,
          "internalType": "enum MarketRegistry.SettlementRail",
          "name": "settlementRail",
          "type": "uint8"
        }
      ],
      "name": "MarketCreated",
      "type": "event"
    },
    {
      "anonymous": false,
      "inputs": [
        {
          "indexed": true,
          "internalType": "bytes32",
          "name": "questionId",
          "type": "bytes32"
        },
        {
          "indexed": false,
          "internalType": "enum MarketRegistry.MarketStatus",
          "name": "newStatus",
          "type": "uint8"
        }
      ],
      "name": "MarketStatusUpdated",
      "type": "event"
    },
    {
      "anonymous": false,
      "inputs": [
        {
          "indexed": true,
          "internalType": "address",
          "name": "previousOwner",
          "type": "address"
        },
        {
          "indexed": true,
          "internalType": "address",
          "name": "newOwner",
          "type": "address"
        }
      ],
      "name": "OwnershipTransferred",
      "type": "event"
    },
    {
      "inputs": [],
      "name": "adapter",
      "outputs": [
        {
          "internalType": "contract AiCTFAdapter",
          "name": "",
          "type": "address"
        }
      ],
      "stateMutability": "view",
      "type": "function"
    },
    {
      "inputs": [
        {
          "internalType": "uint256",
          "name": "",
          "type": "uint256"
        }
      ],
      "name": "allMarkets",
      "outputs": [
        {
          "internalType": "bytes32",
          "name": "",
          "type": "bytes32"
        }
      ],
      "stateMutability": "view",
      "type": "function"
    },
    {
      "inputs": [
        {
          "internalType": "string",
          "name": "ipfsCid",
          "type": "string"
        },
        {
          "internalType": "uint256",
          "name": "outcomeCount",
          "type": "uint256"
        },
        {
          "internalType": "uint256",
          "name": "resolutionTime",
          "type": "uint256"
        },
        {
          "internalType": "enum MarketRegistry.SettlementRail",
          "name": "settlementRail",
          "type": "uint8"
        }
      ],
      "name": "createMarket",
      "outputs": [
        {
          "internalType": "bytes32",
          "name": "questionId",
          "type": "bytes32"
        }
      ],
      "stateMutability": "nonpayable",
      "type": "function"
    },
    {
      "inputs": [],
      "name": "getAllMarkets",
      "outputs": [
        {
          "internalType": "bytes32[]",
          "name": "",
          "type": "bytes32[]"
        }
      ],
      "stateMutability": "view",
      "type": "function"
    },
    {
      "inputs": [
        {
          "internalType": "bytes32",
          "name": "questionId",
          "type": "bytes32"
        }
      ],
      "name": "getMarket",
      "outputs": [
        {
          "components": [
            {
              "internalType": "uint256",
              "name": "outcomeCount",
              "type": "uint256"
            },
            {
              "internalType": "uint256",
              "name": "resolutionTime",
              "type": "uint256"
            },
            {
              "internalType": "enum MarketRegistry.MarketStatus",
              "name": "status",
              "type": "uint8"
            },
            {
              "internalType": "bool",
              "name": "exists",
              "type": "bool"
            }
          ],
          "internalType": "struct MarketRegistry.MarketInfo",
          "name": "",
          "type": "tuple"
        }
      ],
      "stateMutability": "view",
      "type": "function"
    },
    {
      "inputs": [],
      "name": "getMarketCount",
      "outputs": [
        {
          "internalType": "uint256",
          "name": "",
          "type": "uint256"
        }
      ],
      "stateMutability": "view",
      "type": "function"
    },
    {
      "inputs": [
        {
          "internalType": "uint256",
          "name": "offset",
          "type": "uint256"
        },
        {
          "internalType": "uint256",
          "name": "limit",
          "type": "uint256"
        }
      ],
      "name": "getMarketsPage",
      "outputs": [
        {
          "internalType": "bytes32[]",
          "name": "page",
          "type": "bytes32[]"
        }
      ],
      "stateMutability": "view",
      "type": "function"
    },
    {
      "inputs": [
        {
          "internalType": "bytes32",
          "name": "",
          "type": "bytes32"
        }
      ],
      "name": "marketSettlementRail",
      "outputs": [
        {
          "internalType": "enum MarketRegistry.SettlementRail",
          "name": "",
          "type": "uint8"
        }
      ],
      "stateMutability": "view",
      "type": "function"
    },
    {
      "inputs": [
        {
          "internalType": "bytes32",
          "name": "",
          "type": "bytes32"
        }
      ],
      "name": "markets",
      "outputs": [
        {
          "internalType": "uint256",
          "name": "outcomeCount",
          "type": "uint256"
        },
        {
          "internalType": "uint256",
          "name": "resolutionTime",
          "type": "uint256"
        },
        {
          "internalType": "enum MarketRegistry.MarketStatus",
          "name": "status",
          "type": "uint8"
        },
        {
          "internalType": "bool",
          "name": "exists",
          "type": "bool"
        }
      ],
      "stateMutability": "view",
      "type": "function"
    },
    {
      "inputs": [],
      "name": "owner",
      "outputs": [
        {
          "internalType": "address",
          "name": "",
          "type": "address"
        }
      ],
      "stateMutability": "view",
      "type": "function"
    },
    {
      "inputs": [],
      "name": "renounceOwnership",
      "outputs": [],
      "stateMutability": "nonpayable",
      "type": "function"
    },
    {
      "inputs": [
        {
          "internalType": "bytes32",
          "name": "questionId",
          "type": "bytes32"
        }
      ],
      "name": "syncStatus",
      "outputs": [],
      "stateMutability": "nonpayable",
      "type": "function"
    },
    {
      "inputs": [
        {
          "internalType": "address",
          "name": "newOwner",
          "type": "address"
        }
      ],
      "name": "transferOwnership",
      "outputs": [],
      "stateMutability": "nonpayable",
      "type": "function"
    }
  ],
  "transactionHash": "0xa2285c3f4ae46f226d9f63fa5fa2c54ec545795e1a602736c560d6d1be1dbd98",
  "args": [
    "0xe99C7F6A328516DFE09CB49772733C8315DB250F"
  ],
  "numDeployments": 1,
  "solcInputHash": "43473dc0f9316c7f28f2950e3aae9a3b",
  "bytecode": "0x60a0346100d657601f610deb38819003918201601f19168301916001600160401b038311848410176100db578084926020946040528339810103126100d657516001600160a01b0390818116908190036100d65733156100bd576000543360018060a01b0319821617600055604051923391167f8be0079c531659141344cd1fd0a4f28419497f9722a3daafe3b4186f6b6457e0600080a3608052610cf990816100f28239608051818181610249015281816104e90152610a070152f35b604051631e4fbdf760e01b815260006004820152602490fd5b600080fd5b634e487b7160e01b600052604160045260246000fdfe608060408181526004918236101561001657600080fd5b600092833560e01c91826303eadcfc146109f3575081634cf6ad48146109c457816352d84d1e1461098b578163715018a6146109315781637564912b146108dc5781638da5cb5b146108b45781639575024c14610882578163b0772d0b146107f7578163c3c95c7b14610737578163cb462de71461049a578163f2fde38b1461040f578163fbcb13ab146100d5575063fd69f3c2146100b457600080fd5b346100d157816003193601126100d1576020906003549051908152f35b5080fd5b839150346100d15760803660031901126100d15767ffffffffffffffff92813584811161040b573660238201121561040b5780830135858111610407576024808301928183369201011161040357803592604435906064359260028410156103ff5784156103ef57600286106103df57428311156103d0578651986020998a810190878583376101738c828a81018683820152038084520182610b4c565b5190209889825260018b5260ff60028a8420015460081c166103ba578a8a60028b5161019e81610b1a565b8b81528c6001858301918b835283019588875260608401958287528952528d87209151825551600182015501915160038110156103a7576101df9083610b6e565b51151561ff0082549160081b169061ff00191617905589825260028b5288822060ff1981541660ff881617905560035468010000000000000000811015610396578060016102309201600355610a71565b815460001960039290921b91821b1916908c901b1790557f00000000000000000000000000000000000000000000000000000000000000006001600160a01b0316803b156103925790828581938a6102ad97968f8f8f90519a8b9687958694630cf5f5e560e31b86528b86015260808d8601526084850191610b86565b9060448301528c606483015203925af19c8d15610388578b9c9d9b999a9b610330575b505050505091610324916103117f62ecd9a555f6d1c39b4aa3f59893f3e7111a0afcb98dca0818afaf3a4d41a3079594895195608087526080870191610b86565b968a850152878401526060830190610ae1565b8033940390a351908152f35b9091929380959697989950116103785750505086528693929190816103117f62ecd9a555f6d1c39b4aa3f59893f3e7111a0afcb98dca0818afaf3a4d41a3076103248d6102d0565b634e487b7160e01b825260419052fd5b8a513d84823e3d90fd5b8280fd5b50634e487b7160e01b825260419052fd5b5050634e487b7160e01b83525060219052fd5b88516316d69ee360e31b81529081018a90529050fd5b86516282a4d560e51b81528890fd5b865163162cc9e360e11b81528890fd5b8651636d91186360e01b81528890fd5b8880fd5b8580fd5b8480fd5b8380fd5b91905034610392576020366003190112610392576001600160a01b0382358181169391929084900361040757610443610aee565b831561048457505082546001600160a01b0319811683178455167f8be0079c531659141344cd1fd0a4f28419497f9722a3daafe3b4186f6b6457e08380a380f35b51631e4fbdf760e01b8152908101849052602490fd5b919050346103925760208060031936011261040b578235928385526001825260028386200180549160ff8360081c16156107205784516358c039cd60e01b8152818101879052602490888183817f00000000000000000000000000000000000000000000000000000000000000006001600160a01b03165afa80156107165789906105f6575b60809150018051838110156105e4576003036105af575060ff6002945b1691600383101561059e57600385101561059e575050820361055d578580f35b7f74fc237518b6a229d625c5a6f5e9146a12d2efec5bea8059db206afa77b69a919361058c8361059493610b6e565b518092610abe565ba238808080808580f35b634e487b7160e01b89526021905287fd5b51828110156105d2576002036105c95760ff60019461053d565b60ff889461053d565b50634e487b7160e01b88526021825287fd5b634e487b7160e01b8a5260218452828afd5b503d808a833e6106068183610b4c565b810186828203126106e457815167ffffffffffffffff9283821161070057019060c0828203126106e85788519260c0840184811082821117610704578a52825184528883015189850152898301519081116107005782019080601f8301121561070057815161067481610ba7565b926106818c519485610b4c565b8184528a8085019260051b8201019283116106fc578a809101915b8383106106ec57505050508883015260608101516060830152608081015190848210156106e85760a091608084015201519081151582036106e45760809160a0820152610520565b8980fd5b8a80fd5b82518152918101918b910161069c565b8d80fd5b8b80fd5b634e487b7160e01b8d5260418752858dfd5b87513d8b823e3d90fd5b8451638edfb9e960e01b8152908101869052602490fd5b8383346100d15760203660031901126100d157816060825161075881610b1a565b828152826020820152828482015201528235825260016020528082209080519261078184610b1a565b8254845260026001840154936020860194855201549260ff84168386019260038210156107e457608087876107da88888888825260ff606087019560081c16151585528251955186525160208601525190840190610abe565b5115156060820152f35b634e487b7160e01b815260218852602490fd5b82843461087f578060031936011261087f578151918291600354808552602080950194600383527fc2575a0e9e593c00f959f8c92f12db2869c3395a3b0502d05e2516446f71f85b92905b82821061086857610864868661085a828b0383610b4c565b5191829182610a36565b0390f35b835487529586019560019384019390910190610842565b80fd5b9050346103925760203660031901126103925760ff826020946108b2933581526002865220541691518092610ae1565bf35b5050346100d157816003193601126100d157905490516001600160a01b039091168152602090f35b905034610392576020366003190112610392578160809360ff923581526001602052206109248154936002600184015493015492815195865260208601528401838316610abe565b60081c1615156060820152f35b833461087f578060031936011261087f5761094a610aee565b80546001600160a01b03198116825581906001600160a01b03167f8be0079c531659141344cd1fd0a4f28419497f9722a3daafe3b4186f6b6457e08280a380f35b90503461039257602036600319011261039257359160035483101561087f57506109b6602092610a71565b90549060031b1c9051908152f35b82843461087f578160031936011261087f57506109e8610864926024359035610be2565b905191829182610a36565b8490346100d157816003193601126100d1577f00000000000000000000000000000000000000000000000000000000000000006001600160a01b03168152602090f35b6020908160408183019282815285518094520193019160005b828110610a5d575050505090565b835185529381019392810192600101610a4f565b600354811015610aa85760036000527fc2575a0e9e593c00f959f8c92f12db2869c3395a3b0502d05e2516446f71f85b0190600090565b634e487b7160e01b600052603260045260246000fd5b906003821015610acb5752565b634e487b7160e01b600052602160045260246000fd5b906002821015610acb5752565b6000546001600160a01b03163303610b0257565b60405163118cdaa760e01b8152336004820152602490fd5b6080810190811067ffffffffffffffff821117610b3657604052565b634e487b7160e01b600052604160045260246000fd5b90601f8019910116810190811067ffffffffffffffff821117610b3657604052565b906003811015610acb5760ff80198354169116179055565b908060209392818452848401376000828201840152601f01601f1916010190565b67ffffffffffffffff8111610b365760051b60200190565b91908201809211610bcc57565b634e487b7160e01b600052601160045260246000fd5b600380549283831015610c9657610bf99083610bbf565b92808411610c8e575b50818303928311610bcc57610c1683610ba7565b92610c246040519485610b4c565b808452610c33601f1991610ba7565b019160209236848601378360005b8551811015610c8557610c5c610c578285610bbf565b610a71565b905490851b1c8651821015610aa857858260051b880101526000198114610bcc57600101610c41565b50949350505050565b925038610c02565b505050506040516020810181811067ffffffffffffffff821117610b36576040526000815260003681379056fea264697066735822122056e6ff15623bd3273735a36ad05dc377f5c77d8471421dc7b9211026824ad66064736f6c63430008140033",
  "devdoc": {
    "details": "Design principles:  - Zero contract deployments per market. Ever.  - `questionId` is the only on-chain key: keccak256(abi.encodePacked(ipfsCid)).  - The ipfsCid is emitted in events only — not stored in contract storage.  - A subgraph can reconstruct full market state from MarketCreated + adapter events.",
    "errors": {
      "OwnableInvalidOwner(address)": [
        {
          "details": "The owner is not a valid owner account. (eg. `address(0)`)"
        }
      ],
      "OwnableUnauthorizedAccount(address)": [
        {
          "details": "The caller account is not authorized to perform an operation."
        }
      ]
    },
    "events": {
      "MarketCreated(bytes32,string,uint256,uint256,address,uint8)": {
        "details": "Indexed on questionId. A subgraph detects this and fetches ipfsCid to get metadata.",
        "params": {
          "creator": "Address that called createMarket()",
          "ipfsCid": "IPFS CID of the metadata JSON (NOT stored on-chain)",
          "questionId": "keccak256(abi.encodePacked(ipfsCid))",
          "resolutionTime": "Unix timestamp for AI resolution"
        }
      }
    },
    "kind": "dev",
    "methods": {
      "constructor": {
        "params": {
          "_adapter": "Address of the deployed AiCTFAdapter."
        }
      },
      "createMarket(string,uint256,uint256,uint8)": {
        "details": "Steps:   1. Derive questionId from the IPFS CID.   2. Register market metadata in local storage (no strings, only primitives).   3. Call adapter.initializeMarket() → CTF prepareCondition + CRE event trigger.   4. Emit MarketCreated so the subgraph / frontend can index it.",
        "params": {
          "ipfsCid": "IPFS CID of the metadata JSON (format: \"Qm...\" or \"bafy...\").",
          "outcomeCount": "Number of outcome slots (2 for binary YES/NO).",
          "resolutionTime": "Unix timestamp when Chainlink CRE should resolve. Must be in the future."
        },
        "returns": {
          "questionId": "    keccak256(abi.encodePacked(ipfsCid))"
        }
      },
      "owner()": {
        "details": "Returns the address of the current owner."
      },
      "renounceOwnership()": {
        "details": "Leaves the contract without owner. It will not be possible to call `onlyOwner` functions. Can only be called by the current owner. NOTE: Renouncing ownership will leave the contract without an owner, thereby disabling any functionality that is only available to the owner."
      },
      "syncStatus(bytes32)": {
        "details": "The adapter emits MarketResolved; a keeper or the finalizer can call this.      Alternatively, the frontend reads status directly from the adapter."
      },
      "transferOwnership(address)": {
        "details": "Transfers ownership of the contract to a new account (`newOwner`). Can only be called by the current owner."
      }
    },
    "title": "MarketRegistry",
    "version": 1
  },
  "userdoc": {
    "events": {
      "MarketCreated(bytes32,string,uint256,uint256,address,uint8)": {
        "notice": "Emitted when a new market is created."
      }
    },
    "kind": "user",
    "methods": {
      "adapter()": {
        "notice": "The AI oracle adapter (AiCTFAdapter)"
      },
      "allMarkets(uint256)": {
        "notice": "Ordered list of all questionIds for enumeration"
      },
      "createMarket(string,uint256,uint256,uint8)": {
        "notice": "Creates a new prediction market in a single transaction."
      },
      "getMarketsPage(uint256,uint256)": {
        "notice": "Returns a page of market questionIds for frontend pagination."
      },
      "marketSettlementRail(bytes32)": {
        "notice": "questionId → settlement rail (immutable after creation)"
      },
      "markets(bytes32)": {
        "notice": "questionId → MarketInfo (lightweight — no metadata strings)"
      },
      "syncStatus(bytes32)": {
        "notice": "Syncs the registry status when the adapter resolves a market."
      }
    },
    "notice": "Lightweight on-chain registry for CTF prediction markets.",
    "version": 1
  },
  "storageLayout": {
    "storage": [
      {
        "astId": 8,
        "contract": "contracts/MarketRegistry.sol:MarketRegistry",
        "label": "_owner",
        "offset": 0,
        "slot": "0",
        "type": "t_address"
      },
      {
        "astId": 5477,
        "contract": "contracts/MarketRegistry.sol:MarketRegistry",
        "label": "markets",
        "offset": 0,
        "slot": "1",
        "type": "t_mapping(t_bytes32,t_struct(MarketInfo)5467_storage)"
      },
      {
        "astId": 5483,
        "contract": "contracts/MarketRegistry.sol:MarketRegistry",
        "label": "marketSettlementRail",
        "offset": 0,
        "slot": "2",
        "type": "t_mapping(t_bytes32,t_enum(SettlementRail)5457)"
      },
      {
        "astId": 5487,
        "contract": "contracts/MarketRegistry.sol:MarketRegistry",
        "label": "allMarkets",
        "offset": 0,
        "slot": "3",
        "type": "t_array(t_bytes32)dyn_storage"
      }
    ],
    "types": {
      "t_address": {
        "encoding": "inplace",
        "label": "address",
        "numberOfBytes": "20"
      },
      "t_array(t_bytes32)dyn_storage": {
        "base": "t_bytes32",
        "encoding": "dynamic_array",
        "label": "bytes32[]",
        "numberOfBytes": "32"
      },
      "t_bool": {
        "encoding": "inplace",
        "label": "bool",
        "numberOfBytes": "1"
      },
      "t_bytes32": {
        "encoding": "inplace",
        "label": "bytes32",
        "numberOfBytes": "32"
      },
      "t_enum(MarketStatus)5453": {
        "encoding": "inplace",
        "label": "enum MarketRegistry.MarketStatus",
        "numberOfBytes": "1"
      },
      "t_enum(SettlementRail)5457": {
        "encoding": "inplace",
        "label": "enum MarketRegistry.SettlementRail",
        "numberOfBytes": "1"
      },
      "t_mapping(t_bytes32,t_enum(SettlementRail)5457)": {
        "encoding": "mapping",
        "key": "t_bytes32",
        "label": "mapping(bytes32 => enum MarketRegistry.SettlementRail)",
        "numberOfBytes": "32",
        "value": "t_enum(SettlementRail)5457"
      },
      "t_mapping(t_bytes32,t_struct(MarketInfo)5467_storage)": {
        "encoding": "mapping",
        "key": "t_bytes32",
        "label": "mapping(bytes32 => struct MarketRegistry.MarketInfo)",
        "numberOfBytes": "32",
        "value": "t_struct(MarketInfo)5467_storage"
      },
      "t_struct(MarketInfo)5467_storage": {
        "encoding": "inplace",
        "label": "struct MarketRegistry.MarketInfo",
        "members": [
          {
            "astId": 5459,
            "contract": "contracts/MarketRegistry.sol:MarketRegistry",
            "label": "outcomeCount",
            "offset": 0,
            "slot": "0",
            "type": "t_uint256"
          },
          {
            "astId": 5461,
            "contract": "contracts/MarketRegistry.sol:MarketRegistry",
            "label": "resolutionTime",
            "offset": 0,
            "slot": "1",
            "type": "t_uint256"
          },
          {
            "astId": 5464,
            "contract": "contracts/MarketRegistry.sol:MarketRegistry",
            "label": "status",
            "offset": 0,
            "slot": "2",
            "type": "t_enum(MarketStatus)5453"
          },
          {
            "astId": 5466,
            "contract": "contracts/MarketRegistry.sol:MarketRegistry",
            "label": "exists",
            "offset": 1,
            "slot": "2",
            "type": "t_bool"
          }
        ],
        "numberOfBytes": "96"
      },
      "t_uint256": {
        "encoding": "inplace",
        "label": "uint256",
        "numberOfBytes": "32"
      }
    }
  }
}