{
  "address": "0x6Bd828a468B3515D80dECD4A0051c85B83cd391d",
  "abi": [
    {
      "inputs": [
        {
          "internalType": "address",
          "name": "_ctf",
          "type": "address"
        },
        {
          "internalType": "address",
          "name": "_forwarderAddress",
          "type": "address"
        },
        {
          "internalType": "uint256",
          "name": "_disputeWindow",
          "type": "uint256"
        },
        {
          "internalType": "address[]",
          "name": "_multisigSigners",
          "type": "address[]"
        },
        {
          "internalType": "uint256",
          "name": "_multisigThreshold",
          "type": "uint256"
        }
      ],
      "stateMutability": "nonpayable",
      "type": "constructor"
    },
    {
      "inputs": [],
      "name": "AlreadyApproved",
      "type": "error"
    },
    {
      "inputs": [],
      "name": "AlreadyInitialized",
      "type": "error"
    },
    {
      "inputs": [],
      "name": "AlreadyResolved",
      "type": "error"
    },
    {
      "inputs": [],
      "name": "DisputeWindowActive",
      "type": "error"
    },
    {
      "inputs": [],
      "name": "DisputeWindowExpired",
      "type": "error"
    },
    {
      "inputs": [
        {
          "internalType": "address",
          "name": "received",
          "type": "address"
        },
        {
          "internalType": "address",
          "name": "expected",
          "type": "address"
        }
      ],
      "name": "InvalidAuthor",
      "type": "error"
    },
    {
      "inputs": [],
      "name": "InvalidDisputeWindow",
      "type": "error"
    },
    {
      "inputs": [],
      "name": "InvalidForwarderAddress",
      "type": "error"
    },
    {
      "inputs": [],
      "name": "InvalidPayouts",
      "type": "error"
    },
    {
      "inputs": [
        {
          "internalType": "address",
          "name": "sender",
          "type": "address"
        },
        {
          "internalType": "address",
          "name": "expected",
          "type": "address"
        }
      ],
      "name": "InvalidSender",
      "type": "error"
    },
    {
      "inputs": [],
      "name": "InvalidThreshold",
      "type": "error"
    },
    {
      "inputs": [
        {
          "internalType": "bytes32",
          "name": "received",
          "type": "bytes32"
        },
        {
          "internalType": "bytes32",
          "name": "expected",
          "type": "bytes32"
        }
      ],
      "name": "InvalidWorkflowId",
      "type": "error"
    },
    {
      "inputs": [
        {
          "internalType": "bytes10",
          "name": "received",
          "type": "bytes10"
        },
        {
          "internalType": "bytes10",
          "name": "expected",
          "type": "bytes10"
        }
      ],
      "name": "InvalidWorkflowName",
      "type": "error"
    },
    {
      "inputs": [],
      "name": "NoProposalPending",
      "type": "error"
    },
    {
      "inputs": [],
      "name": "NotInitialized",
      "type": "error"
    },
    {
      "inputs": [],
      "name": "NotMultisigSigner",
      "type": "error"
    },
    {
      "inputs": [],
      "name": "NotRegistry",
      "type": "error"
    },
    {
      "inputs": [
        {
          "internalType": "address",
          "name": "owner",
          "type": "address"
        }
      ],
      "name": "OwnableInvalidOwner",
      "type": "error"
    },
    {
      "inputs": [
        {
          "internalType": "address",
          "name": "account",
          "type": "address"
        }
      ],
      "name": "OwnableUnauthorizedAccount",
      "type": "error"
    },
    {
      "inputs": [],
      "name": "ThresholdNotMet",
      "type": "error"
    },
    {
      "inputs": [],
      "name": "WorkflowNameRequiresAuthorValidation",
      "type": "error"
    },
    {
      "inputs": [],
      "name": "ZeroOutcomeCount",
      "type": "error"
    },
    {
      "anonymous": false,
      "inputs": [
        {
          "indexed": false,
          "internalType": "uint256",
          "name": "newWindow",
          "type": "uint256"
        }
      ],
      "name": "DisputeWindowUpdated",
      "type": "event"
    },
    {
      "anonymous": false,
      "inputs": [
        {
          "indexed": true,
          "internalType": "address",
          "name": "previousAuthor",
          "type": "address"
        },
        {
          "indexed": true,
          "internalType": "address",
          "name": "newAuthor",
          "type": "address"
        }
      ],
      "name": "ExpectedAuthorUpdated",
      "type": "event"
    },
    {
      "anonymous": false,
      "inputs": [
        {
          "indexed": true,
          "internalType": "bytes32",
          "name": "previousId",
          "type": "bytes32"
        },
        {
          "indexed": true,
          "internalType": "bytes32",
          "name": "newId",
          "type": "bytes32"
        }
      ],
      "name": "ExpectedWorkflowIdUpdated",
      "type": "event"
    },
    {
      "anonymous": false,
      "inputs": [
        {
          "indexed": true,
          "internalType": "bytes10",
          "name": "previousName",
          "type": "bytes10"
        },
        {
          "indexed": true,
          "internalType": "bytes10",
          "name": "newName",
          "type": "bytes10"
        }
      ],
      "name": "ExpectedWorkflowNameUpdated",
      "type": "event"
    },
    {
      "anonymous": false,
      "inputs": [
        {
          "indexed": true,
          "internalType": "address",
          "name": "previousForwarder",
          "type": "address"
        },
        {
          "indexed": true,
          "internalType": "address",
          "name": "newForwarder",
          "type": "address"
        }
      ],
      "name": "ForwarderAddressUpdated",
      "type": "event"
    },
    {
      "anonymous": false,
      "inputs": [
        {
          "indexed": true,
          "internalType": "bytes32",
          "name": "questionId",
          "type": "bytes32"
        },
        {
          "indexed": false,
          "internalType": "string",
          "name": "ipfsCid",
          "type": "string"
        },
        {
          "indexed": false,
          "internalType": "uint256",
          "name": "outcomeCount",
          "type": "uint256"
        },
        {
          "indexed": false,
          "internalType": "uint256",
          "name": "resolutionTime",
          "type": "uint256"
        }
      ],
      "name": "MarketInitialized",
      "type": "event"
    },
    {
      "anonymous": false,
      "inputs": [
        {
          "indexed": true,
          "internalType": "bytes32",
          "name": "questionId",
          "type": "bytes32"
        },
        {
          "indexed": false,
          "internalType": "uint256[]",
          "name": "payouts",
          "type": "uint256[]"
        }
      ],
      "name": "MarketResolved",
      "type": "event"
    },
    {
      "anonymous": false,
      "inputs": [
        {
          "indexed": true,
          "internalType": "bytes32",
          "name": "questionId",
          "type": "bytes32"
        },
        {
          "indexed": true,
          "internalType": "address",
          "name": "signer",
          "type": "address"
        },
        {
          "indexed": false,
          "internalType": "uint256",
          "name": "approvalsNow",
          "type": "uint256"
        },
        {
          "indexed": false,
          "internalType": "uint256",
          "name": "threshold",
          "type": "uint256"
        }
      ],
      "name": "MultisigOverrideApproved",
      "type": "event"
    },
    {
      "anonymous": false,
      "inputs": [
        {
          "indexed": false,
          "internalType": "address[]",
          "name": "newSigners",
          "type": "address[]"
        }
      ],
      "name": "MultisigSignersUpdated",
      "type": "event"
    },
    {
      "anonymous": false,
      "inputs": [
        {
          "indexed": false,
          "internalType": "uint256",
          "name": "newThreshold",
          "type": "uint256"
        }
      ],
      "name": "MultisigThresholdUpdated",
      "type": "event"
    },
    {
      "anonymous": false,
      "inputs": [
        {
          "indexed": true,
          "internalType": "address",
          "name": "previousOwner",
          "type": "address"
        },
        {
          "indexed": true,
          "internalType": "address",
          "name": "newOwner",
          "type": "address"
        }
      ],
      "name": "OwnershipTransferred",
      "type": "event"
    },
    {
      "anonymous": false,
      "inputs": [
        {
          "indexed": false,
          "internalType": "address",
          "name": "newRegistry",
          "type": "address"
        }
      ],
      "name": "RegistryUpdated",
      "type": "event"
    },
    {
      "anonymous": false,
      "inputs": [
        {
          "indexed": true,
          "internalType": "bytes32",
          "name": "questionId",
          "type": "bytes32"
        },
        {
          "indexed": false,
          "internalType": "uint256[]",
          "name": "newPayouts",
          "type": "uint256[]"
        },
        {
          "indexed": false,
          "internalType": "address",
          "name": "replacedBy",
          "type": "address"
        }
      ],
      "name": "ResolutionProposalReplaced",
      "type": "event"
    },
    {
      "anonymous": false,
      "inputs": [
        {
          "indexed": true,
          "internalType": "bytes32",
          "name": "questionId",
          "type": "bytes32"
        },
        {
          "indexed": false,
          "internalType": "uint256[]",
          "name": "payouts",
          "type": "uint256[]"
        },
        {
          "indexed": false,
          "internalType": "uint256",
          "name": "disputeWindowEnd",
          "type": "uint256"
        }
      ],
      "name": "ResolutionProposed",
      "type": "event"
    },
    {
      "anonymous": false,
      "inputs": [
        {
          "indexed": false,
          "internalType": "string",
          "name": "message",
          "type": "string"
        }
      ],
      "name": "SecurityWarning",
      "type": "event"
    },
    {
      "inputs": [
        {
          "internalType": "bytes32",
          "name": "questionId",
          "type": "bytes32"
        },
        {
          "internalType": "uint256[]",
          "name": "payouts",
          "type": "uint256[]"
        }
      ],
      "name": "adminOverride",
      "outputs": [],
      "stateMutability": "nonpayable",
      "type": "function"
    },
    {
      "inputs": [
        {
          "internalType": "bytes32",
          "name": "questionId",
          "type": "bytes32"
        },
        {
          "internalType": "uint256[]",
          "name": "payouts",
          "type": "uint256[]"
        }
      ],
      "name": "adminResolve",
      "outputs": [],
      "stateMutability": "nonpayable",
      "type": "function"
    },
    {
      "inputs": [],
      "name": "ctf",
      "outputs": [
        {
          "internalType": "contract ConditionalTokens",
          "name": "",
          "type": "address"
        }
      ],
      "stateMutability": "view",
      "type": "function"
    },
    {
      "inputs": [],
      "name": "disputeWindow",
      "outputs": [
        {
          "internalType": "uint256",
          "name": "",
          "type": "uint256"
        }
      ],
      "stateMutability": "view",
      "type": "function"
    },
    {
      "inputs": [
        {
          "internalType": "bytes32",
          "name": "questionId",
          "type": "bytes32"
        }
      ],
      "name": "finalizeResolution",
      "outputs": [],
      "stateMutability": "nonpayable",
      "type": "function"
    },
    {
      "inputs": [
        {
          "internalType": "bytes32",
          "name": "questionId",
          "type": "bytes32"
        }
      ],
      "name": "getDisputeWindowEnd",
      "outputs": [
        {
          "internalType": "uint256",
          "name": "",
          "type": "uint256"
        }
      ],
      "stateMutability": "view",
      "type": "function"
    },
    {
      "inputs": [],
      "name": "getExpectedAuthor",
      "outputs": [
        {
          "internalType": "address",
          "name": "",
          "type": "address"
        }
      ],
      "stateMutability": "view",
      "type": "function"
    },
    {
      "inputs": [],
      "name": "getExpectedWorkflowId",
      "outputs": [
        {
          "internalType": "bytes32",
          "name": "",
          "type": "bytes32"
        }
      ],
      "stateMutability": "view",
      "type": "function"
    },
    {
      "inputs": [],
      "name": "getExpectedWorkflowName",
      "outputs": [
        {
          "internalType": "bytes10",
          "name": "",
          "type": "bytes10"
        }
      ],
      "stateMutability": "view",
      "type": "function"
    },
    {
      "inputs": [],
      "name": "getForwarderAddress",
      "outputs": [
        {
          "internalType": "address",
          "name": "",
          "type": "address"
        }
      ],
      "stateMutability": "view",
      "type": "function"
    },
    {
      "inputs": [],
      "name": "getMultisigSigners",
      "outputs": [
        {
          "internalType": "address[]",
          "name": "",
          "type": "address[]"
        }
      ],
      "stateMutability": "view",
      "type": "function"
    },
    {
      "inputs": [
        {
          "internalType": "bytes32",
          "name": "questionId",
          "type": "bytes32"
        }
      ],
      "name": "getQuestion",
      "outputs": [
        {
          "components": [
            {
              "internalType": "uint256",
              "name": "resolutionTime",
              "type": "uint256"
            },
            {
              "internalType": "uint256",
              "name": "proposedAt",
              "type": "uint256"
            },
            {
              "internalType": "uint256[]",
              "name": "proposedPayouts",
              "type": "uint256[]"
            },
            {
              "internalType": "uint256",
              "name": "outcomeCount",
              "type": "uint256"
            },
            {
              "internalType": "enum AiCTFAdapter.MarketStatus",
              "name": "status",
              "type": "uint8"
            },
            {
              "internalType": "bool",
              "name": "multisigApproved",
              "type": "bool"
            }
          ],
          "internalType": "struct AiCTFAdapter.MarketQuestion",
          "name": "",
          "type": "tuple"
        }
      ],
      "stateMutability": "view",
      "type": "function"
    },
    {
      "inputs": [
        {
          "internalType": "bytes32",
          "name": "questionId",
          "type": "bytes32"
        },
        {
          "internalType": "string",
          "name": "ipfsCid",
          "type": "string"
        },
        {
          "internalType": "uint256",
          "name": "outcomeCount",
          "type": "uint256"
        },
        {
          "internalType": "uint256",
          "name": "resolutionTime",
          "type": "uint256"
        }
      ],
      "name": "initializeMarket",
      "outputs": [],
      "stateMutability": "nonpayable",
      "type": "function"
    },
    {
      "inputs": [
        {
          "internalType": "address",
          "name": "addr",
          "type": "address"
        }
      ],
      "name": "isMultisigSigner",
      "outputs": [
        {
          "internalType": "bool",
          "name": "",
          "type": "bool"
        }
      ],
      "stateMutability": "view",
      "type": "function"
    },
    {
      "inputs": [
        {
          "internalType": "bytes32",
          "name": "",
          "type": "bytes32"
        }
      ],
      "name": "multisigApprovalCount",
      "outputs": [
        {
          "internalType": "uint256",
          "name": "",
          "type": "uint256"
        }
      ],
      "stateMutability": "view",
      "type": "function"
    },
    {
      "inputs": [
        {
          "internalType": "bytes32",
          "name": "",
          "type": "bytes32"
        },
        {
          "internalType": "address",
          "name": "",
          "type": "address"
        }
      ],
      "name": "multisigApprovals",
      "outputs": [
        {
          "internalType": "bool",
          "name": "",
          "type": "bool"
        }
      ],
      "stateMutability": "view",
      "type": "function"
    },
    {
      "inputs": [
        {
          "internalType": "bytes32",
          "name": "questionId",
          "type": "bytes32"
        },
        {
          "internalType": "uint256[]",
          "name": "payouts",
          "type": "uint256[]"
        }
      ],
      "name": "multisigOverride",
      "outputs": [],
      "stateMutability": "nonpayable",
      "type": "function"
    },
    {
      "inputs": [
        {
          "internalType": "uint256",
          "name": "",
          "type": "uint256"
        }
      ],
      "name": "multisigSigners",
      "outputs": [
        {
          "internalType": "address",
          "name": "",
          "type": "address"
        }
      ],
      "stateMutability": "view",
      "type": "function"
    },
    {
      "inputs": [],
      "name": "multisigThreshold",
      "outputs": [
        {
          "internalType": "uint256",
          "name": "",
          "type": "uint256"
        }
      ],
      "stateMutability": "view",
      "type": "function"
    },
    {
      "inputs": [
        {
          "internalType": "bytes",
          "name": "metadata",
          "type": "bytes"
        },
        {
          "internalType": "bytes",
          "name": "report",
          "type": "bytes"
        }
      ],
      "name": "onReport",
      "outputs": [],
      "stateMutability": "nonpayable",
      "type": "function"
    },
    {
      "inputs": [],
      "name": "owner",
      "outputs": [
        {
          "internalType": "address",
          "name": "",
          "type": "address"
        }
      ],
      "stateMutability": "view",
      "type": "function"
    },
    {
      "inputs": [
        {
          "internalType": "bytes32",
          "name": "",
          "type": "bytes32"
        }
      ],
      "name": "questions",
      "outputs": [
        {
          "internalType": "uint256",
          "name": "resolutionTime",
          "type": "uint256"
        },
        {
          "internalType": "uint256",
          "name": "proposedAt",
          "type": "uint256"
        },
        {
          "internalType": "uint256",
          "name": "outcomeCount",
          "type": "uint256"
        },
        {
          "internalType": "enum AiCTFAdapter.MarketStatus",
          "name": "status",
          "type": "uint8"
        },
        {
          "internalType": "bool",
          "name": "multisigApproved",
          "type": "bool"
        }
      ],
      "stateMutability": "view",
      "type": "function"
    },
    {
      "inputs": [],
      "name": "registry",
      "outputs": [
        {
          "internalType": "address",
          "name": "",
          "type": "address"
        }
      ],
      "stateMutability": "view",
      "type": "function"
    },
    {
      "inputs": [],
      "name": "renounceOwnership",
      "outputs": [],
      "stateMutability": "nonpayable",
      "type": "function"
    },
    {
      "inputs": [
        {
          "internalType": "uint256",
          "name": "_window",
          "type": "uint256"
        }
      ],
      "name": "setDisputeWindow",
      "outputs": [],
      "stateMutability": "nonpayable",
      "type": "function"
    },
    {
      "inputs": [
        {
          "internalType": "address",
          "name": "_author",
          "type": "address"
        }
      ],
      "name": "setExpectedAuthor",
      "outputs": [],
      "stateMutability": "nonpayable",
      "type": "function"
    },
    {
      "inputs": [
        {
          "internalType": "bytes32",
          "name": "_id",
          "type": "bytes32"
        }
      ],
      "name": "setExpectedWorkflowId",
      "outputs": [],
      "stateMutability": "nonpayable",
      "type": "function"
    },
    {
      "inputs": [
        {
          "internalType": "string",
          "name": "_name",
          "type": "string"
        }
      ],
      "name": "setExpectedWorkflowName",
      "outputs": [],
      "stateMutability": "nonpayable",
      "type": "function"
    },
    {
      "inputs": [
        {
          "internalType": "address",
          "name": "_forwarder",
          "type": "address"
        }
      ],
      "name": "setForwarderAddress",
      "outputs": [],
      "stateMutability": "nonpayable",
      "type": "function"
    },
    {
      "inputs": [
        {
          "internalType": "address[]",
          "name": "_signers",
          "type": "address[]"
        },
        {
          "internalType": "uint256",
          "name": "_threshold",
          "type": "uint256"
        }
      ],
      "name": "setMultisigSigners",
      "outputs": [],
      "stateMutability": "nonpayable",
      "type": "function"
    },
    {
      "inputs": [
        {
          "internalType": "address",
          "name": "_registry",
          "type": "address"
        }
      ],
      "name": "setRegistry",
      "outputs": [],
      "stateMutability": "nonpayable",
      "type": "function"
    },
    {
      "inputs": [
        {
          "internalType": "bytes4",
          "name": "interfaceId",
          "type": "bytes4"
        }
      ],
      "name": "supportsInterface",
      "outputs": [
        {
          "internalType": "bool",
          "name": "",
          "type": "bool"
        }
      ],
      "stateMutability": "pure",
      "type": "function"
    },
    {
      "inputs": [
        {
          "internalType": "address",
          "name": "newOwner",
          "type": "address"
        }
      ],
      "name": "transferOwnership",
      "outputs": [],
      "stateMutability": "nonpayable",
      "type": "function"
    }
  ],
  "transactionHash": "0x27fb33a297bfc55c97e218729b4f461e1f42c61076ea15005ca2eb4d629b83cc",
  "args": [
    "0x56c1CC0e0B44a59F0e36eA8Ec776cB5B1F4132f5",
    "0x15fC6ae953E024d975e77382eEeC56A9101f9F88",
    7200,
    [],
    0
  ],
  "numDeployments": 1,
  "solcInputHash": "065854dc6072dae9a7a81caacebfbdd4",
  "bytecode": "0x604060a0815234620002b257620024a0803803806200001e81620002cd565b92833981019060a081830312620002b2576200003a81620002f3565b9060206200004a818301620002f3565b8286015160608401516001600160401b03949293919290858111620002b25781019087601f83011215620002b257815197868911620002b7578860051b928462000096818601620002cd565b809b81520190858295820101928311620002b25785809101915b838310620002975750505050608001519633156200027f57600080546001600160a01b03198082163390811784558c51919a6001600160a01b039994989490938a929083167f8be0079c531659141344cd1fd0a4f28419497f9722a3daafe3b4186f6b6457e08b80a3169081156200027157508060019a8b5416178a558b5190877f039ad854736757070884dd787ef1a7f58db33546639d1f3efddcf4a33fb8997e8180a382156200026257508251801515908162000243575b5062000232578616608052600455519485116200021e576801000000000000000085116200021e5760065485600655808610620001f3575b509260068352818320925b858110620001df57888860055551612197908162000309823960805181818161033e0152818161094b01526119360152f35b8451821684820155938201938601620001ad565b60068452868684862092830192015b82811062000212575050620001a2565b85815501879062000202565b634e487b7160e01b83526041600452602483fd5b8a5163aabd5a0960e01b8152600490fd5b8b159150811562000257575b50386200016a565b90508a11386200024f565b6310034a8b60e01b8152600490fd5b62e0775560e61b8152600490fd5b8851631e4fbdf760e01b815260006004820152602490fd5b8190620002a484620002f3565b8152019101908590620000b0565b600080fd5b634e487b7160e01b600052604160045260246000fd5b6040519190601f01601f191682016001600160401b03811183821017620002b757604052565b51906001600160a01b0382168203620002b25756fe6080604052600436101561001257600080fd5b60003560e01c806301ffc9a7146102175780630a0cfa2814610212578063117f5f921461020d5780631cf20ee61461020857806322a9339f146102035780632d27deaf146101fe578063332226d0146101f95780633397cf67146101f45780633441856f146101ef57806358c039cd146101ea5780636436e53d146101e557806365051945146101e057806367afaf28146101db578063715018a6146101d65780637781f0a1146101d15780637b103999146101cc578063805f2132146101c75780638c75ec80146101c25780638da5cb5b146101bd57806395addb90146101b8578063a619d818146101b3578063a7721594146101ae578063a91ee0dc146101a9578063bc1fc27a146101a4578063c3c44ac21461019f578063c735f93f1461019a578063d60c884b14610195578063d777cc6d14610190578063e8c421251461018b578063ea68556514610186578063f2fde38b146101815763f5c793ef1461017c57600080fd5b6115ee565b611562565b611496565b61134f565b61127f565b611211565b610f61565b610f17565b610ed6565b610e66565b610e1d565b610dd7565b610d72565b610d49565b610d2b565b610b04565b610adb565b610aaa565b610a4f565b6108c3565b6107de565b6107b2565b6106cc565b6105ef565b6105c6565b610561565b6103d0565b610328565b6102d2565b6102a3565b610272565b3461026d57602036600319011261026d5760043563ffffffff60e01b811680910361026d5760209063402f909960e11b811490811561025c575b506040519015158152f35b6301ffc9a760e01b14905038610251565b600080fd5b3461026d57602036600319011261026d576020610290600435611bd7565b604051908152f35b600091031261026d57565b3461026d57600036600319011261026d576020600454604051908152f35b6001600160a01b0381160361026d57565b3461026d57604036600319011261026d57602060ff61031c6024356102f6816102c1565b6004356000526008845260406000209060018060a01b0316600052602052604060002090565b54166040519015158152f35b3461026d57600036600319011261026d576040517f00000000000000000000000000000000000000000000000000000000000000006001600160a01b03168152602090f35b9181601f8401121561026d578235916001600160401b03831161026d576020808501948460051b01011161026d57565b90604060031983011261026d5760043591602435906001600160401b03821161026d576103cc9160040161036d565b9091565b3461026d576103de3661039d565b6103e992919261160c565b6103fd826000526007602052604060002090565b9260049361040e8582015460ff1690565b61041781610618565b80156105505761042681610618565b6002810361053f578061043a600392610618565b1461052e5760018101906104518254875490611723565b42101561051d57610477610473600383015461046e368888611730565b6119f2565b1590565b61050c577fe2c02bd9ed13a4523e9bd53a88191407d3d5631253252ffe56fe560d6214647d9495610507926104b3868660026104fb9601611816565b4290556104bf87611af6565b867ffc5e845be2c15171c338768fef89c94ea5d837482cc700be1016f266b5522001604051806104f1338a8a84611881565b0390a25442611723565b604051938493846118aa565b0390a2005b604051630331a49d60e51b81528690fd5b60405163234c0ffd60e21b81528690fd5b6040516336ab81e160e11b81528590fd5b6040516353f7b14960e11b81528690fd5b6040516321c4e35760e21b81528690fd5b3461026d57602036600319011261026d5760043561057d61160c565b80156105b4576020817f5c157a613f3e087909e16add9322412e7c5f67e0612bd2e069190064490da64792600455604051908152a1005b6040516310034a8b60e01b8152600490fd5b3461026d57600036600319011261026d576002546040516001600160a01b039091168152602090f35b3461026d57600036600319011261026d576001546040516001600160a01b039091168152602090f35b6004111561062257565b634e487b7160e01b600052602160045260246000fd5b9060048210156106225752565b60209182825260e082019281518184015280820151604084015260408201519360c06060850152845180915281610100850195019160005b8281106106b857505050509060c060a08360606106b595015160808501526106ac608082015183860190610638565b01511515910152565b90565b83518752958101959281019260010161067d565b3461026d57602036600319011261026d5760a0604080516106ec8161164e565b600092818480935282602082015260608482015282606082015282608082015201526004358252600760205280822090600481519261072a8461164e565b805484526001810154602085015282516107528161074b81600286016118d6565b0382611697565b838501526003810154606085015201549260ff841690600482101561079e575060ff61079a9461079092608086015260081c1660a084019015159052565b5191829182610645565b0390f35b634e487b7160e01b81526021600452602490fd5b3461026d57602036600319011261026d5760043560005260096020526020604060002054604051908152f35b3461026d5760008060031936011261089357604051809160065490818352602080930180926006835260008051602061214283398151915290835b818110610876575050508461082f910385611697565b60405193838594850191818652518092526040850193925b82811061085657505050500390f35b83516001600160a01b031685528695509381019392810192600101610847565b82546001600160a01b031684529286019260019283019201610819565b80fd5b9181601f8401121561026d578235916001600160401b03831161026d576020838186019501011161026d57565b3461026d57608036600319011261026d5760048035906024356001600160401b03811161026d576108f79036908301610896565b9060443560643560018060a01b039182600a54163303610a3e5760028110610a2d5761092d876000526007602052604060002090565b8681019361093c855460ff1690565b61094581610618565b610a1d577f000000000000000000000000000000000000000000000000000000000000000016803b1561026d576040805163365bb9d560e21b815230998101998a5260208a018b905290890184905297600091899182908490829060600103925af1938415610a18578260036109f3937ffc494f392f96fcc692b5dbb5e55fa38ce4c322ca25afb09ea64664fd8665e4119a610507986109ff575b508681550155805460ff19166001179055565b604051948594856116c4565b80610a0c610a1292611669565b80610298565b386109e0565b6116b8565b60405162dc149f60e41b81528890fd5b60405163785b673760e11b81528690fd5b604051633217675b60e21b81528690fd5b3461026d5760008060031936011261089357610a6961160c565b80546001600160a01b03198116825581906001600160a01b03167f8be0079c531659141344cd1fd0a4f28419497f9722a3daafe3b4186f6b6457e08280a380f35b3461026d57602036600319011261026d576020610ad1600435610acc816102c1565b611a9e565b6040519015158152f35b3461026d57600036600319011261026d57600a546040516001600160a01b039091168152602090f35b3461026d5760408060031936011261026d576004906001600160401b0390823582811161026d57610b389036908501610896565b93909260243590811161026d57610b529036908301610896565b600154909491936001600160a01b0392909183168015158181610d20575b50610cf357506003549081159788158099610cdf575b8015610cc7575b610b9e575b610b9c8888611d35565b005b610bc391610bad913691611c30565b602081015191604a604083015192015160601c90565b92909880610cbd575b610c99575050600254908382168015948186159182610c8c575b5050610c5d57505060101b6001600160b01b03199081169283610c0a575b80610b92565b610c4d578290871603610c1e578080610c04565b5163362304d360e11b81526001600160b01b031980871693820193845290911660208301529081906040010390fd5b8151634847901160e01b81528490fd5b8351631715315f60e31b81526001600160a01b0392831687820190815291909216602082015281900360400190fd5b8416141590508138610be6565b8351634dfd1cdd60e11b815280870192835260208301919091529081906040010390fd5b5080821415610bcc565b5060025460101b6001600160b01b0319161515610b8d565b506002546001600160a01b03161515610b86565b825163708986dd60e11b8152338187019081526001600160a01b0390921660208301529081906040010390fd5b905033141538610b70565b3461026d57600036600319011261026d576020600554604051908152f35b3461026d57600036600319011261026d576000546040516001600160a01b039091168152602090f35b3461026d57602036600319011261026d57600435600052600760205260a0604060002060ff815491600181015490600460038201549101549160405194855260208501526040840152610dca60608401838316610638565b60081c1615156080820152f35b3461026d57600036600319011261026d57602069ffffffffffffffffffff60b01b60025460101b16604051908152f35b634e487b7160e01b600052603260045260246000fd5b3461026d57602036600319011261026d5760043560065481101561026d57600660005260008051602061214283398151915201546040516001600160a01b039091168152602090f35b3461026d57602036600319011261026d577fd6ceddf6d2a22f21c7c81675c518004eff43bc5c8a6fc32a0b748e69d58671cd6020600435610ea6816102c1565b610eae61160c565b600a80546001600160a01b0319166001600160a01b03929092169182179055604051908152a1005b3461026d57602036600319011261026d576004356001600160401b03811161026d57610f09610b9c913690600401610896565b90610f1261160c565b611eac565b3461026d57602036600319011261026d57600435610f3361160c565b600354816003557f0dbedcdf21925e053b4c574eae180d7f2883235ab4976ecc0873598a2a999b03600080a3005b3461026d57610f6f3661039d565b91610f84816000526007602052604060002090565b9060049384830193610f97855460ff1690565b610fa081610618565b801561120057610faf81610618565b600281036111ef5780610fc3600392610618565b146111de576001840191610fda8354885490611723565b4210156111cd57610fed61047333611a9e565b6111bc5761102a6110233361100c876000526008602052604060002090565b9060018060a01b0316600052602052604060002090565b5460ff1690565b6111ab57611044610473600387015461046e368587611730565b61119a5790839291600286019261105f610473858486611a39565b611144575b50505050506110916110843361100c846000526008602052604060002090565b805460ff19166001179055565b6110a5816000526009602052604060002090565b6110af81546118c7565b90556110c5816000526009602052604060002090565b5460055490827f443f583469bc5b36b5724587be97cb2d0ed52ea1b8eea3d499e877e129cc4dd2604051806111098633968360209093929193604081019481520152565b0390a3611120826000526009602052604060002090565b54101561112957005b61113f610b9c9361010061ff0019825416179055565b611924565b61117082847ffc5e845be2c15171c338768fef89c94ea5d837482cc700be1016f266b552200196611816565b42905561117c84611af6565b61118d604051928392339184611881565b0390a28084808080611064565b604051630331a49d60e51b81528790fd5b60405163080fc0bd60e11b81528790fd5b6040516390db74b960e01b81528790fd5b60405163234c0ffd60e21b81528790fd5b6040516336ab81e160e11b81528690fd5b6040516353f7b14960e11b81528790fd5b6040516321c4e35760e21b81528790fd5b3461026d57602036600319011261026d5760043561122e816102c1565b61123661160c565b600280546001600160a01b039283166001600160a01b0319821681179092559091167f3321cda85c145617e47418aa14255e9dcbec53a753778e57591703b89a3cad31600080a3005b3461026d57602036600319011261026d5760043561129c816102c1565b6112a461160c565b6001546001600160a01b03918216919082156112f3575b6001600160a01b031981168317600155167f039ad854736757070884dd787ef1a7f58db33546639d1f3efddcf4a33fb8997e600080a3005b7f704da7db165c79c1e33d542c079333bbde970a733032d2f95fec8fb7d770cbf76060604051602081526020808201527f466f727761726465722073657420746f207a65726f202d20494e5345435552456040820152a16112bb565b3461026d57604036600319011261026d576001600160401b0360043581811161026d5761138090369060040161036d565b906024359261138d61160c565b82151580611485575b61147357821161146e57600160401b821161146e576113bb82600654816006556117b3565b80600660005260005b838110611443577f8b77fc0c41e5e6289d444110fa28b136e2bc46cdda4c5e5b80eea22ed8dc3b7461143e867f7a7b5af5606cac99657636707b7a3a267438992c76e16d75810a6bee0d57f18a878761141c84600555565b61142b60405192839283611b89565b0390a16040519081529081906020820190565b0390a1005b6001906020833593611454856102c1565b0192816000805160206121428339815191520155016113c4565b611638565b60405163aabd5a0960e01b8152600490fd5b508315806113965750828411611396565b3461026d57602036600319011261026d57600480356114bf816000526007602052604060002090565b906114cd8383015460ff1690565b6114d681610618565b8015611551576114e581610618565b6002810361154057806114f9600392610618565b1461152f5761150e6001830154845490611723565b421061151e57610b9c9250611924565b60405163e52e798f60e01b81528390fd5b6040516336ab81e160e11b81528390fd5b6040516353f7b14960e11b81528490fd5b6040516321c4e35760e21b81528490fd5b3461026d57602036600319011261026d5760043561157f816102c1565b61158761160c565b6001600160a01b0390811680156115d557600080546001600160a01b03198116831782559092167f8be0079c531659141344cd1fd0a4f28419497f9722a3daafe3b4186f6b6457e08380a380f35b604051631e4fbdf760e01b815260006004820152602490fd5b3461026d57600036600319011261026d576020600354604051908152f35b6000546001600160a01b0316330361162057565b60405163118cdaa760e01b8152336004820152602490fd5b634e487b7160e01b600052604160045260246000fd5b60c081019081106001600160401b0382111761146e57604052565b6001600160401b03811161146e57604052565b604081019081106001600160401b0382111761146e57604052565b90601f801991011681019081106001600160401b0382111761146e57604052565b6040513d6000823e3d90fd5b90826040936080929796959760608552816060860152838501376000828285010152601f80199101168201019460208201520152565b634e487b7160e01b600052601160045260246000fd5b906001820180921161171e57565b6116fa565b9190820180921161171e57565b9092916001600160401b03841161146e578360051b604051926020809461175982850182611697565b809781520191810192831161026d57905b8282106117775750505050565b8135815290830190830161176a565b908160011b918083046002149015171561171e57565b8181106117a7575050565b6000815560010161179c565b8082106117be575050565b6117e0916006600052600080516020612142833981519152918201910161179c565b565b90600160401b811161146e5781549080835581811061180057505050565b6117e0926000526020600020918201910161179c565b906001600160401b03831161146e5761182f83836117e2565b906000526020806000209060005b84811061184b575050505050565b8335838201559281019260010161183d565b81835290916001600160fb1b03831161026d5760209260051b809284830137010190565b9160209161189a9195949560408552604085019161185d565b6001600160a01b03909416910152565b9392916020916118c29160408752604087019161185d565b930152565b600019811461171e5760010190565b90815480825260208092019260005281600020916000905b8282106118fc575050505090565b8354855293840193600193840193909101906118ee565b9060206106b59281815201906118d6565b60048201805460ff19166003179055907f00000000000000000000000000000000000000000000000000000000000000006001600160a01b031690600201813b1561026d5760006040518093633124a62b60e21b82528560048301526040602483015281838161199760448201886118d6565b03925af1908115610a18577f08fa4e1452e81caa286f92a5c26f4f713d231fd5585c56d9920451d8263ae2ed926119da926119df575b5060405191829182611913565b0390a2565b80610a0c6119ec92611669565b386119cd565b9190825103611a3357600091825b8151841015611a2c5760208460051b83010151810180911161171e57611a2690936118c7565b92611a00565b1515925050565b60009150565b90918054808403611a955760005b848110611a58575050505050600190565b81811015611a90578260005280602060002001548160051b85013503611a8657611a81906118c7565b611a47565b5050505050600090565b610e07565b50505050600090565b600090819060068054925b838110611ab7575050505090565b8185526000805160206121428339815191528101546001600160a01b03848116911614611aec57611ae7906118c7565b611aa9565b5050505050600190565b60005b60068054821015611b4e575060008281526008602090815260408083206000805160206121428339815191528501546001600160a01b031684529091529020805460ff19169055611b49906118c7565b611af9565b5050611b7d6004916000611b6c826000526009602052604060002090565b556000526007602052604060002090565b01805461ff0019169055565b90916040602092828482018583525201929160005b828110611bac575050505090565b9091929382806001928735611bc0816102c1565b848060a01b03168152019501910192919092611b9e565b6000526007602052604060002060ff600482015416600481101561062257600203611c0f5760010154600454810180911161171e5790565b50600090565b6001600160401b03811161146e57601f01601f191660200190565b929192611c3c82611c15565b91611c4a6040519384611697565b82948184528183011161026d578281602093846000960137010152565b919060408382031261026d578235926020810135906001600160401b03821161026d57019080601f8301121561026d578160206106b593359101611730565b8151916001600160401b03831161146e57611cc183836117e2565b602080910191600052806000209060005b848110611ce0575050505050565b83518382015592810192600101611cd2565b92919060408401604085528151809152606085019060208093019060005b84828210611d215750505050930152565b835185529384019390920191600101611d10565b611d4191810190611c67565b611d55826000526007602052604060002090565b906004820191611d66835460ff1690565b611d6f81610618565b8015611e2a5780611d81600392610618565b14611e1857611d976104736003830154846119f2565b611e06577fe2c02bd9ed13a4523e9bd53a88191407d3d5631253252ffe56fe560d6214647d9281611dce846002611de19501611ca6565b600142910155600260ff19825416179055565b611dea83611af6565b611df660045442611723565b906119da60405192839283611cf2565b604051630331a49d60e51b8152600490fd5b6040516336ab81e160e11b8152600490fd5b6040516321c4e35760e21b8152600490fd5b908092918237016000815290565b60405190611e578261167c565b600a825260203681840137565b908151811015611a90570160200190565b906020825192015169ffffffffffffffffffff60b01b9081811693600a8110611e9d57505050565b600a0360031b82901b16169150565b60025490919060101b6001600160b01b031916918115611fda5760209060405180611edb816000968795611e3c565b039060025afa15610a1857611f17611f04611f1283516040519283916020830160209181520190565b03601f198101835282611697565b612051565b611f1f611e4a565b90825b600a8110611fa4575050611f38611f6991611e75565b6002805469ffffffffffffffffffff60a01b191660109290921c69ffffffffffffffffffff60a01b16919091179055565b60025460101b6001600160b01b03199081169216907f1e7ddd09d504c82dcfc784a464b167469f5aad967606ec4822d848ef9141dfa59080a3565b80611fc3611fb5611fd59385611e64565b516001600160f81b03191690565b851a611fcf8286611e64565b536118c7565b611f22565b50506002805469ffffffffffffffffffff60a01b191690556000906001600160b01b0319167f1e7ddd09d504c82dcfc784a464b167469f5aad967606ec4822d848ef9141dfa58280a3565b604051906120328261167c565b601082526f181899199a1a9b1b9c1cb0b131b232b360811b6020830152565b9061205c8251611786565b61206581611c15565b906120736040519283611697565b808252612082601f1991611c15565b01366020830137600092835b815181101561213a57612135906120dd611fb56120a9612025565b6120d76120d16120cb6120bf611fb5888b611e64565b60041c600f60f81b1690565b60f81c90565b60ff1690565b90611e64565b6120f36120e983611786565b91881a9186611e64565b53612121611fb5612102612025565b6120d76120d1600f60f81b61211a611fb5888b611e64565b1660f81c90565b611fcf6120e961213084611786565b611710565b61208e565b509092505056fef652222313e28459528d920b65115c16c04f3efc82aaedc97be59f3f377c0d3fa2646970667358221220c8522fcc33e08103408bf32fcbf7f0b3d814ba309524efe4cfc23e530a4983d264736f6c63430008140033",
  "devdoc": {
    "details": "Architecture:  1. `initializeMarket()` prepares a CTF condition and emits `MarketInitialized` (triggers CRE).  2. CRE detects the event, calls Gemini AI, then submits `onReport(metadata, report)`.  3. The adapter starts a `disputeWindow` timer and emits `ResolutionProposed`.  4. After the window, anyone calls `finalizeResolution()` to call `ctf.reportPayouts()`.  5. Before the window elapses:     - The contract owner can `adminOverride()` to replace the proposed payouts.     - The multisig (if set) can call `multisigOverride()` which requires M-of-N signers. Key invariants:  - AiCTFAdapter is the sole oracle address in every `prepareCondition()` call.  - No market string metadata is stored on-chain — only the IPFS CID via events.  - The dispute window is sovereign: no finalization until it elapses.",
    "errors": {
      "OwnableInvalidOwner(address)": [
        {
          "details": "The owner is not a valid owner account. (eg. `address(0)`)"
        }
      ],
      "OwnableUnauthorizedAccount(address)": [
        {
          "details": "The caller account is not authorized to perform an operation."
        }
      ]
    },
    "kind": "dev",
    "methods": {
      "adminOverride(bytes32,uint256[])": {
        "details": "NOT available after the dispute window has elapsed.",
        "params": {
          "payouts": "Corrected payout array.",
          "questionId": "The market to override."
        }
      },
      "constructor": {
        "params": {
          "_ctf": "Address of the deployed ConditionalTokens contract.",
          "_disputeWindow": "Seconds after a proposal before it can be finalized.",
          "_forwarderAddress": "Chainlink CRE forwarder (only address allowed to call onReport).",
          "_multisigSigners": "Initial list of multisig signer addresses.",
          "_multisigThreshold": "Minimum approvals required (must be ≤ _multisigSigners.length)."
        }
      },
      "finalizeResolution(bytes32)": {
        "details": "Permissionless — anyone can call once the window is over.",
        "params": {
          "questionId": "The market to finalize."
        }
      },
      "initializeMarket(bytes32,string,uint256,uint256)": {
        "details": "Only callable by the MarketRegistry contract.      Emits MarketInitialized — this event is the CRE log trigger.",
        "params": {
          "ipfsCid": "IPFS CID of the JSON metadata — NOT stored on-chain, emitted only.",
          "outcomeCount": "Number of outcome slots (2 for binary markets).",
          "questionId": "keccak256(abi.encodePacked(ipfsCid))",
          "resolutionTime": "Unix timestamp when CRE should attempt resolution."
        }
      },
      "multisigOverride(bytes32,uint256[])": {
        "details": "Once `multisigThreshold` approvals are collected, the resolution is finalized      immediately — bypassing the remaining dispute window.      Only available while the dispute window is still active.",
        "params": {
          "payouts": "The new payout array all signers are approving.                    All signers must supply identical payouts; any mismatch resets approvals.",
          "questionId": "The market question ID."
        }
      },
      "owner()": {
        "details": "Returns the address of the current owner."
      },
      "renounceOwnership()": {
        "details": "Leaves the contract without owner. It will not be possible to call `onlyOwner` functions. Can only be called by the current owner. NOTE: Renouncing ownership will leave the contract without an owner, thereby disabling any functionality that is only available to the owner."
      },
      "supportsInterface(bytes4)": {
        "details": "Returns true if this contract implements the interface defined by `interfaceId`. See the corresponding https://eips.ethereum.org/EIPS/eip-165#how-interfaces-are-identified[EIP section] to learn more about how these ids are created. This function call must use less than 30 000 gas."
      },
      "transferOwnership(address)": {
        "details": "Transfers ownership of the contract to a new account (`newOwner`). Can only be called by the current owner."
      }
    },
    "title": "AiCTFAdapter",
    "version": 1
  },
  "userdoc": {
    "kind": "user",
    "methods": {
      "adminOverride(bytes32,uint256[])": {
        "notice": "Allows the contract owner to replace a pending CRE proposal during the dispute window."
      },
      "ctf()": {
        "notice": "The Gnosis Conditional Token Framework contract"
      },
      "disputeWindow()": {
        "notice": "Duration of the dispute window after a resolution is proposed"
      },
      "finalizeResolution(bytes32)": {
        "notice": "Finalizes a proposed resolution after the dispute window elapses."
      },
      "initializeMarket(bytes32,string,uint256,uint256)": {
        "notice": "Registers a new prediction market with the CTF and Chainlink CRE."
      },
      "multisigApprovalCount(bytes32)": {
        "notice": "questionId → current multisig approval count for a proposed override"
      },
      "multisigApprovals(bytes32,address)": {
        "notice": "questionId → signer → has approved the pending proposal override"
      },
      "multisigOverride(bytes32,uint256[])": {
        "notice": "A multisig signer approves the current pending proposal override."
      },
      "multisigSigners(uint256)": {
        "notice": "List of authorised multisig signers"
      },
      "multisigThreshold()": {
        "notice": "Minimum number of multisig signers required to approve an override"
      },
      "questions(bytes32)": {
        "notice": "questionId → MarketQuestion"
      },
      "registry()": {
        "notice": "Address of the MarketRegistry (only it may call initializeMarket)"
      },
      "setRegistry(address)": {
        "notice": "Only the deployer (owner) can set the registry address."
      }
    },
    "notice": "Oracle adapter that resolves Conditional Token Framework markets via Chainlink CRE + Gemini AI.",
    "version": 1
  },
  "storageLayout": {
    "storage": [
      {
        "astId": 8,
        "contract": "contracts/AiCTFAdapter.sol:AiCTFAdapter",
        "label": "_owner",
        "offset": 0,
        "slot": "0",
        "type": "t_address"
      },
      {
        "astId": 9368,
        "contract": "contracts/AiCTFAdapter.sol:AiCTFAdapter",
        "label": "s_forwarderAddress",
        "offset": 0,
        "slot": "1",
        "type": "t_address"
      },
      {
        "astId": 9370,
        "contract": "contracts/AiCTFAdapter.sol:AiCTFAdapter",
        "label": "s_expectedAuthor",
        "offset": 0,
        "slot": "2",
        "type": "t_address"
      },
      {
        "astId": 9372,
        "contract": "contracts/AiCTFAdapter.sol:AiCTFAdapter",
        "label": "s_expectedWorkflowName",
        "offset": 20,
        "slot": "2",
        "type": "t_bytes10"
      },
      {
        "astId": 9374,
        "contract": "contracts/AiCTFAdapter.sol:AiCTFAdapter",
        "label": "s_expectedWorkflowId",
        "offset": 0,
        "slot": "3",
        "type": "t_bytes32"
      },
      {
        "astId": 3657,
        "contract": "contracts/AiCTFAdapter.sol:AiCTFAdapter",
        "label": "disputeWindow",
        "offset": 0,
        "slot": "4",
        "type": "t_uint256"
      },
      {
        "astId": 3660,
        "contract": "contracts/AiCTFAdapter.sol:AiCTFAdapter",
        "label": "multisigThreshold",
        "offset": 0,
        "slot": "5",
        "type": "t_uint256"
      },
      {
        "astId": 3664,
        "contract": "contracts/AiCTFAdapter.sol:AiCTFAdapter",
        "label": "multisigSigners",
        "offset": 0,
        "slot": "6",
        "type": "t_array(t_address)dyn_storage"
      },
      {
        "astId": 3670,
        "contract": "contracts/AiCTFAdapter.sol:AiCTFAdapter",
        "label": "questions",
        "offset": 0,
        "slot": "7",
        "type": "t_mapping(t_bytes32,t_struct(MarketQuestion)3650_storage)"
      },
      {
        "astId": 3677,
        "contract": "contracts/AiCTFAdapter.sol:AiCTFAdapter",
        "label": "multisigApprovals",
        "offset": 0,
        "slot": "8",
        "type": "t_mapping(t_bytes32,t_mapping(t_address,t_bool))"
      },
      {
        "astId": 3682,
        "contract": "contracts/AiCTFAdapter.sol:AiCTFAdapter",
        "label": "multisigApprovalCount",
        "offset": 0,
        "slot": "9",
        "type": "t_mapping(t_bytes32,t_uint256)"
      },
      {
        "astId": 3685,
        "contract": "contracts/AiCTFAdapter.sol:AiCTFAdapter",
        "label": "registry",
        "offset": 0,
        "slot": "10",
        "type": "t_address"
      }
    ],
    "types": {
      "t_address": {
        "encoding": "inplace",
        "label": "address",
        "numberOfBytes": "20"
      },
      "t_array(t_address)dyn_storage": {
        "base": "t_address",
        "encoding": "dynamic_array",
        "label": "address[]",
        "numberOfBytes": "32"
      },
      "t_array(t_uint256)dyn_storage": {
        "base": "t_uint256",
        "encoding": "dynamic_array",
        "label": "uint256[]",
        "numberOfBytes": "32"
      },
      "t_bool": {
        "encoding": "inplace",
        "label": "bool",
        "numberOfBytes": "1"
      },
      "t_bytes10": {
        "encoding": "inplace",
        "label": "bytes10",
        "numberOfBytes": "10"
      },
      "t_bytes32": {
        "encoding": "inplace",
        "label": "bytes32",
        "numberOfBytes": "32"
      },
      "t_enum(MarketStatus)3635": {
        "encoding": "inplace",
        "label": "enum AiCTFAdapter.MarketStatus",
        "numberOfBytes": "1"
      },
      "t_mapping(t_address,t_bool)": {
        "encoding": "mapping",
        "key": "t_address",
        "label": "mapping(address => bool)",
        "numberOfBytes": "32",
        "value": "t_bool"
      },
      "t_mapping(t_bytes32,t_mapping(t_address,t_bool))": {
        "encoding": "mapping",
        "key": "t_bytes32",
        "label": "mapping(bytes32 => mapping(address => bool))",
        "numberOfBytes": "32",
        "value": "t_mapping(t_address,t_bool)"
      },
      "t_mapping(t_bytes32,t_struct(MarketQuestion)3650_storage)": {
        "encoding": "mapping",
        "key": "t_bytes32",
        "label": "mapping(bytes32 => struct AiCTFAdapter.MarketQuestion)",
        "numberOfBytes": "32",
        "value": "t_struct(MarketQuestion)3650_storage"
      },
      "t_mapping(t_bytes32,t_uint256)": {
        "encoding": "mapping",
        "key": "t_bytes32",
        "label": "mapping(bytes32 => uint256)",
        "numberOfBytes": "32",
        "value": "t_uint256"
      },
      "t_struct(MarketQuestion)3650_storage": {
        "encoding": "inplace",
        "label": "struct AiCTFAdapter.MarketQuestion",
        "members": [
          {
            "astId": 3637,
            "contract": "contracts/AiCTFAdapter.sol:AiCTFAdapter",
            "label": "resolutionTime",
            "offset": 0,
            "slot": "0",
            "type": "t_uint256"
          },
          {
            "astId": 3639,
            "contract": "contracts/AiCTFAdapter.sol:AiCTFAdapter",
            "label": "proposedAt",
            "offset": 0,
            "slot": "1",
            "type": "t_uint256"
          },
          {
            "astId": 3642,
            "contract": "contracts/AiCTFAdapter.sol:AiCTFAdapter",
            "label": "proposedPayouts",
            "offset": 0,
            "slot": "2",
            "type": "t_array(t_uint256)dyn_storage"
          },
          {
            "astId": 3644,
            "contract": "contracts/AiCTFAdapter.sol:AiCTFAdapter",
            "label": "outcomeCount",
            "offset": 0,
            "slot": "3",
            "type": "t_uint256"
          },
          {
            "astId": 3647,
            "contract": "contracts/AiCTFAdapter.sol:AiCTFAdapter",
            "label": "status",
            "offset": 0,
            "slot": "4",
            "type": "t_enum(MarketStatus)3635"
          },
          {
            "astId": 3649,
            "contract": "contracts/AiCTFAdapter.sol:AiCTFAdapter",
            "label": "multisigApproved",
            "offset": 1,
            "slot": "4",
            "type": "t_bool"
          }
        ],
        "numberOfBytes": "160"
      },
      "t_uint256": {
        "encoding": "inplace",
        "label": "uint256",
        "numberOfBytes": "32"
      }
    }
  }
}