{
  "address": "0x9850a00eBb9dA68Bc138065bd02Bcbf4580BB7e5",
  "abi": [
    {
      "inputs": [
        {
          "internalType": "address",
          "name": "_ctf",
          "type": "address"
        },
        {
          "internalType": "address",
          "name": "_collateral",
          "type": "address"
        }
      ],
      "stateMutability": "nonpayable",
      "type": "constructor"
    },
    {
      "inputs": [],
      "name": "AmountZero",
      "type": "error"
    },
    {
      "inputs": [
        {
          "internalType": "uint256",
          "name": "requested",
          "type": "uint256"
        },
        {
          "internalType": "uint256",
          "name": "available",
          "type": "uint256"
        }
      ],
      "name": "InsufficientBalance",
      "type": "error"
    },
    {
      "inputs": [],
      "name": "InsufficientLiquidity",
      "type": "error"
    },
    {
      "inputs": [
        {
          "internalType": "uint256",
          "name": "outcome",
          "type": "uint256"
        },
        {
          "internalType": "uint256",
          "name": "requested",
          "type": "uint256"
        }
      ],
      "name": "InsufficientReserve",
      "type": "error"
    },
    {
      "inputs": [],
      "name": "InvalidPercentage",
      "type": "error"
    },
    {
      "inputs": [],
      "name": "InvalidProbability",
      "type": "error"
    },
    {
      "inputs": [],
      "name": "NotLPOwner",
      "type": "error"
    },
    {
      "inputs": [],
      "name": "OnlyFromCTF",
      "type": "error"
    },
    {
      "inputs": [
        {
          "internalType": "address",
          "name": "owner",
          "type": "address"
        }
      ],
      "name": "OwnableInvalidOwner",
      "type": "error"
    },
    {
      "inputs": [
        {
          "internalType": "address",
          "name": "account",
          "type": "address"
        }
      ],
      "name": "OwnableUnauthorizedAccount",
      "type": "error"
    },
    {
      "inputs": [
        {
          "internalType": "bytes32",
          "name": "conditionId",
          "type": "bytes32"
        }
      ],
      "name": "PoolAlreadyExists",
      "type": "error"
    },
    {
      "inputs": [
        {
          "internalType": "bytes32",
          "name": "conditionId",
          "type": "bytes32"
        }
      ],
      "name": "PoolNotFound",
      "type": "error"
    },
    {
      "inputs": [],
      "name": "PoolNotResolved",
      "type": "error"
    },
    {
      "inputs": [],
      "name": "PoolResolved_",
      "type": "error"
    },
    {
      "inputs": [],
      "name": "ReentrancyGuardReentrantCall",
      "type": "error"
    },
    {
      "inputs": [],
      "name": "TransferFailed",
      "type": "error"
    },
    {
      "inputs": [],
      "name": "WrongUsdcAmount",
      "type": "error"
    },
    {
      "anonymous": false,
      "inputs": [
        {
          "indexed": true,
          "internalType": "bytes32",
          "name": "conditionId",
          "type": "bytes32"
        },
        {
          "indexed": true,
          "internalType": "address",
          "name": "provider",
          "type": "address"
        },
        {
          "indexed": false,
          "internalType": "uint256",
          "name": "usdcAmount",
          "type": "uint256"
        },
        {
          "indexed": false,
          "internalType": "uint256",
          "name": "tokenAmount",
          "type": "uint256"
        }
      ],
      "name": "LiquidityAdded",
      "type": "event"
    },
    {
      "anonymous": false,
      "inputs": [
        {
          "indexed": true,
          "internalType": "bytes32",
          "name": "conditionId",
          "type": "bytes32"
        },
        {
          "indexed": true,
          "internalType": "address",
          "name": "provider",
          "type": "address"
        },
        {
          "indexed": false,
          "internalType": "uint256",
          "name": "usdcAmount",
          "type": "uint256"
        },
        {
          "indexed": false,
          "internalType": "uint256",
          "name": "tokenAmount",
          "type": "uint256"
        }
      ],
      "name": "LiquidityRemoved",
      "type": "event"
    },
    {
      "anonymous": false,
      "inputs": [
        {
          "indexed": true,
          "internalType": "address",
          "name": "previousOwner",
          "type": "address"
        },
        {
          "indexed": true,
          "internalType": "address",
          "name": "newOwner",
          "type": "address"
        }
      ],
      "name": "OwnershipTransferred",
      "type": "event"
    },
    {
      "anonymous": false,
      "inputs": [
        {
          "indexed": true,
          "internalType": "bytes32",
          "name": "conditionId",
          "type": "bytes32"
        },
        {
          "indexed": false,
          "internalType": "uint256",
          "name": "yesTokenId",
          "type": "uint256"
        },
        {
          "indexed": false,
          "internalType": "uint256",
          "name": "noTokenId",
          "type": "uint256"
        },
        {
          "indexed": false,
          "internalType": "uint256",
          "name": "usdcCollateral",
          "type": "uint256"
        }
      ],
      "name": "PoolCreated",
      "type": "event"
    },
    {
      "anonymous": false,
      "inputs": [
        {
          "indexed": true,
          "internalType": "bytes32",
          "name": "conditionId",
          "type": "bytes32"
        }
      ],
      "name": "PoolResolved",
      "type": "event"
    },
    {
      "anonymous": false,
      "inputs": [
        {
          "indexed": true,
          "internalType": "bytes32",
          "name": "conditionId",
          "type": "bytes32"
        },
        {
          "indexed": true,
          "internalType": "address",
          "name": "buyer",
          "type": "address"
        },
        {
          "indexed": false,
          "internalType": "uint256",
          "name": "outcome",
          "type": "uint256"
        },
        {
          "indexed": false,
          "internalType": "uint256",
          "name": "tokenAmount",
          "type": "uint256"
        },
        {
          "indexed": false,
          "internalType": "uint256",
          "name": "usdcPaid",
          "type": "uint256"
        }
      ],
      "name": "TokensBought",
      "type": "event"
    },
    {
      "anonymous": false,
      "inputs": [
        {
          "indexed": true,
          "internalType": "bytes32",
          "name": "conditionId",
          "type": "bytes32"
        },
        {
          "indexed": true,
          "internalType": "address",
          "name": "seller",
          "type": "address"
        },
        {
          "indexed": false,
          "internalType": "uint256",
          "name": "outcome",
          "type": "uint256"
        },
        {
          "indexed": false,
          "internalType": "uint256",
          "name": "tokenAmount",
          "type": "uint256"
        },
        {
          "indexed": false,
          "internalType": "uint256",
          "name": "usdcReceived",
          "type": "uint256"
        }
      ],
      "name": "TokensSold",
      "type": "event"
    },
    {
      "inputs": [
        {
          "internalType": "bytes32",
          "name": "conditionId",
          "type": "bytes32"
        },
        {
          "internalType": "uint256",
          "name": "usdcAmount",
          "type": "uint256"
        }
      ],
      "name": "addLiquidity",
      "outputs": [],
      "stateMutability": "nonpayable",
      "type": "function"
    },
    {
      "inputs": [
        {
          "internalType": "uint256",
          "name": "",
          "type": "uint256"
        }
      ],
      "name": "allPools",
      "outputs": [
        {
          "internalType": "bytes32",
          "name": "",
          "type": "bytes32"
        }
      ],
      "stateMutability": "view",
      "type": "function"
    },
    {
      "inputs": [
        {
          "internalType": "bytes32",
          "name": "conditionId",
          "type": "bytes32"
        },
        {
          "internalType": "uint256",
          "name": "outcome",
          "type": "uint256"
        },
        {
          "internalType": "uint256",
          "name": "tokenAmount",
          "type": "uint256"
        },
        {
          "internalType": "uint256",
          "name": "maxUsdcIn",
          "type": "uint256"
        }
      ],
      "name": "buyTokens",
      "outputs": [],
      "stateMutability": "nonpayable",
      "type": "function"
    },
    {
      "inputs": [],
      "name": "collateral",
      "outputs": [
        {
          "internalType": "contract IERC20",
          "name": "",
          "type": "address"
        }
      ],
      "stateMutability": "view",
      "type": "function"
    },
    {
      "inputs": [
        {
          "internalType": "bytes32",
          "name": "conditionId",
          "type": "bytes32"
        },
        {
          "internalType": "uint256",
          "name": "yesTokenId",
          "type": "uint256"
        },
        {
          "internalType": "uint256",
          "name": "noTokenId",
          "type": "uint256"
        },
        {
          "internalType": "uint256",
          "name": "usdcAmount",
          "type": "uint256"
        },
        {
          "internalType": "uint8",
          "name": "initialYesProbability",
          "type": "uint8"
        },
        {
          "internalType": "uint8",
          "name": "percentageToLock",
          "type": "uint8"
        }
      ],
      "name": "createPool",
      "outputs": [],
      "stateMutability": "nonpayable",
      "type": "function"
    },
    {
      "inputs": [],
      "name": "ctf",
      "outputs": [
        {
          "internalType": "contract ConditionalTokens",
          "name": "",
          "type": "address"
        }
      ],
      "stateMutability": "view",
      "type": "function"
    },
    {
      "inputs": [],
      "name": "getAllPools",
      "outputs": [
        {
          "internalType": "bytes32[]",
          "name": "",
          "type": "bytes32[]"
        }
      ],
      "stateMutability": "view",
      "type": "function"
    },
    {
      "inputs": [
        {
          "internalType": "bytes32",
          "name": "conditionId",
          "type": "bytes32"
        },
        {
          "internalType": "uint256",
          "name": "outcome",
          "type": "uint256"
        },
        {
          "internalType": "uint256",
          "name": "tokenAmount",
          "type": "uint256"
        }
      ],
      "name": "getBuyPrice",
      "outputs": [
        {
          "internalType": "uint256",
          "name": "",
          "type": "uint256"
        }
      ],
      "stateMutability": "view",
      "type": "function"
    },
    {
      "inputs": [
        {
          "internalType": "bytes32",
          "name": "conditionId",
          "type": "bytes32"
        }
      ],
      "name": "getPool",
      "outputs": [
        {
          "components": [
            {
              "internalType": "uint256",
              "name": "yesTokenId",
              "type": "uint256"
            },
            {
              "internalType": "uint256",
              "name": "noTokenId",
              "type": "uint256"
            },
            {
              "internalType": "uint256",
              "name": "yesReserve",
              "type": "uint256"
            },
            {
              "internalType": "uint256",
              "name": "noReserve",
              "type": "uint256"
            },
            {
              "internalType": "uint256",
              "name": "usdcCollateral",
              "type": "uint256"
            },
            {
              "internalType": "uint256",
              "name": "lpTradingRevenue",
              "type": "uint256"
            },
            {
              "internalType": "uint256",
              "name": "initialYesProbability",
              "type": "uint256"
            },
            {
              "internalType": "uint256",
              "name": "percentageLocked",
              "type": "uint256"
            },
            {
              "internalType": "address",
              "name": "lpOwner",
              "type": "address"
            },
            {
              "internalType": "bool",
              "name": "resolved",
              "type": "bool"
            },
            {
              "internalType": "bool",
              "name": "exists",
              "type": "bool"
            }
          ],
          "internalType": "struct PredictionMarketAMM.Pool",
          "name": "",
          "type": "tuple"
        }
      ],
      "stateMutability": "view",
      "type": "function"
    },
    {
      "inputs": [
        {
          "internalType": "bytes32",
          "name": "conditionId",
          "type": "bytes32"
        },
        {
          "internalType": "uint256",
          "name": "outcome",
          "type": "uint256"
        },
        {
          "internalType": "uint256",
          "name": "tokenAmount",
          "type": "uint256"
        }
      ],
      "name": "getSellPrice",
      "outputs": [
        {
          "internalType": "uint256",
          "name": "",
          "type": "uint256"
        }
      ],
      "stateMutability": "view",
      "type": "function"
    },
    {
      "inputs": [
        {
          "internalType": "bytes32",
          "name": "conditionId",
          "type": "bytes32"
        }
      ],
      "name": "getYesProbability",
      "outputs": [
        {
          "internalType": "uint256",
          "name": "",
          "type": "uint256"
        }
      ],
      "stateMutability": "view",
      "type": "function"
    },
    {
      "inputs": [
        {
          "internalType": "bytes32",
          "name": "conditionId",
          "type": "bytes32"
        }
      ],
      "name": "markResolved",
      "outputs": [],
      "stateMutability": "nonpayable",
      "type": "function"
    },
    {
      "inputs": [
        {
          "internalType": "address",
          "name": "",
          "type": "address"
        },
        {
          "internalType": "address",
          "name": "",
          "type": "address"
        },
        {
          "internalType": "uint256[]",
          "name": "",
          "type": "uint256[]"
        },
        {
          "internalType": "uint256[]",
          "name": "",
          "type": "uint256[]"
        },
        {
          "internalType": "bytes",
          "name": "",
          "type": "bytes"
        }
      ],
      "name": "onERC1155BatchReceived",
      "outputs": [
        {
          "internalType": "bytes4",
          "name": "",
          "type": "bytes4"
        }
      ],
      "stateMutability": "pure",
      "type": "function"
    },
    {
      "inputs": [
        {
          "internalType": "address",
          "name": "",
          "type": "address"
        },
        {
          "internalType": "address",
          "name": "",
          "type": "address"
        },
        {
          "internalType": "uint256",
          "name": "",
          "type": "uint256"
        },
        {
          "internalType": "uint256",
          "name": "",
          "type": "uint256"
        },
        {
          "internalType": "bytes",
          "name": "",
          "type": "bytes"
        }
      ],
      "name": "onERC1155Received",
      "outputs": [
        {
          "internalType": "bytes4",
          "name": "",
          "type": "bytes4"
        }
      ],
      "stateMutability": "pure",
      "type": "function"
    },
    {
      "inputs": [],
      "name": "owner",
      "outputs": [
        {
          "internalType": "address",
          "name": "",
          "type": "address"
        }
      ],
      "stateMutability": "view",
      "type": "function"
    },
    {
      "inputs": [
        {
          "internalType": "bytes32",
          "name": "",
          "type": "bytes32"
        }
      ],
      "name": "pools",
      "outputs": [
        {
          "internalType": "uint256",
          "name": "yesTokenId",
          "type": "uint256"
        },
        {
          "internalType": "uint256",
          "name": "noTokenId",
          "type": "uint256"
        },
        {
          "internalType": "uint256",
          "name": "yesReserve",
          "type": "uint256"
        },
        {
          "internalType": "uint256",
          "name": "noReserve",
          "type": "uint256"
        },
        {
          "internalType": "uint256",
          "name": "usdcCollateral",
          "type": "uint256"
        },
        {
          "internalType": "uint256",
          "name": "lpTradingRevenue",
          "type": "uint256"
        },
        {
          "internalType": "uint256",
          "name": "initialYesProbability",
          "type": "uint256"
        },
        {
          "internalType": "uint256",
          "name": "percentageLocked",
          "type": "uint256"
        },
        {
          "internalType": "address",
          "name": "lpOwner",
          "type": "address"
        },
        {
          "internalType": "bool",
          "name": "resolved",
          "type": "bool"
        },
        {
          "internalType": "bool",
          "name": "exists",
          "type": "bool"
        }
      ],
      "stateMutability": "view",
      "type": "function"
    },
    {
      "inputs": [
        {
          "internalType": "bytes32",
          "name": "conditionId",
          "type": "bytes32"
        },
        {
          "internalType": "uint256",
          "name": "usdcAmount",
          "type": "uint256"
        }
      ],
      "name": "removeLiquidity",
      "outputs": [],
      "stateMutability": "nonpayable",
      "type": "function"
    },
    {
      "inputs": [],
      "name": "renounceOwnership",
      "outputs": [],
      "stateMutability": "nonpayable",
      "type": "function"
    },
    {
      "inputs": [
        {
          "internalType": "bytes32",
          "name": "conditionId",
          "type": "bytes32"
        },
        {
          "internalType": "uint256",
          "name": "outcome",
          "type": "uint256"
        },
        {
          "internalType": "uint256",
          "name": "tokenAmount",
          "type": "uint256"
        },
        {
          "internalType": "uint256",
          "name": "minUsdcOut",
          "type": "uint256"
        }
      ],
      "name": "sellTokens",
      "outputs": [],
      "stateMutability": "nonpayable",
      "type": "function"
    },
    {
      "inputs": [
        {
          "internalType": "bytes4",
          "name": "interfaceId",
          "type": "bytes4"
        }
      ],
      "name": "supportsInterface",
      "outputs": [
        {
          "internalType": "bool",
          "name": "",
          "type": "bool"
        }
      ],
      "stateMutability": "pure",
      "type": "function"
    },
    {
      "inputs": [
        {
          "internalType": "address",
          "name": "newOwner",
          "type": "address"
        }
      ],
      "name": "transferOwnership",
      "outputs": [],
      "stateMutability": "nonpayable",
      "type": "function"
    },
    {
      "inputs": [
        {
          "internalType": "bytes32",
          "name": "conditionId",
          "type": "bytes32"
        }
      ],
      "name": "withdrawAfterResolution",
      "outputs": [],
      "stateMutability": "nonpayable",
      "type": "function"
    }
  ],
  "transactionHash": "0x199a83cd2b604234d4ace1ccb7d961e95d5660a392edc5a1a2ba73ecdd5e984a",
  "args": [
    "0x56c1CC0e0B44a59F0e36eA8Ec776cB5B1F4132f5",
    "0xca68372498bB1A6572779FbDeaD31F95A76146a7"
  ],
  "numDeployments": 2,
  "solcInputHash": "0eacdf88b0390cc697a6b24e4601d29e",
  "bytecode": "0x60c0346200017357601f6200224038819003918201601f19168301916001600160401b038311848410176200017857808492604094855283398101031262000173576200005a602062000052836200018e565b92016200018e565b9033156200015a5760008054336001600160a01b0319821681178355604051946001600160a01b0394909385939192918416907f8be0079c531659141344cd1fd0a4f28419497f9722a3daafe3b4186f6b6457e09080a360018055166080521660a05261209c9081620001a4823960805181818161081f01528181610b4201528181610bbd01528181610c1901528181610cdc01528181610d3601528181610d7201528181610dcd0152818161115a0152818161148f015281816116440152818161178f0152611d50015260a0518181816103de01528181610565015281816107b001528181610ae1015281816112040152818161144001526118140152f35b604051631e4fbdf760e01b815260006004820152602490fd5b600080fd5b634e487b7160e01b600052604160045260246000fd5b51906001600160a01b0382168203620001735756fe6080604052600436101561001257600080fd5b6000803560e01c806301bd4fa4146116c857806301ffc9a71461168d5780632111c08c1461167357806322a9339f1461162e5780633b57e2bc146113a957806341d1de971461136f578063715018a6146113155780638da5cb5b146112ee5780639e3a1497146110c2578063a905505314610a44578063b5217bb41461099c578063baa066ee146106fa578063bc197c8114610669578063c02a74cd1461062d578063c6a2618314610613578063c6ca37fa146104c1578063d88ff1f41461040d578063d8dfeb45146103c8578063ebd24b961461036d578063f23a6e6114610311578063f2fde38b146102815763f6c009271461010f57600080fd5b3461027e57602036600319011261027e5760408161016092610140835161013581611b6a565b82815282602082015282858201528260608201528260808201528260a08201528260c08201528260e082015282610100820152826101208201520152600435815260026020522061014060405161018b81611b6a565b60ff600884549485845260018101546020850152600281015460408501526003810154606085015260048101546080850152600581015460a0850152600681015460c0850152600781015460e0850152015460018060a01b038116610100840152818160a01c16151561012084015260a81c161515828201526040519283526020810151602084015260408101516040840152606081015160608401526080810151608084015260a081015160a084015260c081015160c084015260e081015160e084015260018060a01b0361010082015116610100840152610120810151151561012084015201511515610140820152f35b80fd5b503461027e57602036600319011261027e5761029b611a89565b6102a3611b14565b6001600160a01b039081169081156102f857600054826bffffffffffffffffffffffff60a01b821617600055167f8be0079c531659141344cd1fd0a4f28419497f9722a3daafe3b4186f6b6457e0600080a380f35b604051631e4fbdf760e01b815260048101849052602490fd5b503461027e5760a036600319011261027e5761032b611a89565b50610334611a9f565b5060843567ffffffffffffffff811161036957610355903690600401611ae6565b505060405163f23a6e6160e01b8152602090f35b5080fd5b503461027e57602036600319011261027e5760ff6008604060043593848152600260205220015460a81c16156103b0576103a8602091611e98565b604051908152f35b6024906040519063299f9ab360e11b82526004820152fd5b503461027e578060031936011261027e576040517f00000000000000000000000000000000000000000000000000000000000000006001600160a01b03168152602090f35b503461027e578060031936011261027e5760405180916003549081835260208093018092600383527fc2575a0e9e593c00f959f8c92f12db2869c3395a3b0502d05e2516446f71f85b90835b8181106104ad575050508461046f910385611ba3565b60405193838594850191818652518092526040850193925b82811061049657505050500390f35b835185528695509381019392810192600101610487565b825484529286019260019283019201610459565b503461027e57602080600319360112610369576004356104df611ce3565b8083526002825260ff600860408520015460a81c16156103b0578252600281526040822060088101546001600160a01b039081811633036106015760a01c60ff16156105ef57600584920182815491558061053d575b826001805580f35b60405163a9059cbb60e01b8152336004820152602481019190915291839183916044918391907f0000000000000000000000000000000000000000000000000000000000000000165af19182156105e45783926105b7575b5050156105a55738818180610535565b6040516312171d8360e31b8152600490fd5b6105d69250803d106105dd575b6105ce8183611ba3565b810190611bc5565b3880610595565b503d6105c4565b6040513d85823e3d90fd5b6040516303a29a6d60e51b8152600490fd5b60405163049e02dd60e31b8152600490fd5b503461027e5760206103a861062736611a04565b91611e6e565b503461027e57602036600319011261027e57600435808252600260205260ff600860408420015460a81c16156103b05761066690611d13565b80f35b503461027e5760a036600319011261027e57610683611a89565b5061068c611a9f565b5067ffffffffffffffff6044358181116106f6576106ae903690600401611ab5565b50506064358181116106f6576106c8903690600401611ab5565b5050608435908111610369576106e2903690600401611ae6565b505060405163bc197c8160e01b8152602090f35b8280fd5b503461027e5761070936611a6b565b610714939293611ce3565b82855260206002815260ff600860408820015460a81c1615610983578386526002815260ff600860408820015460a01c1661097157821561095f57838652600281526040862090610766848787611e41565b92831161094d576107778683612019565b50841161092f576040516323b872dd60e01b8152336004820152306024820152604481018490526001600160a01b03919081816064818c7f000000000000000000000000000000000000000000000000000000000000000088165af1918215610924578992610907575b5050156105a5578160058893016107f9858254611d06565b9055861580156108f15760028201610812878254611ca2565b90555b156108e75754905b7f000000000000000000000000000000000000000000000000000000000000000016803b156106f65784839161086c9383604051809681958294637921219560e11b8452333060048601611caf565b03925af180156108dc576108c4575b50506040805194855260208501929092529083015233917f11f0346aa32c203156c9ccb9e50e8414bc3b658fef0a1da39548ff22dfe2cbc29080606081015b0390a36001805580f35b6108cd90611b40565b6108d857843861087b565b8480fd5b6040513d84823e3d90fd5b600101549061081d565b60038201610900878254611ca2565b9055610815565b61091d9250803d106105dd576105ce8183611ba3565b38806107e1565b6040513d8b823e3d90fd5b604486856040519163315276c960e01b835260048301526024820152fd5b604051631a26ff6760e01b8152600490fd5b6040516365e52d5160e11b8152600490fd5b60405163a118386760e01b8152600490fd5b60405163299f9ab360e11b815260048101859052602490fd5b503461027e57602036600319011261027e57604061016091600435815260026020522060ff8154916001810154906002810154600382015460048301546005840154916006850154936008600787015496015496604051998a5260208a015260408901526060880152608087015260a086015260c085015260e084015260018060a01b038116610100840152818160a01c16151561012084015260a81c161515610140820152f35b503461027e5760c036600319011261027e5760843560ff811681036110bd5760a4359060ff821682036110bd57610a79611ce3565b6004358352600260205260ff600860408520015460a81c166110a4576064351561095f5760ff8116158015611096575b6110845760ff8216158015611076575b611064576040516323b872dd60e01b81523360048201523060248201526064803560448301527f00000000000000000000000000000000000000000000000000000000000000006001600160a01b03811692909160209082908189875af190811561105957869161103a575b50156105a55760405163095ea7b360e01b81526001600160a01b037f0000000000000000000000000000000000000000000000000000000000000000166004820152606435602482015285926020908290604490829087905af180156105e45761101b575b50604051610b9781611b87565b6002815260403660208301376001610bae82611bdd565b526002610bba82611bea565b527f00000000000000000000000000000000000000000000000000000000000000006001600160a01b03163b156106f657610c1491839160405193849283926372ce427560e01b8452606435916004359060048601611bfa565b0381837f00000000000000000000000000000000000000000000000000000000000000006001600160a01b03165af180156108dc57611007575b5050610c6b60ff8316610c6660ff8416606435611c59565b611c59565b918260011b9280840460021490151715610ff35760ff821660640360ff8111610fdf57610ca490610c6660ff8085169216606435611c59565b928360011b9380850460021490151715610fdf5784612710610cca818404606435611ca2565b95610cd9828204606435611ca2565b937f00000000000000000000000000000000000000000000000000000000000000006001600160a01b03163b15610fdb578383610d31926040519384928392637921219560e11b845204602435333060048601611caf565b0381837f00000000000000000000000000000000000000000000000000000000000000006001600160a01b03165af1908115610fd0578491610fbc575b50507f00000000000000000000000000000000000000000000000000000000000000006001600160a01b03163b156106f657604051637921219560e11b815291839183918291610dc8919004604435333060048601611caf565b0381837f00000000000000000000000000000000000000000000000000000000000000006001600160a01b03165af180156108dc57610fa8575b505060ff92839160405195610e1687611b6a565b602435875260443560208801526040870152606086015260643560808601528560a08601521660c08401521660e08201523361010082015281610120820152600161014082015260043582526002602052600860408320825181556020830151600182015560408301516002820155606083015160038201556080830151600482015560a0830151600582015560c0830151600682015560e08301516007820155019060018060a01b03610100820151169082549160ff60a01b610120830151151560a01b169161014060ff60a81b910151151560a81b169269ffffffffffffffffffff60b01b16171717905560035468010000000000000000811015610f9457806001610f279201600355611a1e565b81549060031b90600435821b91600019901b19161790556040517fad5d800b2751f02b548dc08d6de483a992370b185957e44035813e261298961d6004359180610f8a606435604435602435846040919493926060820195825260208201520152565b0390a26001805580f35b634e487b7160e01b82526041600452602482fd5b610fb190611b40565b6108d8578438610e02565b610fc590611b40565b6106f6578238610d6e565b6040513d86823e3d90fd5b8380fd5b634e487b7160e01b85526011600452602485fd5b634e487b7160e01b84526011600452602484fd5b61101090611b40565b6106f6578238610c4e565b6110339060203d6020116105dd576105ce8183611ba3565b5038610b8a565b611053915060203d6020116105dd576105ce8183611ba3565b38610b25565b6040513d88823e3d90fd5b604051631f3b85d360e01b8152600490fd5b50606460ff83161015610ab9565b604051631ddde97960e31b8152600490fd5b50606460ff82161015610aa9565b60246040516375ce148f60e11b81526004356004820152fd5b600080fd5b503461027e576110d136611a6b565b6110dc939293611ce3565b82855260206002815260ff600860408820015460a81c1615610983578386526002815260ff600860408820015460a01c1661097157821561095f57838652600281526040862061112d848787611e6e565b9283106112dc576005810190815484116112dc57861580156112d1578154925b6001600160a01b03938a907f00000000000000000000000000000000000000000000000000000000000000008616803b156106f6578983916111a89383604051809681958294637921219560e11b8452303360048601611caf565b03925af180156108dc576112b9575b50506111c4868254611ca2565b9055156112a4576002016111d9858254611d06565b90555b60405163a9059cbb60e01b815233600482015260248101849052908290829060449082908b907f0000000000000000000000000000000000000000000000000000000000000000165af191821561129957879261127c575b5050156105a5576040805194855260208501929092529083015233917ff4ae5a6ef5896e75a87f99ddc305504b519d343497456ede5aba8a936184882a9080606081016108ba565b6112929250803d106105dd576105ce8183611ba3565b3880611234565b6040513d89823e3d90fd5b6003016112b2858254611d06565b90556111dc565b6112c290611b40565b6112cd5789386111b7565b8980fd5b60018201549261114d565b60405163bb55fd2760e01b8152600490fd5b503461027e578060031936011261027e57546040516001600160a01b039091168152602090f35b503461027e578060031936011261027e5761132e611b14565b600080546001600160a01b0319811682556001600160a01b03167f8be0079c531659141344cd1fd0a4f28419497f9722a3daafe3b4186f6b6457e08280a380f35b503461027e57602036600319011261027e576004359060035482101561027e57602061139a83611a1e565b90549060031b1c604051908152f35b503461027e576113b8366119ee565b906113c1611ce3565b80835260029160209280845260ff600860408720015460a81c16156116155782855280845260ff600860408720015460a01c16610971578285528084526040852060088101546001600160a01b03908116330361060157831561095f576040516323b872dd60e01b8152336004820152306024820152604481018590527f00000000000000000000000000000000000000000000000000000000000000008281169188816064818d875af190811561160a578a916115ed575b50156105a55760405163095ea7b360e01b81527f0000000000000000000000000000000000000000000000000000000000000000939093166001600160a01b0381166004850152602484018790528993909289908290604490829088905af18015610fd0576115d0575b506040516114f181611b87565b8581526040368a830137600161150682611bdd565b528561151182611bea565b52823b15610fdb5786928885809461153f604051978896879586946372ce427560e01b865260048601611bfa565b03925af180156108dc576115b8575b50506004918101611560848254611d06565b905560038101611571848254611d06565b90550161157f828254611d06565b9055604051928184528301527f47b0d68dd7ea64624970139aa6c676e4e099d12cee4af2dfe393f2353fea86b160403393a36001805580f35b6115c190611b40565b6115cc57853861154e565b8580fd5b6115e690893d8b116105dd576105ce8183611ba3565b50386114e4565b6116049150893d8b116105dd576105ce8183611ba3565b3861147a565b6040513d8c823e3d90fd5b60405163299f9ab360e11b815260048101849052602490fd5b503461027e578060031936011261027e576040517f00000000000000000000000000000000000000000000000000000000000000006001600160a01b03168152602090f35b503461027e5760206103a861168736611a04565b91611e41565b503461027e57602036600319011261027e5760043563ffffffff60e01b811680910361036957604051630271189760e51b9091148152602090f35b503461027e576116d7366119ee565b906116e0611ce3565b80835260029160209280845260ff600860408720015460a81c16156116155782855280845260ff600860408720015460a01c16610971578285528084526040852060088101546001600160a01b0391908216330361060157831561095f5760048101908154908186116112dc57848101908154908188116119d057600301918254918289116119b057926117838980948e9a999897946117838361178a99611ca2565b9055611ca2565b9055807f00000000000000000000000000000000000000000000000000000000000000001660405163e985e9c560e01b81523060048201528160248201528781604481855afa908115611905578591611993575b5015611929575b604051926117f284611b87565b80845260403689860137600161180785611bdd565b5261181184611bea565b527f000000000000000000000000000000000000000000000000000000000000000090803b156108d85785859161186295838a60405198899586948593639e7212ad60e01b85528a60048601611bfa565b03925af18015610fd05787938591611910575b505060405163a9059cbb60e01b815233600482015260248101869052938492604492849291165af19081156119055785916118e8575b50156105a557604051928184528301527f317e53ec6bc434475c6a7c12af460342fa47661758139f35045090a232213a0c60403393a36001805580f35b6118ff9150843d86116105dd576105ce8183611ba3565b386118ab565b6040513d87823e3d90fd5b61191c91929450611b40565b6106f65785918338611875565b80919293503b1561198f5760405163a22cb46560e01b81526004810182905260016024820152878160448183865af180156119845761196d575b50908692916117e5565b61197b909791939297611b40565b95909138611963565b6040513d8a823e3d90fd5b8680fd5b6119aa9150883d8a116105dd576105ce8183611ba3565b386117de565b60405163315276c960e01b815260016004820152602481018a9052604490fd5b60448b896040519163315276c960e01b835260048301526024820152fd5b60409060031901126110bd576004359060243590565b60609060031901126110bd57600435906024359060443590565b600354811015611a555760036000527fc2575a0e9e593c00f959f8c92f12db2869c3395a3b0502d05e2516446f71f85b0190600090565b634e487b7160e01b600052603260045260246000fd5b60809060031901126110bd5760043590602435906044359060643590565b600435906001600160a01b03821682036110bd57565b602435906001600160a01b03821682036110bd57565b9181601f840112156110bd5782359167ffffffffffffffff83116110bd576020808501948460051b0101116110bd57565b9181601f840112156110bd5782359167ffffffffffffffff83116110bd57602083818601950101116110bd57565b6000546001600160a01b03163303611b2857565b60405163118cdaa760e01b8152336004820152602490fd5b67ffffffffffffffff8111611b5457604052565b634e487b7160e01b600052604160045260246000fd5b610160810190811067ffffffffffffffff821117611b5457604052565b6060810190811067ffffffffffffffff821117611b5457604052565b90601f8019910116810190811067ffffffffffffffff821117611b5457604052565b908160209103126110bd575180151581036110bd5790565b805115611a555760200190565b805160011015611a555760400190565b9493929060a086019060018060a01b03168652602092600084880152604087015260a0606087015281518091528260c0870192019260005b828110611c455750505060809150930152565b845184529381019392810192600101611c32565b81810292918115918404141715611c6c57565b634e487b7160e01b600052601160045260246000fd5b8115611c8c570490565b634e487b7160e01b600052601260045260246000fd5b91908203918211611c6c57565b929060c0949260018060a01b0380921685521660208401526040830152606082015260a06080820152600060a08201520190565b600260015414611cf4576002600155565b604051633ee5aeb560e01b8152600490fd5b91908201809211611c6c57565b906000918083526020926002845260086040822001805460ff8160a01c16611e395760405163dd34de6760e01b81526004810185905286816024817f00000000000000000000000000000000000000000000000000000000000000006001600160a01b03165afa908115610fd0578491611e0c575b5015611dc75760ff60a01b1916600160a01b179055919250907f23004c314d5aaccc6f9a5d28f836bae97e209ee1a080bb8c1c6c3ca8391a13a69080a2565b60405162461bcd60e51b815260048101879052601960248201527f414d4d3a20435446206e6f74207265736f6c76656420796574000000000000006044820152606490fd5b90508681813d8311611e32575b611e238183611ba3565b81010312610fdb575138611d88565b503d611e19565b505050509050565b92919083600052600260205260ff60086040600020015460a81c161561098357611e6b9293611efc565b90565b92919083600052600260205260ff60086040600020015460a81c161561098357611e6b9293611fad565b60005260026020526040600020611ecf611ec960048301546003611ec0600286015483611ca2565b94015490611ca2565b82611d06565b8015611ef357620f424091828102928184041490151715611c6c57611e6b91611c82565b50506207a12090565b8215611fa55760005260026020526040600020906004611f38611ec9611f228486612019565b939095015492611f328685611ca2565b93611ca2565b9184611f44848461203a565b9410611f875750611f8392611f758593611f6f85611f69620f424099611f7b97611d06565b92611d06565b9061203a565b90611d06565b60011c611c59565b0490565b604490856040519163315276c960e01b835260048301526024820152fd5b505050600090565b8215611fa55760005260026020526040600020611fe1611ec96004611f32611fd58686612019565b92909501549485611ca2565b90611fec828261203a565b92848210611f875750611f8392611f758593611f6f85612013620f424099611f7b97611ca2565b92611ca2565b91901561202d576002600383015492015490565b6003600283015492015490565b90801561205f57620f424091828102928184041490151715611c6c57611e6b91611c82565b505060009056fea2646970667358221220b212a72869401d7e40ac259771dad48571e72d802a94a37b6f23401383fa954c64736f6c63430008140033",
  "devdoc": {
    "details": "This contract preserves the core probability-weighted pricing logic from the original      speedrun-ethereum PredictionMarket.sol but adapts it to:       - Trade ERC-1155 CTF positions instead of ERC-20 tokens       - Use USDC (ERC-20) as collateral instead of ETH       - Support multiple markets (pools) without deploying a new contract per market       - Disable trading after the CTF condition is resolved PRICING ALGORITHM (preserved from original):  Buy/Sell price = initialTokenValue × avgProbability × amount  Where probability = targetTokensSold / totalTokensSold for both outcomes  avgProbability = (probabilityBefore + probabilityAfter) / 2 Each pool is identified by a `conditionId` derived from the CTF:  conditionId = keccak256(adapter, questionId, outcomeSlotCount)",
    "errors": {
      "OwnableInvalidOwner(address)": [
        {
          "details": "The owner is not a valid owner account. (eg. `address(0)`)"
        }
      ],
      "OwnableUnauthorizedAccount(address)": [
        {
          "details": "The caller account is not authorized to perform an operation."
        }
      ],
      "ReentrancyGuardReentrantCall()": [
        {
          "details": "Unauthorized reentrant call."
        }
      ]
    },
    "kind": "dev",
    "methods": {
      "buyTokens(bytes32,uint256,uint256,uint256)": {
        "details": "Caller must have approved this contract for `maxUsdcIn` USDC.",
        "params": {
          "conditionId": "The pool's conditionId.",
          "maxUsdcIn": "Maximum USDC willing to pay (slippage protection).",
          "outcome": "0 = YES, 1 = NO.",
          "tokenAmount": "Number of outcome tokens to buy (18 decimals)."
        }
      },
      "createPool(bytes32,uint256,uint256,uint256,uint8,uint8)": {
        "details": "Caller must have already approved this contract to spend `usdcAmount` USDC.      The USDC is split-positioned into YES/NO ERC-1155 tokens by the CTF;      then deposited into the pool as reserves.",
        "params": {
          "conditionId": "The CTF conditionId derived from keccak256(adapter, questionId, 2).",
          "initialYesProbability": "Starting YES probability (1-99).",
          "noTokenId": "ERC-1155 NO positionId from the CTF.",
          "percentageToLock": "% of token supply locked to simulate initial probability (1-99).",
          "usdcAmount": "Amount of USDC to provide as initial liquidity.",
          "yesTokenId": "ERC-1155 YES positionId from the CTF."
        }
      },
      "markResolved(bytes32)": {
        "details": "Anyone can call this once the CTF condition has been resolved.      The actual payout distribution happens via ctf.redeemPositions()."
      },
      "owner()": {
        "details": "Returns the address of the current owner."
      },
      "renounceOwnership()": {
        "details": "Leaves the contract without owner. It will not be possible to call `onlyOwner` functions. Can only be called by the current owner. NOTE: Renouncing ownership will leave the contract without an owner, thereby disabling any functionality that is only available to the owner."
      },
      "sellTokens(bytes32,uint256,uint256,uint256)": {
        "details": "Caller must have called ctf.setApprovalForAll(ammAddress, true) first.",
        "params": {
          "conditionId": "The pool's conditionId.",
          "minUsdcOut": "Minimum USDC to receive (slippage protection).",
          "outcome": "0 = YES, 1 = NO.",
          "tokenAmount": "Number of outcome tokens to sell."
        }
      },
      "supportsInterface(bytes4)": {
        "details": "Returns true if this contract implements the interface defined by `interfaceId`. See the corresponding https://eips.ethereum.org/EIPS/eip-165#how-interfaces-are-identified[EIP section] to learn more about how these ids are created. This function call must use less than 30 000 gas."
      },
      "transferOwnership(address)": {
        "details": "Transfers ownership of the contract to a new account (`newOwner`). Can only be called by the current owner."
      }
    },
    "title": "PredictionMarketAMM",
    "version": 1
  },
  "userdoc": {
    "kind": "user",
    "methods": {
      "addLiquidity(bytes32,uint256)": {
        "notice": "LP owner adds more liquidity to an existing pool."
      },
      "allPools(uint256)": {
        "notice": "List of all conditionIds for enumeration"
      },
      "buyTokens(bytes32,uint256,uint256,uint256)": {
        "notice": "Buys outcome tokens with USDC."
      },
      "collateral()": {
        "notice": "The collateral ERC-20 (USDC on Sepolia: 0x1c7D4B196Cb0C7B01d743Fbc6116a902379C7238)"
      },
      "createPool(bytes32,uint256,uint256,uint256,uint8,uint8)": {
        "notice": "Creates an AMM pool for a CTF binary market and seeds initial liquidity."
      },
      "ctf()": {
        "notice": "The Gnosis CTF contract"
      },
      "getBuyPrice(bytes32,uint256,uint256)": {
        "notice": "Calculate USDC cost to buy `tokenAmount` outcome tokens.  Preserves the original probability-weighted price model."
      },
      "getSellPrice(bytes32,uint256,uint256)": {
        "notice": "Calculate USDC received for selling `tokenAmount` outcome tokens."
      },
      "getYesProbability(bytes32)": {
        "notice": "Returns current implied probability of YES outcome (scaled by PRECISION)."
      },
      "markResolved(bytes32)": {
        "notice": "Marks a pool as resolved so trading is disabled."
      },
      "pools(bytes32)": {
        "notice": "conditionId → Pool"
      },
      "removeLiquidity(bytes32,uint256)": {
        "notice": "LP owner removes liquidity from an existing pool."
      },
      "sellTokens(bytes32,uint256,uint256,uint256)": {
        "notice": "Sells outcome tokens for USDC."
      },
      "withdrawAfterResolution(bytes32)": {
        "notice": "LP owner withdraws liquidity + trading revenue after resolution."
      }
    },
    "notice": "AMM for trading YES/NO ERC-1155 CTF outcome tokens.",
    "version": 1
  },
  "storageLayout": {
    "storage": [
      {
        "astId": 8,
        "contract": "contracts/PredictionMarketAMM.sol:PredictionMarketAMM",
        "label": "_owner",
        "offset": 0,
        "slot": "0",
        "type": "t_address"
      },
      {
        "astId": 1818,
        "contract": "contracts/PredictionMarketAMM.sol:PredictionMarketAMM",
        "label": "_status",
        "offset": 0,
        "slot": "1",
        "type": "t_uint256"
      },
      {
        "astId": 4135,
        "contract": "contracts/PredictionMarketAMM.sol:PredictionMarketAMM",
        "label": "pools",
        "offset": 0,
        "slot": "2",
        "type": "t_mapping(t_bytes32,t_struct(Pool)4121_storage)"
      },
      {
        "astId": 4139,
        "contract": "contracts/PredictionMarketAMM.sol:PredictionMarketAMM",
        "label": "allPools",
        "offset": 0,
        "slot": "3",
        "type": "t_array(t_bytes32)dyn_storage"
      }
    ],
    "types": {
      "t_address": {
        "encoding": "inplace",
        "label": "address",
        "numberOfBytes": "20"
      },
      "t_array(t_bytes32)dyn_storage": {
        "base": "t_bytes32",
        "encoding": "dynamic_array",
        "label": "bytes32[]",
        "numberOfBytes": "32"
      },
      "t_bool": {
        "encoding": "inplace",
        "label": "bool",
        "numberOfBytes": "1"
      },
      "t_bytes32": {
        "encoding": "inplace",
        "label": "bytes32",
        "numberOfBytes": "32"
      },
      "t_mapping(t_bytes32,t_struct(Pool)4121_storage)": {
        "encoding": "mapping",
        "key": "t_bytes32",
        "label": "mapping(bytes32 => struct PredictionMarketAMM.Pool)",
        "numberOfBytes": "32",
        "value": "t_struct(Pool)4121_storage"
      },
      "t_struct(Pool)4121_storage": {
        "encoding": "inplace",
        "label": "struct PredictionMarketAMM.Pool",
        "members": [
          {
            "astId": 4100,
            "contract": "contracts/PredictionMarketAMM.sol:PredictionMarketAMM",
            "label": "yesTokenId",
            "offset": 0,
            "slot": "0",
            "type": "t_uint256"
          },
          {
            "astId": 4102,
            "contract": "contracts/PredictionMarketAMM.sol:PredictionMarketAMM",
            "label": "noTokenId",
            "offset": 0,
            "slot": "1",
            "type": "t_uint256"
          },
          {
            "astId": 4104,
            "contract": "contracts/PredictionMarketAMM.sol:PredictionMarketAMM",
            "label": "yesReserve",
            "offset": 0,
            "slot": "2",
            "type": "t_uint256"
          },
          {
            "astId": 4106,
            "contract": "contracts/PredictionMarketAMM.sol:PredictionMarketAMM",
            "label": "noReserve",
            "offset": 0,
            "slot": "3",
            "type": "t_uint256"
          },
          {
            "astId": 4108,
            "contract": "contracts/PredictionMarketAMM.sol:PredictionMarketAMM",
            "label": "usdcCollateral",
            "offset": 0,
            "slot": "4",
            "type": "t_uint256"
          },
          {
            "astId": 4110,
            "contract": "contracts/PredictionMarketAMM.sol:PredictionMarketAMM",
            "label": "lpTradingRevenue",
            "offset": 0,
            "slot": "5",
            "type": "t_uint256"
          },
          {
            "astId": 4112,
            "contract": "contracts/PredictionMarketAMM.sol:PredictionMarketAMM",
            "label": "initialYesProbability",
            "offset": 0,
            "slot": "6",
            "type": "t_uint256"
          },
          {
            "astId": 4114,
            "contract": "contracts/PredictionMarketAMM.sol:PredictionMarketAMM",
            "label": "percentageLocked",
            "offset": 0,
            "slot": "7",
            "type": "t_uint256"
          },
          {
            "astId": 4116,
            "contract": "contracts/PredictionMarketAMM.sol:PredictionMarketAMM",
            "label": "lpOwner",
            "offset": 0,
            "slot": "8",
            "type": "t_address"
          },
          {
            "astId": 4118,
            "contract": "contracts/PredictionMarketAMM.sol:PredictionMarketAMM",
            "label": "resolved",
            "offset": 20,
            "slot": "8",
            "type": "t_bool"
          },
          {
            "astId": 4120,
            "contract": "contracts/PredictionMarketAMM.sol:PredictionMarketAMM",
            "label": "exists",
            "offset": 21,
            "slot": "8",
            "type": "t_bool"
          }
        ],
        "numberOfBytes": "288"
      },
      "t_uint256": {
        "encoding": "inplace",
        "label": "uint256",
        "numberOfBytes": "32"
      }
    }
  }
}