{
  "address": "0xC6e6D16BF2EE18137E62AC9c44bCd692448f8354",
  "abi": [
    {
      "inputs": [
        {
          "internalType": "address",
          "name": "_ctf",
          "type": "address"
        },
        {
          "internalType": "address",
          "name": "_forwarderAddress",
          "type": "address"
        },
        {
          "internalType": "uint256",
          "name": "_disputeWindow",
          "type": "uint256"
        },
        {
          "internalType": "address[]",
          "name": "_multisigSigners",
          "type": "address[]"
        },
        {
          "internalType": "uint256",
          "name": "_multisigThreshold",
          "type": "uint256"
        }
      ],
      "stateMutability": "nonpayable",
      "type": "constructor"
    },
    {
      "inputs": [],
      "name": "AlreadyApproved",
      "type": "error"
    },
    {
      "inputs": [],
      "name": "AlreadyInitialized",
      "type": "error"
    },
    {
      "inputs": [],
      "name": "AlreadyResolved",
      "type": "error"
    },
    {
      "inputs": [],
      "name": "DisputeWindowActive",
      "type": "error"
    },
    {
      "inputs": [],
      "name": "DisputeWindowExpired",
      "type": "error"
    },
    {
      "inputs": [
        {
          "internalType": "address",
          "name": "received",
          "type": "address"
        },
        {
          "internalType": "address",
          "name": "expected",
          "type": "address"
        }
      ],
      "name": "InvalidAuthor",
      "type": "error"
    },
    {
      "inputs": [],
      "name": "InvalidDisputeWindow",
      "type": "error"
    },
    {
      "inputs": [],
      "name": "InvalidForwarderAddress",
      "type": "error"
    },
    {
      "inputs": [],
      "name": "InvalidPayouts",
      "type": "error"
    },
    {
      "inputs": [
        {
          "internalType": "address",
          "name": "sender",
          "type": "address"
        },
        {
          "internalType": "address",
          "name": "expected",
          "type": "address"
        }
      ],
      "name": "InvalidSender",
      "type": "error"
    },
    {
      "inputs": [],
      "name": "InvalidThreshold",
      "type": "error"
    },
    {
      "inputs": [
        {
          "internalType": "bytes32",
          "name": "received",
          "type": "bytes32"
        },
        {
          "internalType": "bytes32",
          "name": "expected",
          "type": "bytes32"
        }
      ],
      "name": "InvalidWorkflowId",
      "type": "error"
    },
    {
      "inputs": [
        {
          "internalType": "bytes10",
          "name": "received",
          "type": "bytes10"
        },
        {
          "internalType": "bytes10",
          "name": "expected",
          "type": "bytes10"
        }
      ],
      "name": "InvalidWorkflowName",
      "type": "error"
    },
    {
      "inputs": [],
      "name": "NoProposalPending",
      "type": "error"
    },
    {
      "inputs": [],
      "name": "NotAuthorizedFinalizer",
      "type": "error"
    },
    {
      "inputs": [],
      "name": "NotInitialized",
      "type": "error"
    },
    {
      "inputs": [],
      "name": "NotMultisigSigner",
      "type": "error"
    },
    {
      "inputs": [],
      "name": "NotRegistry",
      "type": "error"
    },
    {
      "inputs": [
        {
          "internalType": "address",
          "name": "owner",
          "type": "address"
        }
      ],
      "name": "OwnableInvalidOwner",
      "type": "error"
    },
    {
      "inputs": [
        {
          "internalType": "address",
          "name": "account",
          "type": "address"
        }
      ],
      "name": "OwnableUnauthorizedAccount",
      "type": "error"
    },
    {
      "inputs": [],
      "name": "ThresholdNotMet",
      "type": "error"
    },
    {
      "inputs": [],
      "name": "WorkflowNameRequiresAuthorValidation",
      "type": "error"
    },
    {
      "inputs": [],
      "name": "ZeroOutcomeCount",
      "type": "error"
    },
    {
      "anonymous": false,
      "inputs": [
        {
          "indexed": false,
          "internalType": "uint256",
          "name": "newWindow",
          "type": "uint256"
        }
      ],
      "name": "DisputeWindowUpdated",
      "type": "event"
    },
    {
      "anonymous": false,
      "inputs": [
        {
          "indexed": true,
          "internalType": "address",
          "name": "previousAuthor",
          "type": "address"
        },
        {
          "indexed": true,
          "internalType": "address",
          "name": "newAuthor",
          "type": "address"
        }
      ],
      "name": "ExpectedAuthorUpdated",
      "type": "event"
    },
    {
      "anonymous": false,
      "inputs": [
        {
          "indexed": true,
          "internalType": "bytes32",
          "name": "previousId",
          "type": "bytes32"
        },
        {
          "indexed": true,
          "internalType": "bytes32",
          "name": "newId",
          "type": "bytes32"
        }
      ],
      "name": "ExpectedWorkflowIdUpdated",
      "type": "event"
    },
    {
      "anonymous": false,
      "inputs": [
        {
          "indexed": true,
          "internalType": "bytes10",
          "name": "previousName",
          "type": "bytes10"
        },
        {
          "indexed": true,
          "internalType": "bytes10",
          "name": "newName",
          "type": "bytes10"
        }
      ],
      "name": "ExpectedWorkflowNameUpdated",
      "type": "event"
    },
    {
      "anonymous": false,
      "inputs": [
        {
          "indexed": true,
          "internalType": "address",
          "name": "previousForwarder",
          "type": "address"
        },
        {
          "indexed": true,
          "internalType": "address",
          "name": "newForwarder",
          "type": "address"
        }
      ],
      "name": "ForwarderAddressUpdated",
      "type": "event"
    },
    {
      "anonymous": false,
      "inputs": [
        {
          "indexed": true,
          "internalType": "bytes32",
          "name": "questionId",
          "type": "bytes32"
        },
        {
          "indexed": false,
          "internalType": "string",
          "name": "ipfsCid",
          "type": "string"
        },
        {
          "indexed": false,
          "internalType": "uint256",
          "name": "outcomeCount",
          "type": "uint256"
        },
        {
          "indexed": false,
          "internalType": "uint256",
          "name": "resolutionTime",
          "type": "uint256"
        }
      ],
      "name": "MarketInitialized",
      "type": "event"
    },
    {
      "anonymous": false,
      "inputs": [
        {
          "indexed": true,
          "internalType": "bytes32",
          "name": "questionId",
          "type": "bytes32"
        },
        {
          "indexed": false,
          "internalType": "uint256[]",
          "name": "payouts",
          "type": "uint256[]"
        }
      ],
      "name": "MarketResolved",
      "type": "event"
    },
    {
      "anonymous": false,
      "inputs": [
        {
          "indexed": true,
          "internalType": "bytes32",
          "name": "questionId",
          "type": "bytes32"
        },
        {
          "indexed": true,
          "internalType": "address",
          "name": "signer",
          "type": "address"
        },
        {
          "indexed": false,
          "internalType": "uint256",
          "name": "approvalsNow",
          "type": "uint256"
        },
        {
          "indexed": false,
          "internalType": "uint256",
          "name": "threshold",
          "type": "uint256"
        }
      ],
      "name": "MultisigOverrideApproved",
      "type": "event"
    },
    {
      "anonymous": false,
      "inputs": [
        {
          "indexed": false,
          "internalType": "address[]",
          "name": "newSigners",
          "type": "address[]"
        }
      ],
      "name": "MultisigSignersUpdated",
      "type": "event"
    },
    {
      "anonymous": false,
      "inputs": [
        {
          "indexed": false,
          "internalType": "uint256",
          "name": "newThreshold",
          "type": "uint256"
        }
      ],
      "name": "MultisigThresholdUpdated",
      "type": "event"
    },
    {
      "anonymous": false,
      "inputs": [
        {
          "indexed": true,
          "internalType": "address",
          "name": "previousOwner",
          "type": "address"
        },
        {
          "indexed": true,
          "internalType": "address",
          "name": "newOwner",
          "type": "address"
        }
      ],
      "name": "OwnershipTransferred",
      "type": "event"
    },
    {
      "anonymous": false,
      "inputs": [
        {
          "indexed": false,
          "internalType": "address",
          "name": "newRegistry",
          "type": "address"
        }
      ],
      "name": "RegistryUpdated",
      "type": "event"
    },
    {
      "anonymous": false,
      "inputs": [
        {
          "indexed": true,
          "internalType": "bytes32",
          "name": "questionId",
          "type": "bytes32"
        },
        {
          "indexed": false,
          "internalType": "uint256[]",
          "name": "newPayouts",
          "type": "uint256[]"
        },
        {
          "indexed": false,
          "internalType": "address",
          "name": "replacedBy",
          "type": "address"
        }
      ],
      "name": "ResolutionProposalReplaced",
      "type": "event"
    },
    {
      "anonymous": false,
      "inputs": [
        {
          "indexed": true,
          "internalType": "bytes32",
          "name": "questionId",
          "type": "bytes32"
        },
        {
          "indexed": false,
          "internalType": "uint256[]",
          "name": "payouts",
          "type": "uint256[]"
        },
        {
          "indexed": false,
          "internalType": "uint256",
          "name": "disputeWindowEnd",
          "type": "uint256"
        }
      ],
      "name": "ResolutionProposed",
      "type": "event"
    },
    {
      "anonymous": false,
      "inputs": [
        {
          "indexed": false,
          "internalType": "string",
          "name": "message",
          "type": "string"
        }
      ],
      "name": "SecurityWarning",
      "type": "event"
    },
    {
      "inputs": [
        {
          "internalType": "bytes32",
          "name": "questionId",
          "type": "bytes32"
        },
        {
          "internalType": "uint256[]",
          "name": "payouts",
          "type": "uint256[]"
        }
      ],
      "name": "adminOverride",
      "outputs": [],
      "stateMutability": "nonpayable",
      "type": "function"
    },
    {
      "inputs": [
        {
          "internalType": "bytes32",
          "name": "questionId",
          "type": "bytes32"
        },
        {
          "internalType": "uint256[]",
          "name": "payouts",
          "type": "uint256[]"
        }
      ],
      "name": "adminResolve",
      "outputs": [],
      "stateMutability": "nonpayable",
      "type": "function"
    },
    {
      "inputs": [],
      "name": "ctf",
      "outputs": [
        {
          "internalType": "contract ConditionalTokens",
          "name": "",
          "type": "address"
        }
      ],
      "stateMutability": "view",
      "type": "function"
    },
    {
      "inputs": [],
      "name": "disputeWindow",
      "outputs": [
        {
          "internalType": "uint256",
          "name": "",
          "type": "uint256"
        }
      ],
      "stateMutability": "view",
      "type": "function"
    },
    {
      "inputs": [
        {
          "internalType": "bytes32",
          "name": "questionId",
          "type": "bytes32"
        }
      ],
      "name": "finalizeResolution",
      "outputs": [],
      "stateMutability": "nonpayable",
      "type": "function"
    },
    {
      "inputs": [
        {
          "internalType": "bytes32",
          "name": "questionId",
          "type": "bytes32"
        }
      ],
      "name": "getDisputeWindowEnd",
      "outputs": [
        {
          "internalType": "uint256",
          "name": "",
          "type": "uint256"
        }
      ],
      "stateMutability": "view",
      "type": "function"
    },
    {
      "inputs": [],
      "name": "getExpectedAuthor",
      "outputs": [
        {
          "internalType": "address",
          "name": "",
          "type": "address"
        }
      ],
      "stateMutability": "view",
      "type": "function"
    },
    {
      "inputs": [],
      "name": "getExpectedWorkflowId",
      "outputs": [
        {
          "internalType": "bytes32",
          "name": "",
          "type": "bytes32"
        }
      ],
      "stateMutability": "view",
      "type": "function"
    },
    {
      "inputs": [],
      "name": "getExpectedWorkflowName",
      "outputs": [
        {
          "internalType": "bytes10",
          "name": "",
          "type": "bytes10"
        }
      ],
      "stateMutability": "view",
      "type": "function"
    },
    {
      "inputs": [],
      "name": "getForwarderAddress",
      "outputs": [
        {
          "internalType": "address",
          "name": "",
          "type": "address"
        }
      ],
      "stateMutability": "view",
      "type": "function"
    },
    {
      "inputs": [],
      "name": "getMultisigSigners",
      "outputs": [
        {
          "internalType": "address[]",
          "name": "",
          "type": "address[]"
        }
      ],
      "stateMutability": "view",
      "type": "function"
    },
    {
      "inputs": [
        {
          "internalType": "bytes32",
          "name": "questionId",
          "type": "bytes32"
        }
      ],
      "name": "getQuestion",
      "outputs": [
        {
          "components": [
            {
              "internalType": "uint256",
              "name": "resolutionTime",
              "type": "uint256"
            },
            {
              "internalType": "uint256",
              "name": "proposedAt",
              "type": "uint256"
            },
            {
              "internalType": "uint256[]",
              "name": "proposedPayouts",
              "type": "uint256[]"
            },
            {
              "internalType": "uint256",
              "name": "outcomeCount",
              "type": "uint256"
            },
            {
              "internalType": "enum AiCTFAdapter.MarketStatus",
              "name": "status",
              "type": "uint8"
            },
            {
              "internalType": "bool",
              "name": "multisigApproved",
              "type": "bool"
            }
          ],
          "internalType": "struct AiCTFAdapter.MarketQuestion",
          "name": "",
          "type": "tuple"
        }
      ],
      "stateMutability": "view",
      "type": "function"
    },
    {
      "inputs": [
        {
          "internalType": "bytes32",
          "name": "questionId",
          "type": "bytes32"
        },
        {
          "internalType": "string",
          "name": "ipfsCid",
          "type": "string"
        },
        {
          "internalType": "uint256",
          "name": "outcomeCount",
          "type": "uint256"
        },
        {
          "internalType": "uint256",
          "name": "resolutionTime",
          "type": "uint256"
        }
      ],
      "name": "initializeMarket",
      "outputs": [],
      "stateMutability": "nonpayable",
      "type": "function"
    },
    {
      "inputs": [
        {
          "internalType": "address",
          "name": "addr",
          "type": "address"
        }
      ],
      "name": "isMultisigSigner",
      "outputs": [
        {
          "internalType": "bool",
          "name": "",
          "type": "bool"
        }
      ],
      "stateMutability": "view",
      "type": "function"
    },
    {
      "inputs": [
        {
          "internalType": "bytes32",
          "name": "",
          "type": "bytes32"
        }
      ],
      "name": "multisigApprovalCount",
      "outputs": [
        {
          "internalType": "uint256",
          "name": "",
          "type": "uint256"
        }
      ],
      "stateMutability": "view",
      "type": "function"
    },
    {
      "inputs": [
        {
          "internalType": "bytes32",
          "name": "",
          "type": "bytes32"
        },
        {
          "internalType": "address",
          "name": "",
          "type": "address"
        }
      ],
      "name": "multisigApprovals",
      "outputs": [
        {
          "internalType": "bool",
          "name": "",
          "type": "bool"
        }
      ],
      "stateMutability": "view",
      "type": "function"
    },
    {
      "inputs": [
        {
          "internalType": "bytes32",
          "name": "questionId",
          "type": "bytes32"
        },
        {
          "internalType": "uint256[]",
          "name": "payouts",
          "type": "uint256[]"
        }
      ],
      "name": "multisigOverride",
      "outputs": [],
      "stateMutability": "nonpayable",
      "type": "function"
    },
    {
      "inputs": [
        {
          "internalType": "uint256",
          "name": "",
          "type": "uint256"
        }
      ],
      "name": "multisigSigners",
      "outputs": [
        {
          "internalType": "address",
          "name": "",
          "type": "address"
        }
      ],
      "stateMutability": "view",
      "type": "function"
    },
    {
      "inputs": [],
      "name": "multisigThreshold",
      "outputs": [
        {
          "internalType": "uint256",
          "name": "",
          "type": "uint256"
        }
      ],
      "stateMutability": "view",
      "type": "function"
    },
    {
      "inputs": [
        {
          "internalType": "bytes",
          "name": "metadata",
          "type": "bytes"
        },
        {
          "internalType": "bytes",
          "name": "report",
          "type": "bytes"
        }
      ],
      "name": "onReport",
      "outputs": [],
      "stateMutability": "nonpayable",
      "type": "function"
    },
    {
      "inputs": [],
      "name": "owner",
      "outputs": [
        {
          "internalType": "address",
          "name": "",
          "type": "address"
        }
      ],
      "stateMutability": "view",
      "type": "function"
    },
    {
      "inputs": [
        {
          "internalType": "bytes32",
          "name": "",
          "type": "bytes32"
        }
      ],
      "name": "questions",
      "outputs": [
        {
          "internalType": "uint256",
          "name": "resolutionTime",
          "type": "uint256"
        },
        {
          "internalType": "uint256",
          "name": "proposedAt",
          "type": "uint256"
        },
        {
          "internalType": "uint256",
          "name": "outcomeCount",
          "type": "uint256"
        },
        {
          "internalType": "enum AiCTFAdapter.MarketStatus",
          "name": "status",
          "type": "uint8"
        },
        {
          "internalType": "bool",
          "name": "multisigApproved",
          "type": "bool"
        }
      ],
      "stateMutability": "view",
      "type": "function"
    },
    {
      "inputs": [],
      "name": "registry",
      "outputs": [
        {
          "internalType": "address",
          "name": "",
          "type": "address"
        }
      ],
      "stateMutability": "view",
      "type": "function"
    },
    {
      "inputs": [],
      "name": "renounceOwnership",
      "outputs": [],
      "stateMutability": "nonpayable",
      "type": "function"
    },
    {
      "inputs": [
        {
          "internalType": "uint256",
          "name": "_window",
          "type": "uint256"
        }
      ],
      "name": "setDisputeWindow",
      "outputs": [],
      "stateMutability": "nonpayable",
      "type": "function"
    },
    {
      "inputs": [
        {
          "internalType": "address",
          "name": "_author",
          "type": "address"
        }
      ],
      "name": "setExpectedAuthor",
      "outputs": [],
      "stateMutability": "nonpayable",
      "type": "function"
    },
    {
      "inputs": [
        {
          "internalType": "bytes32",
          "name": "_id",
          "type": "bytes32"
        }
      ],
      "name": "setExpectedWorkflowId",
      "outputs": [],
      "stateMutability": "nonpayable",
      "type": "function"
    },
    {
      "inputs": [
        {
          "internalType": "string",
          "name": "_name",
          "type": "string"
        }
      ],
      "name": "setExpectedWorkflowName",
      "outputs": [],
      "stateMutability": "nonpayable",
      "type": "function"
    },
    {
      "inputs": [
        {
          "internalType": "address",
          "name": "_forwarder",
          "type": "address"
        }
      ],
      "name": "setForwarderAddress",
      "outputs": [],
      "stateMutability": "nonpayable",
      "type": "function"
    },
    {
      "inputs": [
        {
          "internalType": "address[]",
          "name": "_signers",
          "type": "address[]"
        },
        {
          "internalType": "uint256",
          "name": "_threshold",
          "type": "uint256"
        }
      ],
      "name": "setMultisigSigners",
      "outputs": [],
      "stateMutability": "nonpayable",
      "type": "function"
    },
    {
      "inputs": [
        {
          "internalType": "address",
          "name": "_registry",
          "type": "address"
        }
      ],
      "name": "setRegistry",
      "outputs": [],
      "stateMutability": "nonpayable",
      "type": "function"
    },
    {
      "inputs": [
        {
          "internalType": "address",
          "name": "_finalizer",
          "type": "address"
        }
      ],
      "name": "setUpkeepFinalizer",
      "outputs": [],
      "stateMutability": "nonpayable",
      "type": "function"
    },
    {
      "inputs": [
        {
          "internalType": "bytes4",
          "name": "interfaceId",
          "type": "bytes4"
        }
      ],
      "name": "supportsInterface",
      "outputs": [
        {
          "internalType": "bool",
          "name": "",
          "type": "bool"
        }
      ],
      "stateMutability": "pure",
      "type": "function"
    },
    {
      "inputs": [
        {
          "internalType": "address",
          "name": "newOwner",
          "type": "address"
        }
      ],
      "name": "transferOwnership",
      "outputs": [],
      "stateMutability": "nonpayable",
      "type": "function"
    },
    {
      "inputs": [],
      "name": "upkeepFinalizer",
      "outputs": [
        {
          "internalType": "address",
          "name": "",
          "type": "address"
        }
      ],
      "stateMutability": "view",
      "type": "function"
    }
  ],
  "transactionHash": "0x6343dea231f2c17da5937cbfcd90efcd23cf29d0574d965589deee88be4f4d09",
  "args": [
    "0x40503eBe9F1398d631D6d4Bf873dF620055893a5",
    "0x6E9EE680ef59ef64Aa8C7371279c27E496b5eDc1",
    7200,
    [
      "0x81a6A8b67702acfab6E604f4849e9cFAb762E592",
      "0xe53c55806328d94A345f2784c7387495505B1CF1"
    ],
    2
  ],
  "numDeployments": 1,
  "solcInputHash": "8e24f003df160c026fd578134f5b0e98",
  "bytecode": "0x604060a0815234620002b25762002754803803806200001e81620002cd565b92833981019060a081830312620002b2576200003a81620002f3565b9060206200004a818301620002f3565b8286015160608401516001600160401b03949293919290858111620002b25781019087601f83011215620002b257815197868911620002b7578860051b928462000096818601620002cd565b809b81520190858295820101928311620002b25785809101915b838310620002975750505050608001519633156200027f57600080546001600160a01b03198082163390811784558c51919a6001600160a01b039994989490938a929083167f8be0079c531659141344cd1fd0a4f28419497f9722a3daafe3b4186f6b6457e08b80a3169081156200027157508060019a8b5416178a558b5190877f039ad854736757070884dd787ef1a7f58db33546639d1f3efddcf4a33fb8997e8180a382156200026257508251801515908162000243575b5062000232578616608052600455519485116200021e576801000000000000000085116200021e5760065485600655808610620001f3575b509260068352818320925b858110620001df5788886005555161244b908162000309823960805181818161036e0152818161080b0152611c2a0152f35b8451821684820155938201938601620001ad565b60068452868684862092830192015b82811062000212575050620001a2565b85815501879062000202565b634e487b7160e01b83526041600452602483fd5b8a5163aabd5a0960e01b8152600490fd5b8b159150811562000257575b50386200016a565b90508a11386200024f565b6310034a8b60e01b8152600490fd5b62e0775560e61b8152600490fd5b8851631e4fbdf760e01b815260006004820152602490fd5b8190620002a484620002f3565b8152019101908590620000b0565b600080fd5b634e487b7160e01b600052604160045260246000fd5b6040519190601f01601f191682016001600160401b03811183821017620002b757604052565b51906001600160a01b0382168203620002b25756fe6080604052600436101561001257600080fd5b60003560e01c806301ffc9a7146102475780630a0cfa2814610242578063117f5f921461023d5780631cf20ee61461023857806322a9339f146102335780632d27deaf1461022e578063332226d0146102295780633397cf67146102245780633441856f1461021f57806358c039cd1461021a5780636436e53d14610215578063650519451461021057806367afaf281461020b578063715018a6146102065780637781f0a1146102015780637b103999146101fc578063805f2132146101f75780638c75ec80146101f25780638da5cb5b146101ed57806395addb90146101e8578063a619d818146101e3578063a7721594146101de578063a91ee0dc146101d9578063ace2985b146101d4578063bc1fc27a146101cf578063c3c44ac2146101ca578063c735f93f146101c5578063cb9c99a9146101c0578063d60c884b146101bb578063d777cc6d146101b6578063e8c42125146101b1578063ea685565146101ac578063ea6d52f8146101a7578063f2fde38b146101a25763f5c793ef1461019d57600080fd5b6116df565b611653565b61162a565b61154f565b611408565b611338565b6112ca565b611200565b610e6b565b610e21565b610de0565b610d99565b610d29565b610ce0565b610c9a565b610c35565b610c0c565b610bee565b6109c9565b6109a0565b61096f565b610914565b610783565b61069e565b610672565b61058c565b6104af565b610486565b610421565b610400565b610358565b610302565b6102d3565b6102a2565b3461029d57602036600319011261029d5760043563ffffffff60e01b811680910361029d5760209063402f909960e11b811490811561028c575b506040519015158152f35b6301ffc9a760e01b14905038610281565b600080fd5b3461029d57602036600319011261029d5760206102c0600435611ec6565b604051908152f35b600091031261029d57565b3461029d57600036600319011261029d576020600454604051908152f35b6001600160a01b0381160361029d57565b3461029d57604036600319011261029d57602060ff61034c602435610326816102f1565b6004356000526008845260406000209060018060a01b0316600052602052604060002090565b54166040519015158152f35b3461029d57600036600319011261029d576040517f00000000000000000000000000000000000000000000000000000000000000006001600160a01b03168152602090f35b9181601f8401121561029d578235916001600160401b03831161029d576020808501948460051b01011161029d57565b90604060031983011261029d5760043591602435906001600160401b03821161029d576103fc9160040161039d565b9091565b3461029d5761041f610411366103cd565b9161041a6116fd565b6119b8565b005b3461029d57602036600319011261029d5760043561043d6116fd565b8015610474576020817f5c157a613f3e087909e16add9322412e7c5f67e0612bd2e069190064490da64792600455604051908152a1005b6040516310034a8b60e01b8152600490fd5b3461029d57600036600319011261029d576002546040516001600160a01b039091168152602090f35b3461029d57600036600319011261029d576001546040516001600160a01b039091168152602090f35b600411156104e257565b634e487b7160e01b600052602160045260246000fd5b9060048210156104e25752565b60209182825260e082019281518184015280820151604084015260408201519360c06060850152845180915281610100850195019160005b82811061057857505050509060c060a0836060610575950151608085015261056c6080820151838601906104f8565b01511515910152565b90565b83518752958101959281019260010161053d565b3461029d57602036600319011261029d5760a0604080516105ac8161173f565b60009281848093528260208201526060848201528260608201528260808201520152600435825260076020528082209060048151926105ea8461173f565b805484526001810154602085015282516106128161060b8160028601611bca565b0382611788565b838501526003810154606085015201549260ff841690600482101561065e575060ff61065a9461065092608086015260081c1660a084019015159052565b5191829182610505565b0390f35b634e487b7160e01b81526021600452602490fd5b3461029d57602036600319011261029d5760043560005260096020526020604060002054604051908152f35b3461029d576000806003193601126107535760405180916006549081835260208093018092600683526000805160206123f683398151915290835b81811061073657505050846106ef910385611788565b60405193838594850191818652518092526040850193925b82811061071657505050500390f35b83516001600160a01b031685528695509381019392810192600101610707565b82546001600160a01b0316845292860192600192830192016106d9565b80fd5b9181601f8401121561029d578235916001600160401b03831161029d576020838186019501011161029d57565b3461029d57608036600319011261029d5760048035906024356001600160401b03811161029d576107b79036908301610756565b9060443560643560018060a01b039182600a5416330361090357600281106108f2576107ed876000526007602052604060002090565b868101936107fc855460ff1690565b610805816104d8565b6108e2577f000000000000000000000000000000000000000000000000000000000000000016803b1561029d576040805163365bb9d560e21b815230998101998a5260208a018b905290890184905297600091899182908490829060600103925af19384156108dd578260036108b3937ffc494f392f96fcc692b5dbb5e55fa38ce4c322ca25afb09ea64664fd8665e4119a6108bf986108c4575b508681550155805460ff19166001179055565b604051948594856117b5565b0390a2005b806108d16108d79261175a565b806102c8565b386108a0565b6117a9565b60405162dc149f60e41b81528890fd5b60405163785b673760e11b81528690fd5b604051633217675b60e21b81528690fd5b3461029d576000806003193601126107535761092e6116fd565b80546001600160a01b03198116825581906001600160a01b03167f8be0079c531659141344cd1fd0a4f28419497f9722a3daafe3b4186f6b6457e08280a380f35b3461029d57602036600319011261029d576020610996600435610991816102f1565b611d8d565b6040519015158152f35b3461029d57600036600319011261029d57600a546040516001600160a01b039091168152602090f35b3461029d5760408060031936011261029d576004906001600160401b0390823582811161029d576109fd9036908501610756565b93909260243590811161029d57610a179036908301610756565b600154909491936001600160a01b0392909183168015158181610be3575b50610bb657506003549081159788158099610ba2575b8015610b8a575b610a61575b61041f8888612024565b610a8691610a70913691611f1f565b602081015191604a604083015192015160601c90565b92909880610b80575b610b5c575050600254908382168015948186159182610b4f575b5050610b2057505060101b6001600160b01b03199081169283610acd575b80610a57565b610b10578290871603610ae1578080610ac7565b5163362304d360e11b81526001600160b01b031980871693820193845290911660208301529081906040010390fd5b8151634847901160e01b81528490fd5b8351631715315f60e31b81526001600160a01b0392831687820190815291909216602082015281900360400190fd5b8416141590508138610aa9565b8351634dfd1cdd60e11b815280870192835260208301919091529081906040010390fd5b5080821415610a8f565b5060025460101b6001600160b01b0319161515610a52565b506002546001600160a01b03161515610a4b565b825163708986dd60e11b8152338187019081526001600160a01b0390921660208301529081906040010390fd5b905033141538610a35565b3461029d57600036600319011261029d576020600554604051908152f35b3461029d57600036600319011261029d576000546040516001600160a01b039091168152602090f35b3461029d57602036600319011261029d57600435600052600760205260a0604060002060ff815491600181015490600460038201549101549160405194855260208501526040840152610c8d606084018383166104f8565b60081c1615156080820152f35b3461029d57600036600319011261029d57602069ffffffffffffffffffff60b01b60025460101b16604051908152f35b634e487b7160e01b600052603260045260246000fd5b3461029d57602036600319011261029d5760043560065481101561029d5760066000526000805160206123f683398151915201546040516001600160a01b039091168152602090f35b3461029d57602036600319011261029d577fd6ceddf6d2a22f21c7c81675c518004eff43bc5c8a6fc32a0b748e69d58671cd6020600435610d69816102f1565b610d716116fd565b600a80546001600160a01b0319166001600160a01b03929092169182179055604051908152a1005b3461029d57602036600319011261029d57600435610db6816102f1565b610dbe6116fd565b600b80546001600160a01b0319166001600160a01b0392909216919091179055005b3461029d57602036600319011261029d576004356001600160401b03811161029d57610e1361041f913690600401610756565b90610e1c6116fd565b612140565b3461029d57602036600319011261029d57600435610e3d6116fd565b600354816003557f0dbedcdf21925e053b4c574eae180d7f2883235ab4976ecc0873598a2a999b03600080a3005b3461029d57610e79366103cd565b9091610e8f816000526007602052604060002090565b90600480830193610ea1855460ff1690565b610eaa816104d8565b80156111ef57610eb9816104d8565b600381146111de57610eca816104d8565b6002811415806111ca575b6111b957610ee9610ee533611d8d565b1590565b6111a857610f26610f1f33610f08876000526008602052604060002090565b9060018060a01b0316600052602052604060002090565b5460ff1690565b61119757610f45610ee56003870154610f4036868c6117eb565b611ce1565b6111865780610f556001926104d8565b036110fa57839495600284950192828454148015906110e6575b611055575b50505050505b610fa2610f9533610f08846000526008602052604060002090565b805460ff19166001179055565b610fb6816000526009602052604060002090565b610fc08154611b34565b9055610fd6816000526009602052604060002090565b5460055490827f443f583469bc5b36b5724587be97cb2d0ed52ea1b8eea3d499e877e129cc4dd26040518061101a8633968360209093929193604081019481520152565b0390a3611031826000526009602052604060002090565b54101561103a57005b61105061041f9361010061ff0019825416179055565b611c18565b6110cd6110d99161107685856000805160206123d6833981519152986118ec565b4260018a0155895460ff19166002178a555b61109187611de5565b867ffc5e845be2c15171c338768fef89c94ea5d837482cc700be1016f266b5522001604051806110c3338a8a84611972565b0390a25442611941565b6040519384938461199b565b0390a28038808080610f74565b506110f5610ee5858585611d28565b610f6f565b600184019561110c8754845490611941565b421015611175578495966002859601611129610ee5828686611d28565b611139575b505050505050610f7a565b6000805160206123d6833981519152946111679261115b86866110cd956118ec565b42905561109187611de5565b0390a280388080808061112e565b60405163234c0ffd60e21b81528390fd5b604051630331a49d60e51b81528390fd5b60405163080fc0bd60e11b81528390fd5b6040516390db74b960e01b81528390fd5b6040516353f7b14960e11b81528390fd5b506111d4816104d8565b6001811415610ed5565b6040516336ab81e160e11b81528390fd5b6040516321c4e35760e21b81528390fd5b3461029d5761120e366103cd565b916112176116fd565b61122b816000526007602052604060002090565b9161123a600484015460ff1690565b611243816104d8565b80156112b857806112556003926104d8565b146112a657611270610ee56003850154610f403688866117eb565b6112945761041f9361128591600285016118ec565b42600183015561105081611de5565b604051630331a49d60e51b8152600490fd5b6040516336ab81e160e11b8152600490fd5b6040516321c4e35760e21b8152600490fd5b3461029d57602036600319011261029d576004356112e7816102f1565b6112ef6116fd565b600280546001600160a01b039283166001600160a01b0319821681179092559091167f3321cda85c145617e47418aa14255e9dcbec53a753778e57591703b89a3cad31600080a3005b3461029d57602036600319011261029d57600435611355816102f1565b61135d6116fd565b6001546001600160a01b03918216919082156113ac575b6001600160a01b031981168317600155167f039ad854736757070884dd787ef1a7f58db33546639d1f3efddcf4a33fb8997e600080a3005b7f704da7db165c79c1e33d542c079333bbde970a733032d2f95fec8fb7d770cbf76060604051602081526020808201527f466f727761726465722073657420746f207a65726f202d20494e5345435552456040820152a1611374565b3461029d57604036600319011261029d576001600160401b0360043581811161029d5761143990369060040161039d565b90602435926114466116fd565b8215158061153e575b61152c57821161152757600160401b8211611527576114748260065481600655611889565b80600660005260005b8381106114fc577f8b77fc0c41e5e6289d444110fa28b136e2bc46cdda4c5e5b80eea22ed8dc3b746114f7867f7a7b5af5606cac99657636707b7a3a267438992c76e16d75810a6bee0d57f18a87876114d584600555565b6114e460405192839283611e78565b0390a16040519081529081906020820190565b0390a1005b600190602083359361150d856102f1565b0192816000805160206123f683398151915201550161147d565b611729565b60405163aabd5a0960e01b8152600490fd5b5083158061144f575082841161144f565b3461029d57602036600319011261029d5760048035611570610ee533611b43565b61161a57611588816000526007602052604060002090565b906115968383015460ff1690565b61159f816104d8565b8015611609576115ae816104d8565b600281036115f857806115c26003926104d8565b146111de576115d76001830154845490611941565b42106115e75761041f9250611c18565b60405163e52e798f60e01b81528390fd5b6040516353f7b14960e11b81528490fd5b6040516321c4e35760e21b81528490fd5b5060405163d756a20760e01b8152fd5b3461029d57600036600319011261029d57600b546040516001600160a01b039091168152602090f35b3461029d57602036600319011261029d57600435611670816102f1565b6116786116fd565b6001600160a01b0390811680156116c657600080546001600160a01b03198116831782559092167f8be0079c531659141344cd1fd0a4f28419497f9722a3daafe3b4186f6b6457e08380a380f35b604051631e4fbdf760e01b815260006004820152602490fd5b3461029d57600036600319011261029d576020600354604051908152f35b6000546001600160a01b0316330361171157565b60405163118cdaa760e01b8152336004820152602490fd5b634e487b7160e01b600052604160045260246000fd5b60c081019081106001600160401b0382111761152757604052565b6001600160401b03811161152757604052565b604081019081106001600160401b0382111761152757604052565b90601f801991011681019081106001600160401b0382111761152757604052565b6040513d6000823e3d90fd5b90826040936080929796959760608552816060860152838501376000828285010152601f80199101168201019460208201520152565b9092916001600160401b038411611527578360051b604051926020809461181482850182611788565b809781520191810192831161029d57905b8282106118325750505050565b81358152908301908301611825565b634e487b7160e01b600052601160045260246000fd5b908160011b918083046002149015171561186d57565b611841565b81811061187d575050565b60008155600101611872565b808210611894575050565b6118b69160066000526000805160206123f68339815191529182019101611872565b565b90600160401b8111611527578154908083558181106118d657505050565b6118b69260005260206000209182019101611872565b906001600160401b0383116115275761190583836118b8565b906000526020806000209060005b848110611921575050505050565b83358382015592810192600101611913565b906001820180921161186d57565b9190820180921161186d57565b81835290916001600160fb1b03831161029d5760209260051b809284830137010190565b9160209161198b9195949560408552604085019161194e565b6001600160a01b03909416910152565b9392916020916119b39160408752604087019161194e565b930152565b9092916119cf826000526007602052604060002090565b936004948581016119e1815460ff1690565b6119ea816104d8565b8015611b23576119f9816104d8565b60038114611b125780611a0d6001926104d8565b14611ab9575460029060ff16611a22816104d8565b03611aa8576001810190611a398254885490611941565b421015611a9757611a56610ee56003830154610f403688886117eb565b611a86576000805160206123d6833981519152949596611a819261115b868660026110cd96016118ec565b0390a2565b604051630331a49d60e51b81528790fd5b60405163234c0ffd60e21b81528790fd5b6040516353f7b14960e11b81528690fd5b90611ad0610ee56003830154610f403688886117eb565b611a86576000805160206123d6833981519152949596611088611a819383611aff888860026110cd98016118ec565b600142910155600260ff19825416179055565b6040516336ab81e160e11b81528890fd5b6040516321c4e35760e21b81528890fd5b600019811461186d5760010190565b6000546001600160a01b038281169181168214611bc257600b54169081159182159182611bb8575b5050611ba157600654159182159081611ba8575b50611ba15781611b99575b50611b9457600090565b600190565b905038611b8a565b5050600190565b611bb29150611d8d565b38611b7f565b1490503880611b6b565b505050600190565b90815480825260208092019260005281600020916000905b828210611bf0575050505090565b835485529384019360019384019390910190611be2565b906020610575928181520190611bca565b60048201805460ff19166003179055907f00000000000000000000000000000000000000000000000000000000000000006001600160a01b031690600201813b1561029d5760006040518093633124a62b60e21b825285600483015260406024830152818381611c8b6044820188611bca565b03925af19081156108dd577f08fa4e1452e81caa286f92a5c26f4f713d231fd5585c56d9920451d8263ae2ed92611a8192611cce575b5060405191829182611c07565b806108d1611cdb9261175a565b38611cc1565b9190825103611d2257600091825b8151841015611d1b5760208460051b83010151810180911161186d57611d159093611b34565b92611cef565b1515925050565b60009150565b90918054808403611d845760005b848110611d47575050505050600190565b81811015611d7f578260005280602060002001548160051b85013503611d7557611d7090611b34565b611d36565b5050505050600090565b610cca565b50505050600090565b600090819060068054925b838110611da6575050505090565b8185526000805160206123f68339815191528101546001600160a01b03848116911614611ddb57611dd690611b34565b611d98565b5050505050600190565b60005b60068054821015611e3d575060008281526008602090815260408083206000805160206123f68339815191528501546001600160a01b031684529091529020805460ff19169055611e3890611b34565b611de8565b5050611e6c6004916000611e5b826000526009602052604060002090565b556000526007602052604060002090565b01805461ff0019169055565b90916040602092828482018583525201929160005b828110611e9b575050505090565b9091929382806001928735611eaf816102f1565b848060a01b03168152019501910192919092611e8d565b6000526007602052604060002060ff60048201541660048110156104e257600203611efe5760010154600454810180911161186d5790565b50600090565b6001600160401b03811161152757601f01601f191660200190565b929192611f2b82611f04565b91611f396040519384611788565b82948184528183011161029d578281602093846000960137010152565b919060408382031261029d578235926020810135906001600160401b03821161029d57019080601f8301121561029d57816020610575933591016117eb565b8151916001600160401b03831161152757611fb083836118b8565b602080910191600052806000209060005b848110611fcf575050505050565b83518382015592810192600101611fc1565b92919060408401604085528151809152606085019060208093019060005b848282106120105750505050930152565b835185529384019390920191600101611fff565b61203091810190611f56565b612044826000526007602052604060002090565b906004820191612055835460ff1690565b61205e816104d8565b80156112b857806120706003926104d8565b146112a657612086610ee5600383015484611ce1565b611294576000805160206123d68339815191529281611aff8460026120ab9501611f95565b6120b483611de5565b6120c060045442611941565b90611a8160405192839283611fe1565b908092918237016000815290565b604051906120eb8261176d565b600a825260203681840137565b908151811015611d7f570160200190565b906020825192015169ffffffffffffffffffff60b01b9081811693600a811061213157505050565b600a0360031b82901b16169150565b60025490919060101b6001600160b01b03191691811561226e576020906040518061216f8160009687956120d0565b039060025afa156108dd576121ab6121986121a683516040519283916020830160209181520190565b03601f198101835282611788565b6122e5565b6121b36120de565b90825b600a81106122385750506121cc6121fd91612109565b6002805469ffffffffffffffffffff60a01b191660109290921c69ffffffffffffffffffff60a01b16919091179055565b60025460101b6001600160b01b03199081169216907f1e7ddd09d504c82dcfc784a464b167469f5aad967606ec4822d848ef9141dfa59080a3565b8061225761224961226993856120f8565b516001600160f81b03191690565b851a61226382866120f8565b53611b34565b6121b6565b50506002805469ffffffffffffffffffff60a01b191690556000906001600160b01b0319167f1e7ddd09d504c82dcfc784a464b167469f5aad967606ec4822d848ef9141dfa58280a3565b604051906122c68261176d565b601082526f181899199a1a9b1b9c1cb0b131b232b360811b6020830152565b906122f08251611857565b6122f981611f04565b906123076040519283611788565b808252612316601f1991611f04565b01366020830137600092835b81518110156123ce576123c99061237161224961233d6122b9565b61236b61236561235f612353612249888b6120f8565b60041c600f60f81b1690565b60f81c90565b60ff1690565b906120f8565b61238761237d83611857565b91881a91866120f8565b536123b56122496123966122b9565b61236b612365600f60f81b6123ae612249888b6120f8565b1660f81c90565b61226361237d6123c484611857565b611933565b612322565b509092505056fee2c02bd9ed13a4523e9bd53a88191407d3d5631253252ffe56fe560d6214647df652222313e28459528d920b65115c16c04f3efc82aaedc97be59f3f377c0d3fa2646970667358221220c28a5bb73d47a2384e484cb43df9b312d9bc860df52c578db6688405cbc8829464736f6c63430008140033",
  "devdoc": {
    "details": "Architecture:  1. `initializeMarket()` prepares a CTF condition and emits `MarketInitialized` (triggers CRE).  2. CRE detects the event, calls Gemini AI, then submits `onReport(metadata, report)`.  3. The adapter starts a `disputeWindow` timer and emits `ResolutionProposed`.  4. After the window, an authorized finalizer calls `finalizeResolution()` to call `ctf.reportPayouts()`.  5. Before the window elapses (public finalize):     - The contract owner can `adminOverride()` to replace the proposed payouts.     - The multisig (if set) can call `multisigOverride()` which requires M-of-N signers.  6. Owner / multisig bypass (no need to wait for CRE or resolution time):     - `adminResolve()` — owner sets payouts and resolves immediately (Active or Proposed, any time).     - `adminOverride()` — also allowed while Active to start a proposal + dispute window without CRE.     - `multisigOverride()` — signers may begin or complete resolution while Active (first approvals       move the market to Proposed and open the usual dispute window for public finalize). Key invariants:  - AiCTFAdapter is the sole oracle address in every `prepareCondition()` call.  - No market string metadata is stored on-chain — only the IPFS CID via events.  - `finalizeResolution` requires the dispute window to elapse; caller must be owner, multisig signer,    upkeep finalizer, or any address when no multisig/upkeep is configured (local dev).",
    "errors": {
      "OwnableInvalidOwner(address)": [
        {
          "details": "The owner is not a valid owner account. (eg. `address(0)`)"
        }
      ],
      "OwnableUnauthorizedAccount(address)": [
        {
          "details": "The caller account is not authorized to perform an operation."
        }
      ]
    },
    "kind": "dev",
    "methods": {
      "adminOverride(bytes32,uint256[])": {
        "details": "While Active: sets status to Proposed and opens the dispute window (no CRE required).      While Proposed: only callable before the dispute window ends (same as before).",
        "params": {
          "payouts": "Payout array for the new proposal.",
          "questionId": "The market to override."
        }
      },
      "adminResolve(bytes32,uint256[])": {
        "details": "Works while market is Active (before CRE) or Proposed. Bypasses resolution time,      dispute window, and CRE. Does not require a prior AI proposal.",
        "params": {
          "payouts": "Payout numerators per outcome (same semantics as CTF `reportPayouts`).",
          "questionId": "The market to resolve."
        }
      },
      "constructor": {
        "params": {
          "_ctf": "Address of the deployed ConditionalTokens contract.",
          "_disputeWindow": "Seconds after a proposal before it can be finalized.",
          "_forwarderAddress": "Chainlink CRE forwarder (only address allowed to call onReport).",
          "_multisigSigners": "Initial list of multisig signer addresses.",
          "_multisigThreshold": "Minimum approvals required (must be ≤ _multisigSigners.length)."
        }
      },
      "finalizeResolution(bytes32)": {
        "details": "Callable by owner, multisig signers, or the registered upkeep finalizer.      When no multisig and no upkeep are configured (dev), any address may finalize.",
        "params": {
          "questionId": "The market to finalize."
        }
      },
      "initializeMarket(bytes32,string,uint256,uint256)": {
        "details": "Only callable by the MarketRegistry contract.      Emits MarketInitialized — this event is the CRE log trigger.",
        "params": {
          "ipfsCid": "IPFS CID of the JSON metadata — NOT stored on-chain, emitted only.",
          "outcomeCount": "Number of outcome slots (2 for binary markets).",
          "questionId": "keccak256(abi.encodePacked(ipfsCid))",
          "resolutionTime": "Unix timestamp when CRE should attempt resolution."
        }
      },
      "multisigOverride(bytes32,uint256[])": {
        "details": "Once `multisigThreshold` approvals are collected, the resolution is finalized      immediately — bypassing the remaining dispute window.      While Active: signers pin payouts, the market moves to Proposed, then approvals accrue;      meeting threshold finalizes immediately (same as after a CRE proposal).      While Proposed: the dispute window must still be open (same as before).",
        "params": {
          "payouts": "The new payout array all signers are approving.                    All signers must supply identical payouts; any mismatch resets approvals.",
          "questionId": "The market question ID."
        }
      },
      "owner()": {
        "details": "Returns the address of the current owner."
      },
      "renounceOwnership()": {
        "details": "Leaves the contract without owner. It will not be possible to call `onlyOwner` functions. Can only be called by the current owner. NOTE: Renouncing ownership will leave the contract without an owner, thereby disabling any functionality that is only available to the owner."
      },
      "supportsInterface(bytes4)": {
        "details": "Returns true if this contract implements the interface defined by `interfaceId`. See the corresponding https://eips.ethereum.org/EIPS/eip-165#how-interfaces-are-identified[EIP section] to learn more about how these ids are created. This function call must use less than 30 000 gas."
      },
      "transferOwnership(address)": {
        "details": "Transfers ownership of the contract to a new account (`newOwner`). Can only be called by the current owner."
      }
    },
    "title": "AiCTFAdapter",
    "version": 1
  },
  "userdoc": {
    "kind": "user",
    "methods": {
      "adminOverride(bytes32,uint256[])": {
        "notice": "Owner replaces payouts and (re)starts the dispute window without resolving."
      },
      "adminResolve(bytes32,uint256[])": {
        "notice": "Owner may resolve immediately with the given payouts."
      },
      "ctf()": {
        "notice": "The Gnosis Conditional Token Framework contract"
      },
      "disputeWindow()": {
        "notice": "Duration of the dispute window after a resolution is proposed"
      },
      "finalizeResolution(bytes32)": {
        "notice": "Finalizes a proposed resolution after the dispute window elapses."
      },
      "initializeMarket(bytes32,string,uint256,uint256)": {
        "notice": "Registers a new prediction market with the CTF and Chainlink CRE."
      },
      "multisigApprovalCount(bytes32)": {
        "notice": "questionId → current multisig approval count for a proposed override"
      },
      "multisigApprovals(bytes32,address)": {
        "notice": "questionId → signer → has approved the pending proposal override"
      },
      "multisigOverride(bytes32,uint256[])": {
        "notice": "A multisig signer approves the current pending proposal override."
      },
      "multisigSigners(uint256)": {
        "notice": "List of authorised multisig signers"
      },
      "multisigThreshold()": {
        "notice": "Minimum number of multisig signers required to approve an override"
      },
      "questions(bytes32)": {
        "notice": "questionId → MarketQuestion"
      },
      "registry()": {
        "notice": "Address of the MarketRegistry (only it may call initializeMarket)"
      },
      "setRegistry(address)": {
        "notice": "Only the deployer (owner) can set the registry address."
      },
      "upkeepFinalizer()": {
        "notice": "Optional Chainlink Automation upkeep allowed to call finalizeResolution"
      }
    },
    "notice": "Oracle adapter that resolves Conditional Token Framework markets via Chainlink CRE + Gemini AI.",
    "version": 1
  },
  "storageLayout": {
    "storage": [
      {
        "astId": 8,
        "contract": "contracts/AiCTFAdapter.sol:AiCTFAdapter",
        "label": "_owner",
        "offset": 0,
        "slot": "0",
        "type": "t_address"
      },
      {
        "astId": 7973,
        "contract": "contracts/AiCTFAdapter.sol:AiCTFAdapter",
        "label": "s_forwarderAddress",
        "offset": 0,
        "slot": "1",
        "type": "t_address"
      },
      {
        "astId": 7975,
        "contract": "contracts/AiCTFAdapter.sol:AiCTFAdapter",
        "label": "s_expectedAuthor",
        "offset": 0,
        "slot": "2",
        "type": "t_address"
      },
      {
        "astId": 7977,
        "contract": "contracts/AiCTFAdapter.sol:AiCTFAdapter",
        "label": "s_expectedWorkflowName",
        "offset": 20,
        "slot": "2",
        "type": "t_bytes10"
      },
      {
        "astId": 7979,
        "contract": "contracts/AiCTFAdapter.sol:AiCTFAdapter",
        "label": "s_expectedWorkflowId",
        "offset": 0,
        "slot": "3",
        "type": "t_bytes32"
      },
      {
        "astId": 3116,
        "contract": "contracts/AiCTFAdapter.sol:AiCTFAdapter",
        "label": "disputeWindow",
        "offset": 0,
        "slot": "4",
        "type": "t_uint256"
      },
      {
        "astId": 3119,
        "contract": "contracts/AiCTFAdapter.sol:AiCTFAdapter",
        "label": "multisigThreshold",
        "offset": 0,
        "slot": "5",
        "type": "t_uint256"
      },
      {
        "astId": 3123,
        "contract": "contracts/AiCTFAdapter.sol:AiCTFAdapter",
        "label": "multisigSigners",
        "offset": 0,
        "slot": "6",
        "type": "t_array(t_address)dyn_storage"
      },
      {
        "astId": 3129,
        "contract": "contracts/AiCTFAdapter.sol:AiCTFAdapter",
        "label": "questions",
        "offset": 0,
        "slot": "7",
        "type": "t_mapping(t_bytes32,t_struct(MarketQuestion)3109_storage)"
      },
      {
        "astId": 3136,
        "contract": "contracts/AiCTFAdapter.sol:AiCTFAdapter",
        "label": "multisigApprovals",
        "offset": 0,
        "slot": "8",
        "type": "t_mapping(t_bytes32,t_mapping(t_address,t_bool))"
      },
      {
        "astId": 3141,
        "contract": "contracts/AiCTFAdapter.sol:AiCTFAdapter",
        "label": "multisigApprovalCount",
        "offset": 0,
        "slot": "9",
        "type": "t_mapping(t_bytes32,t_uint256)"
      },
      {
        "astId": 3144,
        "contract": "contracts/AiCTFAdapter.sol:AiCTFAdapter",
        "label": "registry",
        "offset": 0,
        "slot": "10",
        "type": "t_address"
      },
      {
        "astId": 3147,
        "contract": "contracts/AiCTFAdapter.sol:AiCTFAdapter",
        "label": "upkeepFinalizer",
        "offset": 0,
        "slot": "11",
        "type": "t_address"
      }
    ],
    "types": {
      "t_address": {
        "encoding": "inplace",
        "label": "address",
        "numberOfBytes": "20"
      },
      "t_array(t_address)dyn_storage": {
        "base": "t_address",
        "encoding": "dynamic_array",
        "label": "address[]",
        "numberOfBytes": "32"
      },
      "t_array(t_uint256)dyn_storage": {
        "base": "t_uint256",
        "encoding": "dynamic_array",
        "label": "uint256[]",
        "numberOfBytes": "32"
      },
      "t_bool": {
        "encoding": "inplace",
        "label": "bool",
        "numberOfBytes": "1"
      },
      "t_bytes10": {
        "encoding": "inplace",
        "label": "bytes10",
        "numberOfBytes": "10"
      },
      "t_bytes32": {
        "encoding": "inplace",
        "label": "bytes32",
        "numberOfBytes": "32"
      },
      "t_enum(MarketStatus)3094": {
        "encoding": "inplace",
        "label": "enum AiCTFAdapter.MarketStatus",
        "numberOfBytes": "1"
      },
      "t_mapping(t_address,t_bool)": {
        "encoding": "mapping",
        "key": "t_address",
        "label": "mapping(address => bool)",
        "numberOfBytes": "32",
        "value": "t_bool"
      },
      "t_mapping(t_bytes32,t_mapping(t_address,t_bool))": {
        "encoding": "mapping",
        "key": "t_bytes32",
        "label": "mapping(bytes32 => mapping(address => bool))",
        "numberOfBytes": "32",
        "value": "t_mapping(t_address,t_bool)"
      },
      "t_mapping(t_bytes32,t_struct(MarketQuestion)3109_storage)": {
        "encoding": "mapping",
        "key": "t_bytes32",
        "label": "mapping(bytes32 => struct AiCTFAdapter.MarketQuestion)",
        "numberOfBytes": "32",
        "value": "t_struct(MarketQuestion)3109_storage"
      },
      "t_mapping(t_bytes32,t_uint256)": {
        "encoding": "mapping",
        "key": "t_bytes32",
        "label": "mapping(bytes32 => uint256)",
        "numberOfBytes": "32",
        "value": "t_uint256"
      },
      "t_struct(MarketQuestion)3109_storage": {
        "encoding": "inplace",
        "label": "struct AiCTFAdapter.MarketQuestion",
        "members": [
          {
            "astId": 3096,
            "contract": "contracts/AiCTFAdapter.sol:AiCTFAdapter",
            "label": "resolutionTime",
            "offset": 0,
            "slot": "0",
            "type": "t_uint256"
          },
          {
            "astId": 3098,
            "contract": "contracts/AiCTFAdapter.sol:AiCTFAdapter",
            "label": "proposedAt",
            "offset": 0,
            "slot": "1",
            "type": "t_uint256"
          },
          {
            "astId": 3101,
            "contract": "contracts/AiCTFAdapter.sol:AiCTFAdapter",
            "label": "proposedPayouts",
            "offset": 0,
            "slot": "2",
            "type": "t_array(t_uint256)dyn_storage"
          },
          {
            "astId": 3103,
            "contract": "contracts/AiCTFAdapter.sol:AiCTFAdapter",
            "label": "outcomeCount",
            "offset": 0,
            "slot": "3",
            "type": "t_uint256"
          },
          {
            "astId": 3106,
            "contract": "contracts/AiCTFAdapter.sol:AiCTFAdapter",
            "label": "status",
            "offset": 0,
            "slot": "4",
            "type": "t_enum(MarketStatus)3094"
          },
          {
            "astId": 3108,
            "contract": "contracts/AiCTFAdapter.sol:AiCTFAdapter",
            "label": "multisigApproved",
            "offset": 1,
            "slot": "4",
            "type": "t_bool"
          }
        ],
        "numberOfBytes": "160"
      },
      "t_uint256": {
        "encoding": "inplace",
        "label": "uint256",
        "numberOfBytes": "32"
      }
    }
  }
}