{
  "address": "0xB04Fb403928C97a94C7ab7a850c970e67bAF1dcF",
  "abi": [
    {
      "inputs": [
        {
          "internalType": "address",
          "name": "_ctf",
          "type": "address"
        },
        {
          "internalType": "address",
          "name": "_collateral",
          "type": "address"
        }
      ],
      "stateMutability": "nonpayable",
      "type": "constructor"
    },
    {
      "inputs": [],
      "name": "AmountZero",
      "type": "error"
    },
    {
      "inputs": [
        {
          "internalType": "uint256",
          "name": "requested",
          "type": "uint256"
        },
        {
          "internalType": "uint256",
          "name": "available",
          "type": "uint256"
        }
      ],
      "name": "InsufficientBalance",
      "type": "error"
    },
    {
      "inputs": [],
      "name": "InsufficientLiquidity",
      "type": "error"
    },
    {
      "inputs": [
        {
          "internalType": "uint256",
          "name": "outcome",
          "type": "uint256"
        },
        {
          "internalType": "uint256",
          "name": "requested",
          "type": "uint256"
        }
      ],
      "name": "InsufficientReserve",
      "type": "error"
    },
    {
      "inputs": [],
      "name": "InvalidPercentage",
      "type": "error"
    },
    {
      "inputs": [],
      "name": "InvalidProbability",
      "type": "error"
    },
    {
      "inputs": [],
      "name": "NotLPOwner",
      "type": "error"
    },
    {
      "inputs": [],
      "name": "OnlyFromCTF",
      "type": "error"
    },
    {
      "inputs": [
        {
          "internalType": "address",
          "name": "owner",
          "type": "address"
        }
      ],
      "name": "OwnableInvalidOwner",
      "type": "error"
    },
    {
      "inputs": [
        {
          "internalType": "address",
          "name": "account",
          "type": "address"
        }
      ],
      "name": "OwnableUnauthorizedAccount",
      "type": "error"
    },
    {
      "inputs": [
        {
          "internalType": "bytes32",
          "name": "conditionId",
          "type": "bytes32"
        }
      ],
      "name": "PoolAlreadyExists",
      "type": "error"
    },
    {
      "inputs": [
        {
          "internalType": "bytes32",
          "name": "conditionId",
          "type": "bytes32"
        }
      ],
      "name": "PoolNotFound",
      "type": "error"
    },
    {
      "inputs": [],
      "name": "PoolNotResolved",
      "type": "error"
    },
    {
      "inputs": [],
      "name": "PoolResolved_",
      "type": "error"
    },
    {
      "inputs": [],
      "name": "ReentrancyGuardReentrantCall",
      "type": "error"
    },
    {
      "inputs": [],
      "name": "TransferFailed",
      "type": "error"
    },
    {
      "inputs": [],
      "name": "WrongUsdcAmount",
      "type": "error"
    },
    {
      "anonymous": false,
      "inputs": [
        {
          "indexed": true,
          "internalType": "bytes32",
          "name": "conditionId",
          "type": "bytes32"
        },
        {
          "indexed": true,
          "internalType": "address",
          "name": "provider",
          "type": "address"
        },
        {
          "indexed": false,
          "internalType": "uint256",
          "name": "usdcAmount",
          "type": "uint256"
        },
        {
          "indexed": false,
          "internalType": "uint256",
          "name": "tokenAmount",
          "type": "uint256"
        }
      ],
      "name": "LiquidityAdded",
      "type": "event"
    },
    {
      "anonymous": false,
      "inputs": [
        {
          "indexed": true,
          "internalType": "bytes32",
          "name": "conditionId",
          "type": "bytes32"
        },
        {
          "indexed": true,
          "internalType": "address",
          "name": "provider",
          "type": "address"
        },
        {
          "indexed": false,
          "internalType": "uint256",
          "name": "usdcAmount",
          "type": "uint256"
        },
        {
          "indexed": false,
          "internalType": "uint256",
          "name": "tokenAmount",
          "type": "uint256"
        }
      ],
      "name": "LiquidityRemoved",
      "type": "event"
    },
    {
      "anonymous": false,
      "inputs": [
        {
          "indexed": true,
          "internalType": "address",
          "name": "previousOwner",
          "type": "address"
        },
        {
          "indexed": true,
          "internalType": "address",
          "name": "newOwner",
          "type": "address"
        }
      ],
      "name": "OwnershipTransferred",
      "type": "event"
    },
    {
      "anonymous": false,
      "inputs": [
        {
          "indexed": true,
          "internalType": "bytes32",
          "name": "conditionId",
          "type": "bytes32"
        },
        {
          "indexed": false,
          "internalType": "uint256",
          "name": "yesTokenId",
          "type": "uint256"
        },
        {
          "indexed": false,
          "internalType": "uint256",
          "name": "noTokenId",
          "type": "uint256"
        },
        {
          "indexed": false,
          "internalType": "uint256",
          "name": "usdcCollateral",
          "type": "uint256"
        }
      ],
      "name": "PoolCreated",
      "type": "event"
    },
    {
      "anonymous": false,
      "inputs": [
        {
          "indexed": true,
          "internalType": "bytes32",
          "name": "conditionId",
          "type": "bytes32"
        }
      ],
      "name": "PoolResolved",
      "type": "event"
    },
    {
      "anonymous": false,
      "inputs": [
        {
          "indexed": true,
          "internalType": "bytes32",
          "name": "conditionId",
          "type": "bytes32"
        },
        {
          "indexed": true,
          "internalType": "address",
          "name": "buyer",
          "type": "address"
        },
        {
          "indexed": false,
          "internalType": "uint256",
          "name": "outcome",
          "type": "uint256"
        },
        {
          "indexed": false,
          "internalType": "uint256",
          "name": "tokenAmount",
          "type": "uint256"
        },
        {
          "indexed": false,
          "internalType": "uint256",
          "name": "usdcPaid",
          "type": "uint256"
        }
      ],
      "name": "TokensBought",
      "type": "event"
    },
    {
      "anonymous": false,
      "inputs": [
        {
          "indexed": true,
          "internalType": "bytes32",
          "name": "conditionId",
          "type": "bytes32"
        },
        {
          "indexed": true,
          "internalType": "address",
          "name": "seller",
          "type": "address"
        },
        {
          "indexed": false,
          "internalType": "uint256",
          "name": "outcome",
          "type": "uint256"
        },
        {
          "indexed": false,
          "internalType": "uint256",
          "name": "tokenAmount",
          "type": "uint256"
        },
        {
          "indexed": false,
          "internalType": "uint256",
          "name": "usdcReceived",
          "type": "uint256"
        }
      ],
      "name": "TokensSold",
      "type": "event"
    },
    {
      "inputs": [
        {
          "internalType": "bytes32",
          "name": "conditionId",
          "type": "bytes32"
        },
        {
          "internalType": "uint256",
          "name": "usdcAmount",
          "type": "uint256"
        }
      ],
      "name": "addLiquidity",
      "outputs": [],
      "stateMutability": "nonpayable",
      "type": "function"
    },
    {
      "inputs": [
        {
          "internalType": "uint256",
          "name": "",
          "type": "uint256"
        }
      ],
      "name": "allPools",
      "outputs": [
        {
          "internalType": "bytes32",
          "name": "",
          "type": "bytes32"
        }
      ],
      "stateMutability": "view",
      "type": "function"
    },
    {
      "inputs": [
        {
          "internalType": "bytes32",
          "name": "conditionId",
          "type": "bytes32"
        },
        {
          "internalType": "uint256",
          "name": "outcome",
          "type": "uint256"
        },
        {
          "internalType": "uint256",
          "name": "tokenAmount",
          "type": "uint256"
        },
        {
          "internalType": "uint256",
          "name": "maxUsdcIn",
          "type": "uint256"
        }
      ],
      "name": "buyTokens",
      "outputs": [],
      "stateMutability": "nonpayable",
      "type": "function"
    },
    {
      "inputs": [],
      "name": "collateral",
      "outputs": [
        {
          "internalType": "contract IERC20",
          "name": "",
          "type": "address"
        }
      ],
      "stateMutability": "view",
      "type": "function"
    },
    {
      "inputs": [
        {
          "internalType": "bytes32",
          "name": "conditionId",
          "type": "bytes32"
        },
        {
          "internalType": "uint256",
          "name": "yesTokenId",
          "type": "uint256"
        },
        {
          "internalType": "uint256",
          "name": "noTokenId",
          "type": "uint256"
        },
        {
          "internalType": "uint256",
          "name": "usdcAmount",
          "type": "uint256"
        },
        {
          "internalType": "uint8",
          "name": "initialYesProbability",
          "type": "uint8"
        },
        {
          "internalType": "uint8",
          "name": "percentageToLock",
          "type": "uint8"
        }
      ],
      "name": "createPool",
      "outputs": [],
      "stateMutability": "nonpayable",
      "type": "function"
    },
    {
      "inputs": [],
      "name": "ctf",
      "outputs": [
        {
          "internalType": "contract ConditionalTokens",
          "name": "",
          "type": "address"
        }
      ],
      "stateMutability": "view",
      "type": "function"
    },
    {
      "inputs": [],
      "name": "getAllPools",
      "outputs": [
        {
          "internalType": "bytes32[]",
          "name": "",
          "type": "bytes32[]"
        }
      ],
      "stateMutability": "view",
      "type": "function"
    },
    {
      "inputs": [
        {
          "internalType": "bytes32",
          "name": "conditionId",
          "type": "bytes32"
        },
        {
          "internalType": "uint256",
          "name": "outcome",
          "type": "uint256"
        },
        {
          "internalType": "uint256",
          "name": "tokenAmount",
          "type": "uint256"
        }
      ],
      "name": "getBuyPrice",
      "outputs": [
        {
          "internalType": "uint256",
          "name": "",
          "type": "uint256"
        }
      ],
      "stateMutability": "view",
      "type": "function"
    },
    {
      "inputs": [
        {
          "internalType": "bytes32",
          "name": "conditionId",
          "type": "bytes32"
        }
      ],
      "name": "getLpNav",
      "outputs": [
        {
          "internalType": "uint256",
          "name": "",
          "type": "uint256"
        }
      ],
      "stateMutability": "view",
      "type": "function"
    },
    {
      "inputs": [
        {
          "internalType": "bytes32",
          "name": "conditionId",
          "type": "bytes32"
        }
      ],
      "name": "getLpPnLSummary",
      "outputs": [
        {
          "components": [
            {
              "internalType": "uint256",
              "name": "totalDeposited",
              "type": "uint256"
            },
            {
              "internalType": "uint256",
              "name": "totalWithdrawn",
              "type": "uint256"
            },
            {
              "internalType": "uint256",
              "name": "tradingRevenue",
              "type": "uint256"
            },
            {
              "internalType": "uint256",
              "name": "poolInventory",
              "type": "uint256"
            },
            {
              "internalType": "uint256",
              "name": "walletInventory",
              "type": "uint256"
            },
            {
              "internalType": "uint256",
              "name": "nav",
              "type": "uint256"
            },
            {
              "internalType": "int256",
              "name": "netPnl",
              "type": "int256"
            }
          ],
          "internalType": "struct PredictionMarketAMM.LpPnLSummary",
          "name": "",
          "type": "tuple"
        }
      ],
      "stateMutability": "view",
      "type": "function"
    },
    {
      "inputs": [
        {
          "internalType": "bytes32",
          "name": "conditionId",
          "type": "bytes32"
        },
        {
          "internalType": "address",
          "name": "lp",
          "type": "address"
        }
      ],
      "name": "getLpWalletInventoryValue",
      "outputs": [
        {
          "internalType": "uint256",
          "name": "",
          "type": "uint256"
        }
      ],
      "stateMutability": "view",
      "type": "function"
    },
    {
      "inputs": [
        {
          "internalType": "bytes32",
          "name": "conditionId",
          "type": "bytes32"
        }
      ],
      "name": "getPool",
      "outputs": [
        {
          "components": [
            {
              "internalType": "uint256",
              "name": "yesTokenId",
              "type": "uint256"
            },
            {
              "internalType": "uint256",
              "name": "noTokenId",
              "type": "uint256"
            },
            {
              "internalType": "uint256",
              "name": "yesReserve",
              "type": "uint256"
            },
            {
              "internalType": "uint256",
              "name": "noReserve",
              "type": "uint256"
            },
            {
              "internalType": "uint256",
              "name": "usdcCollateral",
              "type": "uint256"
            },
            {
              "internalType": "uint256",
              "name": "lpTradingRevenue",
              "type": "uint256"
            },
            {
              "internalType": "uint256",
              "name": "lpTotalDeposited",
              "type": "uint256"
            },
            {
              "internalType": "uint256",
              "name": "lpTotalWithdrawn",
              "type": "uint256"
            },
            {
              "internalType": "uint256",
              "name": "initialYesProbability",
              "type": "uint256"
            },
            {
              "internalType": "uint256",
              "name": "percentageLocked",
              "type": "uint256"
            },
            {
              "internalType": "address",
              "name": "lpOwner",
              "type": "address"
            },
            {
              "internalType": "bool",
              "name": "resolved",
              "type": "bool"
            },
            {
              "internalType": "bool",
              "name": "exists",
              "type": "bool"
            }
          ],
          "internalType": "struct PredictionMarketAMM.Pool",
          "name": "",
          "type": "tuple"
        }
      ],
      "stateMutability": "view",
      "type": "function"
    },
    {
      "inputs": [
        {
          "internalType": "bytes32",
          "name": "conditionId",
          "type": "bytes32"
        }
      ],
      "name": "getPoolInventoryValue",
      "outputs": [
        {
          "internalType": "uint256",
          "name": "",
          "type": "uint256"
        }
      ],
      "stateMutability": "view",
      "type": "function"
    },
    {
      "inputs": [
        {
          "internalType": "bytes32",
          "name": "conditionId",
          "type": "bytes32"
        },
        {
          "internalType": "uint256",
          "name": "outcome",
          "type": "uint256"
        },
        {
          "internalType": "uint256",
          "name": "tokenAmount",
          "type": "uint256"
        }
      ],
      "name": "getSellPrice",
      "outputs": [
        {
          "internalType": "uint256",
          "name": "",
          "type": "uint256"
        }
      ],
      "stateMutability": "view",
      "type": "function"
    },
    {
      "inputs": [
        {
          "internalType": "bytes32",
          "name": "conditionId",
          "type": "bytes32"
        }
      ],
      "name": "getYesProbability",
      "outputs": [
        {
          "internalType": "uint256",
          "name": "",
          "type": "uint256"
        }
      ],
      "stateMutability": "view",
      "type": "function"
    },
    {
      "inputs": [
        {
          "internalType": "bytes32",
          "name": "conditionId",
          "type": "bytes32"
        }
      ],
      "name": "markResolved",
      "outputs": [],
      "stateMutability": "nonpayable",
      "type": "function"
    },
    {
      "inputs": [
        {
          "internalType": "address",
          "name": "",
          "type": "address"
        },
        {
          "internalType": "address",
          "name": "",
          "type": "address"
        },
        {
          "internalType": "uint256[]",
          "name": "",
          "type": "uint256[]"
        },
        {
          "internalType": "uint256[]",
          "name": "",
          "type": "uint256[]"
        },
        {
          "internalType": "bytes",
          "name": "",
          "type": "bytes"
        }
      ],
      "name": "onERC1155BatchReceived",
      "outputs": [
        {
          "internalType": "bytes4",
          "name": "",
          "type": "bytes4"
        }
      ],
      "stateMutability": "pure",
      "type": "function"
    },
    {
      "inputs": [
        {
          "internalType": "address",
          "name": "",
          "type": "address"
        },
        {
          "internalType": "address",
          "name": "",
          "type": "address"
        },
        {
          "internalType": "uint256",
          "name": "",
          "type": "uint256"
        },
        {
          "internalType": "uint256",
          "name": "",
          "type": "uint256"
        },
        {
          "internalType": "bytes",
          "name": "",
          "type": "bytes"
        }
      ],
      "name": "onERC1155Received",
      "outputs": [
        {
          "internalType": "bytes4",
          "name": "",
          "type": "bytes4"
        }
      ],
      "stateMutability": "pure",
      "type": "function"
    },
    {
      "inputs": [],
      "name": "owner",
      "outputs": [
        {
          "internalType": "address",
          "name": "",
          "type": "address"
        }
      ],
      "stateMutability": "view",
      "type": "function"
    },
    {
      "inputs": [
        {
          "internalType": "bytes32",
          "name": "",
          "type": "bytes32"
        }
      ],
      "name": "pools",
      "outputs": [
        {
          "internalType": "uint256",
          "name": "yesTokenId",
          "type": "uint256"
        },
        {
          "internalType": "uint256",
          "name": "noTokenId",
          "type": "uint256"
        },
        {
          "internalType": "uint256",
          "name": "yesReserve",
          "type": "uint256"
        },
        {
          "internalType": "uint256",
          "name": "noReserve",
          "type": "uint256"
        },
        {
          "internalType": "uint256",
          "name": "usdcCollateral",
          "type": "uint256"
        },
        {
          "internalType": "uint256",
          "name": "lpTradingRevenue",
          "type": "uint256"
        },
        {
          "internalType": "uint256",
          "name": "lpTotalDeposited",
          "type": "uint256"
        },
        {
          "internalType": "uint256",
          "name": "lpTotalWithdrawn",
          "type": "uint256"
        },
        {
          "internalType": "uint256",
          "name": "initialYesProbability",
          "type": "uint256"
        },
        {
          "internalType": "uint256",
          "name": "percentageLocked",
          "type": "uint256"
        },
        {
          "internalType": "address",
          "name": "lpOwner",
          "type": "address"
        },
        {
          "internalType": "bool",
          "name": "resolved",
          "type": "bool"
        },
        {
          "internalType": "bool",
          "name": "exists",
          "type": "bool"
        }
      ],
      "stateMutability": "view",
      "type": "function"
    },
    {
      "inputs": [
        {
          "internalType": "bytes32",
          "name": "conditionId",
          "type": "bytes32"
        },
        {
          "internalType": "uint256",
          "name": "usdcAmount",
          "type": "uint256"
        }
      ],
      "name": "removeLiquidity",
      "outputs": [],
      "stateMutability": "nonpayable",
      "type": "function"
    },
    {
      "inputs": [],
      "name": "renounceOwnership",
      "outputs": [],
      "stateMutability": "nonpayable",
      "type": "function"
    },
    {
      "inputs": [
        {
          "internalType": "bytes32",
          "name": "conditionId",
          "type": "bytes32"
        },
        {
          "internalType": "uint256",
          "name": "outcome",
          "type": "uint256"
        },
        {
          "internalType": "uint256",
          "name": "tokenAmount",
          "type": "uint256"
        },
        {
          "internalType": "uint256",
          "name": "minUsdcOut",
          "type": "uint256"
        }
      ],
      "name": "sellTokens",
      "outputs": [],
      "stateMutability": "nonpayable",
      "type": "function"
    },
    {
      "inputs": [
        {
          "internalType": "bytes4",
          "name": "interfaceId",
          "type": "bytes4"
        }
      ],
      "name": "supportsInterface",
      "outputs": [
        {
          "internalType": "bool",
          "name": "",
          "type": "bool"
        }
      ],
      "stateMutability": "pure",
      "type": "function"
    },
    {
      "inputs": [
        {
          "internalType": "address",
          "name": "newOwner",
          "type": "address"
        }
      ],
      "name": "transferOwnership",
      "outputs": [],
      "stateMutability": "nonpayable",
      "type": "function"
    },
    {
      "inputs": [
        {
          "internalType": "bytes32",
          "name": "conditionId",
          "type": "bytes32"
        }
      ],
      "name": "withdrawAfterResolution",
      "outputs": [],
      "stateMutability": "nonpayable",
      "type": "function"
    }
  ],
  "transactionHash": "0xa74675f2b4036d4071ba4b95cd51dcf353d23f729afcc676f4b70cba7765ef47",
  "args": [
    "0x40503eBe9F1398d631D6d4Bf873dF620055893a5",
    "0x3600000000000000000000000000000000000000"
  ],
  "numDeployments": 1,
  "solcInputHash": "8e24f003df160c026fd578134f5b0e98",
  "bytecode": "0x60c0346200019657601f62002e2a38819003918201601f19168301916001600160401b038311848410176200019b57808492604094855283398101031262000196576200005a60206200005283620001b1565b9201620001b1565b9033156200017d5760008054336001600160a01b0319821681178355604051946001600160a01b0394909385939192918416907f8be0079c531659141344cd1fd0a4f28419497f9722a3daafe3b4186f6b6457e09080a360018055166080521660a052612c639081620001c78239608051818181610a8401528181610dbe01528181610e3901528181610e9501528181610f5801528181610fb201528181610fee01528181611049015281816114070152818161173c0152818161194801528181611a920152818161208c0152818161254701528181612696015281816128090152612938015260a051818181610593015281816107b901528181610a1501528181610d5d015281816114b1015281816116ed01528181611b1701526129770152f35b604051631e4fbdf760e01b815260006004820152602490fd5b600080fd5b634e487b7160e01b600052604160045260246000fd5b51906001600160a01b0382168203620001965756fe6080604052600436101561001257600080fd5b6000803560e01c806301bd4fa4146119cc57806301ffc9a7146119915780632111c08c1461197757806322a9339f146119325780632d7de7c11461190b578063341cc596146118ec5780633b57e2bc1461165657806341d1de971461161c578063715018a6146115c25780638da5cb5b1461159b5780639e3a14971461136f578063a905505314610cc0578063b5217bb414610c01578063baa066ee1461095f578063bc197c81146108ce578063c02a74cd14610892578063c6a2618314610878578063c6ca37fa14610701578063c7d06a0214610676578063d88ff1f4146105c2578063d8dfeb451461057d578063ea01bb5d14610430578063ebd24b96146103d5578063f23a6e6114610379578063f2fde38b146102e95763f6c009271461013b57600080fd5b346102e65760203660031901126102e6576040816101a092610180835161016181611e67565b82815282602082015282858201528260608201528260808201528260a08201528260c08201528260e082015282610100820152826101208201528261014082015282610160820152015260043581526002602052206101806040516101c581611e67565b60ff600a84549485845260018101546020850152600281015460408501526003810154606085015260048101546080850152600581015460a0850152600681015460c0850152600781015460e085015260088101546101008501526009810154610120850152015460018060a01b038116610140840152818160a01c16151561016084015260a81c161515828201526040519283526020810151602084015260408101516040840152606081015160608401526080810151608084015260a081015160a084015260c081015160c084015260e081015160e084015261010081015161010084015261012081015161012084015260018060a01b0361014082015116610140840152610160810151151561016084015201511515610180820152f35b80fd5b50346102e65760203660031901126102e657610303611d31565b61030b611e11565b6001600160a01b0390811690811561036057600054826bffffffffffffffffffffffff60a01b821617600055167f8be0079c531659141344cd1fd0a4f28419497f9722a3daafe3b4186f6b6457e0600080a380f35b604051631e4fbdf760e01b815260048101849052602490fd5b50346102e65760a03660031901126102e657610393611d31565b5061039c611d1b565b5060843567ffffffffffffffff81116103d1576103bd903690600401611de3565b505060405163f23a6e6160e01b8152602090f35b5080fd5b50346102e65760203660031901126102e65760ff600a604060043593848152600260205220015460a81c1615610418576104106020916121d4565b604051908152f35b6024906040519063299f9ab360e11b82526004820152fd5b50346102e6576020806003193601126103d1576004358260c060405161045581611e84565b82815282858201528260408201528260608201528260808201528260a082015201528083526002825260ff600a60408520015460a81c1615610418578083526002825260408320906104bd6104a9826124a2565b9160018060a01b03600a85015416906124ee565b6005830154916104d6826104d18386612042565b612042565b9260078501549560066104e98887612042565b96015496878703968989128015828a131691891216176105695760e0985060c060405161051581611e84565b89815283810192835260408101948552606081019586526080810196875260a081019788520196875260405197885251908701525160408601525160608501525160808401525160a08301525160c0820152f35b634e487b7160e01b89526011600452602489fd5b50346102e657806003193601126102e6576040517f00000000000000000000000000000000000000000000000000000000000000006001600160a01b03168152602090f35b50346102e657806003193601126102e65760405180916003549081835260208093018092600383527fc2575a0e9e593c00f959f8c92f12db2869c3395a3b0502d05e2516446f71f85b90835b8181106106625750505084610624910385611ebc565b60405193838594850191818652518092526040850193925b82811061064b57505050500390f35b83518552869550938101939281019260010161063c565b82548452928601926001928301920161060e565b50346102e65760203660031901126102e65760043590818152600260205260ff600a60408320015460a81c16156106e857816106cd60408360209561041095526002865220916106d360058401546106cd836124a2565b90612042565b600a909301546001600160a01b0316906124ee565b60405163299f9ab360e11b815260048101839052602490fd5b50346102e6576020806003193601126103d1576004359061072061201f565b8183526002815260ff600a60408520015460a81c16156106e8578183526002815260408320600a8101546001600160a01b03939192919084811633036108665760a01c60ff161561085457610782906106cd84600581019288845494556128eb565b9283610791575b846001805580f35b60405163a9059cbb60e01b8152336004820152602481018590529082908290604490829089907f0000000000000000000000000000000000000000000000000000000000000000165af191821561084957859261081c575b50501561080a5760076107ff9101918254612042565b905538808080610789565b6040516312171d8360e31b8152600490fd5b61083b9250803d10610842575b6108338183611ebc565b810190611ede565b38806107e9565b503d610829565b6040513d87823e3d90fd5b6040516303a29a6d60e51b8152600490fd5b60405163049e02dd60e31b8152600490fd5b50346102e657602061041061088c36611d01565b916121aa565b50346102e65760203660031901126102e657600435808252600260205260ff600a60408420015460a81c1615610418576108cb9061204f565b80f35b50346102e65760a03660031901126102e6576108e8611d31565b506108f1611d1b565b5067ffffffffffffffff60443581811161095b57610913903690600401611db2565b505060643581811161095b5761092d903690600401611db2565b50506084359081116103d157610947903690600401611de3565b505060405163bc197c8160e01b8152602090f35b8280fd5b50346102e65761096e36611d94565b61097993929361201f565b82855260206002815260ff600a60408820015460a81c1615610be8578386526002815260ff600a60408820015460a01c16610bd6578215610bc4578386526002815260408620906109cb84878761217d565b928311610bb2576109dc868361245c565b508411610b94576040516323b872dd60e01b8152336004820152306024820152604481018490526001600160a01b03919081816064818c7f000000000000000000000000000000000000000000000000000000000000000088165af1918215610b89578992610b6c575b50501561080a57816005889301610a5e858254612042565b905586158015610b565760028201610a77878254611fde565b90555b15610b4c5754905b7f000000000000000000000000000000000000000000000000000000000000000016803b1561095b57848391610ad19383604051809681958294637921219560e11b8452333060048601611feb565b03925af18015610b4157610b29575b50506040805194855260208501929092529083015233917f11f0346aa32c203156c9ccb9e50e8414bc3b658fef0a1da39548ff22dfe2cbc29080606081015b0390a36001805580f35b610b3290611e3d565b610b3d578438610ae0565b8480fd5b6040513d84823e3d90fd5b6001015490610a82565b60038201610b65878254611fde565b9055610a7a565b610b829250803d10610842576108338183611ebc565b3880610a46565b6040513d8b823e3d90fd5b604486856040519163315276c960e01b835260048301526024820152fd5b604051631a26ff6760e01b8152600490fd5b6040516365e52d5160e11b8152600490fd5b60405163a118386760e01b8152600490fd5b60405163299f9ab360e11b815260048101859052602490fd5b50346102e65760203660031901126102e65760406101a091600435815260026020522060ff8154916001810154906002810154600382015460048301546005840154600685015491600786015493600887015495600a6009890154980154986040519b8c5260208c015260408b015260608a0152608089015260a088015260c087015260e086015261010085015261012084015260018060a01b038116610140840152818160a01c16151561016084015260a81c161515610180820152f35b50346102e65760c03660031901126102e65760843560ff8116810361136a5760a4359060ff8216820361136a57610cf561201f565b6004358352600260205260ff600a60408520015460a81c166113515760643515610bc45760ff8116158015611343575b6113315760ff8216158015611323575b611311576040516323b872dd60e01b81523360048201523060248201526064803560448301527f00000000000000000000000000000000000000000000000000000000000000006001600160a01b03811692909160209082908189875af19081156113065786916112e7575b501561080a5760405163095ea7b360e01b81526001600160a01b037f0000000000000000000000000000000000000000000000000000000000000000166004820152606435602482015285926020908290604490829087905af180156112dc576112bd575b50604051610e1381611ea0565b6002815260403660208301376001610e2a82611f0e565b526002610e3682611f1b565b527f00000000000000000000000000000000000000000000000000000000000000006001600160a01b03163b1561095b57610e9091839160405193849283926372ce427560e01b8452606435916004359060048601611f5f565b0381837f00000000000000000000000000000000000000000000000000000000000000006001600160a01b03165af18015610b41576112a9575b5050610ee760ff8316610ee260ff8416606435611f95565b611f95565b918260011b92808404600214901517156112955760ff821660640360ff811161128157610f2090610ee260ff8085169216606435611f95565b928360011b93808504600214901517156112815784612710610f46818404606435611fde565b95610f55828204606435611fde565b937f00000000000000000000000000000000000000000000000000000000000000006001600160a01b03163b1561127d578383610fad926040519384928392637921219560e11b845204602435333060048601611feb565b0381837f00000000000000000000000000000000000000000000000000000000000000006001600160a01b03165af190811561127257849161125e575b50507f00000000000000000000000000000000000000000000000000000000000000006001600160a01b03163b1561095b57604051637921219560e11b815291839183918291611044919004604435333060048601611feb565b0381837f00000000000000000000000000000000000000000000000000000000000000006001600160a01b03165af18015610b415761124a575b505060ff9283916040519561109287611e67565b602435875260443560208801526040870152606086015260643560808601528560a086015260643560c08601528560e086015216610100840152166101208201523361014082015281610160820152600161018082015260043582526002602052600a60408320825181556020830151600182015560408301516002820155606083015160038201556080830151600482015560a0830151600582015560c0830151600682015560e0830151600782015561010083015160088201556101208301516009820155019060018060a01b03610140820151169082549160ff60a01b610160830151151560a01b169161018060ff60a81b910151151560a81b169269ffffffffffffffffffff60b01b16171717905560035468010000000000000000811015611236578060016111c99201600355611d47565b81549060031b90600435821b91600019901b19161790556040517fad5d800b2751f02b548dc08d6de483a992370b185957e44035813e261298961d600435918061122c606435604435602435846040919493926060820195825260208201520152565b0390a26001805580f35b634e487b7160e01b82526041600452602482fd5b61125390611e3d565b610b3d57843861107e565b61126790611e3d565b61095b578238610fea565b6040513d86823e3d90fd5b8380fd5b634e487b7160e01b85526011600452602485fd5b634e487b7160e01b84526011600452602484fd5b6112b290611e3d565b61095b578238610eca565b6112d59060203d602011610842576108338183611ebc565b5038610e06565b6040513d85823e3d90fd5b611300915060203d602011610842576108338183611ebc565b38610da1565b6040513d88823e3d90fd5b604051631f3b85d360e01b8152600490fd5b50606460ff83161015610d35565b604051631ddde97960e31b8152600490fd5b50606460ff82161015610d25565b60246040516375ce148f60e11b81526004356004820152fd5b600080fd5b50346102e65761137e36611d94565b61138993929361201f565b82855260206002815260ff600a60408820015460a81c1615610be8578386526002815260ff600a60408820015460a01c16610bd6578215610bc45783865260028152604086206113da8487876121aa565b92831061158957600581019081548411611589578615801561157e578154925b6001600160a01b03938a907f00000000000000000000000000000000000000000000000000000000000000008616803b1561095b578983916114559383604051809681958294637921219560e11b8452303360048601611feb565b03925af18015610b4157611566575b5050611471868254611fde565b90551561155157600201611486858254612042565b90555b60405163a9059cbb60e01b815233600482015260248101849052908290829060449082908b907f0000000000000000000000000000000000000000000000000000000000000000165af1918215611546578792611529575b50501561080a576040805194855260208501929092529083015233917ff4ae5a6ef5896e75a87f99ddc305504b519d343497456ede5aba8a936184882a908060608101610b1f565b61153f9250803d10610842576108338183611ebc565b38806114e1565b6040513d89823e3d90fd5b60030161155f858254612042565b9055611489565b61156f90611e3d565b61157a578938611464565b8980fd5b6001820154926113fa565b60405163bb55fd2760e01b8152600490fd5b50346102e657806003193601126102e657546040516001600160a01b039091168152602090f35b50346102e657806003193601126102e6576115db611e11565b600080546001600160a01b0319811682556001600160a01b03167f8be0079c531659141344cd1fd0a4f28419497f9722a3daafe3b4186f6b6457e08280a380f35b50346102e65760203660031901126102e657600435906003548210156102e657602061164783611d47565b90549060031b1c604051908152f35b50346102e65761166536611ceb565b9061166e61201f565b80835260029160209280845260ff600a60408720015460a81c16156118d35782855280845260ff600a60408720015460a01c16610bd65782855280845260408520600a8101546001600160a01b039081163303610866578315610bc4576040516323b872dd60e01b8152336004820152306024820152604481018590527f00000000000000000000000000000000000000000000000000000000000000008281169188816064818d875af19081156118c8578a916118ab575b501561080a5760405163095ea7b360e01b81527f0000000000000000000000000000000000000000000000000000000000000000939093166001600160a01b0381166004850152602484018790528993909289908290604490829088905af180156112725761188e575b5060405161179e81611ea0565b8581526040368a83013760016117b382611f0e565b52856117be82611f1b565b52823b1561127d578692888580946117ec604051978896879586946372ce427560e01b865260048601611f5f565b03925af18015610b4157611876575b5050600691810161180d848254612042565b90556003810161181e848254612042565b90556004810161182f848254612042565b90550161183d828254612042565b9055604051928184528301527f47b0d68dd7ea64624970139aa6c676e4e099d12cee4af2dfe393f2353fea86b160403393a36001805580f35b61187f90611e3d565b61188a5785386117fb565b8580fd5b6118a490893d8b11610842576108338183611ebc565b5038611791565b6118c29150893d8b11610842576108338183611ebc565b38611727565b6040513d8c823e3d90fd5b60405163299f9ab360e11b815260048101849052602490fd5b50346102e65760203660031901126102e65760206104106004356124a2565b50346102e65760403660031901126102e657602061041061192a611d1b565b6004356124ee565b50346102e657806003193601126102e6576040517f00000000000000000000000000000000000000000000000000000000000000006001600160a01b03168152602090f35b50346102e657602061041061198b36611d01565b9161217d565b50346102e65760203660031901126102e65760043563ffffffff60e01b81168091036103d157604051630271189760e51b9091148152602090f35b50346102e6576119db36611ceb565b906119e461201f565b80835260029160209280845260ff600a60408720015460a81c16156118d35782855280845260ff600a60408720015460a01c16610bd65782855280845260408520600a8101549091906001600160a01b039081163303610866578315610bc457600483018054808611611589578385018054808811611ccd576003870191825491828a11611cad5792611a868a80948f9a99989794611a8683611a8d99611fde565b9055611fde565b9055807f00000000000000000000000000000000000000000000000000000000000000001660405163e985e9c560e01b81523060048201528160248201528881604481855afa908115610849578591611c90575b5015611c31575b60405192611af584611ea0565b8084526040368a8601376001611b0a85611f0e565b52611b1484611f1b565b527f000000000000000000000000000000000000000000000000000000000000000090803b15610b3d57868591611b6595838b60405198899586948593639e7212ad60e01b85528a60048601611f5f565b03925af180156112725788938591611c18575b505060405163a9059cbb60e01b815233600482015260248101879052938492604492849291165af1908115611306578691611bfb575b501561080a57600701611bc2828254612042565b9055604051928184528301527f317e53ec6bc434475c6a7c12af460342fa47661758139f35045090a232213a0c60403393a36001805580f35b611c129150853d8711610842576108338183611ebc565b38611bae565b611c2491929450611e3d565b61095b5786918338611b78565b80919293503b15611c8c5760405163a22cb46560e01b81526004810182905260016024820152888160448183865af18015610b8957611c75575b5090879291611ae8565b611c83909891939298611e3d565b96909138611c6b565b8780fd5b611ca79150893d8b11610842576108338183611ebc565b38611ae1565b60405163315276c960e01b815260016004820152602481018b9052604490fd5b60448b896040519163315276c960e01b835260048301526024820152fd5b604090600319011261136a576004359060243590565b606090600319011261136a57600435906024359060443590565b602435906001600160a01b038216820361136a57565b600435906001600160a01b038216820361136a57565b600354811015611d7e5760036000527fc2575a0e9e593c00f959f8c92f12db2869c3395a3b0502d05e2516446f71f85b0190600090565b634e487b7160e01b600052603260045260246000fd5b608090600319011261136a5760043590602435906044359060643590565b9181601f8401121561136a5782359167ffffffffffffffff831161136a576020808501948460051b01011161136a57565b9181601f8401121561136a5782359167ffffffffffffffff831161136a576020838186019501011161136a57565b6000546001600160a01b03163303611e2557565b60405163118cdaa760e01b8152336004820152602490fd5b67ffffffffffffffff8111611e5157604052565b634e487b7160e01b600052604160045260246000fd5b6101a0810190811067ffffffffffffffff821117611e5157604052565b60e0810190811067ffffffffffffffff821117611e5157604052565b6060810190811067ffffffffffffffff821117611e5157604052565b90601f8019910116810190811067ffffffffffffffff821117611e5157604052565b9081602091031261136a5751801515810361136a5790565b67ffffffffffffffff8111611e515760051b60200190565b805115611d7e5760200190565b805160011015611d7e5760400190565b90815180825260208080930193019160005b828110611f4b575050505090565b835185529381019392810192600101611f3d565b949392608092611f909260018060a01b0316875260006020880152604087015260a0606087015260a0860190611f2b565b930152565b81810292918115918404141715611fa857565b634e487b7160e01b600052601160045260246000fd5b8115611fc8570490565b634e487b7160e01b600052601260045260246000fd5b91908203918211611fa857565b929060c0949260018060a01b0380921685521660208401526040830152606082015260a06080820152600060a08201520190565b600260015414612030576002600155565b604051633ee5aeb560e01b8152600490fd5b91908201809211611fa857565b9060009180835260209260028452600a6040822001805460ff8160a01c166121755760405163dd34de6760e01b81526004810185905286816024817f00000000000000000000000000000000000000000000000000000000000000006001600160a01b03165afa908115611272578491612148575b50156121035760ff60a01b1916600160a01b179055919250907f23004c314d5aaccc6f9a5d28f836bae97e209ee1a080bb8c1c6c3ca8391a13a69080a2565b60405162461bcd60e51b815260048101879052601960248201527f414d4d3a20435446206e6f74207265736f6c76656420796574000000000000006044820152606490fd5b90508681813d831161216e575b61215f8183611ebc565b8101031261127d5751386120c4565b503d612155565b505050509050565b92919083600052600260205260ff600a6040600020015460a81c1615610be8576121a79293612238565b90565b92919083600052600260205260ff600a6040600020015460a81c1615610be8576121a792936123f6565b6000526002602052604060002061220b612205600483015460036121fc600286015483611fde565b94015490611fde565b82612042565b801561222f57620f424091828102928184041490151715611fa8576121a791611fbe565b50506207a12090565b82156122db576000526002602052604060002090600461227461220561225e848661245c565b93909501549261226e8685611fde565b93611fde565b9184612280848461247d565b94106122bd57506122b9926106cd85936122ab856122a5620f4240996122b197612042565b92612042565b9061247d565b60011c611f95565b0490565b604490856040519163315276c960e01b835260048301526024820152fd5b505050600090565b811561236c576000526002602052604060002061231661220560028301549261226e600460038301549201549485611fde565b612320818361247d565b9183811061234c576122b9926106cd85936122ab85612346620f4240996122b197611fde565b92611fde565b60405163315276c960e01b81526000600482015260248101859052604490fd5b5050600090565b811561236c57600052600260205260406000206123a661220560038301549261226e600460028301549201549485611fde565b6123b0818361247d565b918381106123d6576122b9926106cd85936122ab85612346620f4240996122b197611fde565b60405163315276c960e01b81526001600482015260248101859052604490fd5b82156122db576000526002602052604060002061242a612205600461226e61241e868661245c565b92909501549485611fde565b90612435828261247d565b928482106122bd57506122b9926106cd85936122ab85612346620f4240996122b197611fde565b919015612470576002600383015492015490565b6003600283015492015490565b90801561236c57620f424091828102928184041490151715611fa8576121a791611fbe565b80600052600260205260ff600a6040600020015460a81c161561041857806121a79160005260026020526106cd60406000209160036124e5600285015483612671565b930154906127e4565b906000908282526020916002835260409260ff600a858420015460a81c1615612659578482526002815283822080548551627eeac760e11b8082526001600160a01b0387811660048401526024830193909352909590927f0000000000000000000000000000000000000000000000000000000000000000909216918487604481865afa96871561264f57869761261e575b506001015487519384526001600160a01b039091166004840152602483015290929190819084908180604481015b03915afa948515612613575081946125dc575b50505082916125d66106cd926121a795612671565b926127e4565b909180939450813d831161260c575b6125f58183611ebc565b810103126102e657505190806125d66121a76125c1565b503d6125eb565b51913d9150823e3d90fd5b9096508481813d8311612648575b6126368183611ebc565b8101031261188a5751956125ae612580565b503d61262c565b88513d88823e3d90fd5b835163299f9ab360e11b815260048101869052602490fd5b919080156127dd576040805163dd34de6760e01b8152600481018590529093906020907f00000000000000000000000000000000000000000000000000000000000000006001600160a01b03168282602481845afa9182156127d2576000926127a3575b508161271a575050600290826000525260ff600a85600020015460a81c1615612703576121a79293506122e3565b60249084519063299f9ab360e11b82526004820152fd5b918694936044829397985180958193630141320560e21b83526004830152600060248301525afa9384156127995750600093612766575b50506121a7929161276191611f95565b611fbe565b8181949293943d8311612792575b61277e8183611ebc565b810103126102e657505190806121a7612751565b503d612774565b513d6000823e3d90fd5b90918382813d83116127cb575b6127ba8183611ebc565b810103126102e657505190386126d5565b503d6127b0565b87513d6000823e3d90fd5b5060009150565b919080156127dd576040805163dd34de6760e01b8152600481018590529093906020907f00000000000000000000000000000000000000000000000000000000000000006001600160a01b03168282602481845afa9182156127d2576000926128bc575b5081612876575050600290826000525260ff600a85600020015460a81c1615612703576121a7929350612373565b918694936044829397985180958193630141320560e21b83526004830152600160248301525afa93841561279957506000936127665750506121a7929161276191611f95565b90918382813d83116128e4575b6128d38183611ebc565b810103126102e65750519038612848565b503d6128c9565b906002810190815491600360009201918254931593848095612c25575b612c1c576040805163dd34de6760e01b815260048082018990529195602095929360249390926001600160a01b037f000000000000000000000000000000000000000000000000000000000000000081169189818881865afa908115612c12578991612be5575b5015612bab577f0000000000000000000000000000000000000000000000000000000000000000169a8b948a519b8a8d89816370a0823160e01b9a8b82528d30908301525afa9c8d15612ba1578a9d612b72575b5015908115612b6b576001905b1580159190612b625760ff8060015b1691160160ff8111612b50579060ff8d94939216612a086129ff82611ef6565b95519586611ebc565b808552612a17601f1991611ef6565b01368d8601378a91612b3c575b612b10575b50823b15612b0c5788928d848a612a6c8f968c96849851998a9889978896626dc0df60e21b88528701528501526044840152608060648401526084830190611f2b565b03925af18015612b02579088969594939291612aed575b5090868092555586519889938492835230908301525afa928315612ae3575091612ab3575b506121a79250611fde565b905082813d8311612adc575b612ac98183611ebc565b8101031261136a576121a7915138612aa8565b503d612abf565b51903d90823e3d90fd5b612afa9097919297611e3d565b959038612a83565b89513d89823e3d90fd5b8880fd5b8251811015612b2a578a60029160051b8401015238612a29565b634e487b7160e01b8a5260328952878afd5b6001915081612b4a85611f0e565b52612a24565b634e487b7160e01b8b5260118a52888bfd5b60ff808c6129df565b89906129d0565b909c508a81813d8311612b9a575b612b8a8183611ebc565b8101031261157a57519b386129c3565b503d612b80565b8c513d8c823e3d90fd5b895162461bcd60e51b81528088018a9052601581880152741053534e8810d511881b9bdd081c995cdbdb1d9959605a1b6044820152606490fd5b90508981813d8311612c0b575b612bfc8183611ebc565b81010312612b0c57513861296f565b503d612bf2565b8b513d8b823e3d90fd5b50935050505090565b50801561290856fea2646970667358221220cb3dd6bf9d548de9331564a7506a8b46327486f9981b17add1802bfaf701c8e064736f6c63430008140033",
  "devdoc": {
    "details": "This contract preserves the core probability-weighted pricing logic from the original      speedrun-ethereum PredictionMarket.sol but adapts it to:       - Trade ERC-1155 CTF positions instead of ERC-20 tokens       - Use USDC (ERC-20) as collateral instead of ETH       - Support multiple markets (pools) without deploying a new contract per market       - Disable trading after the CTF condition is resolved PRICING ALGORITHM (preserved from original):  Buy/Sell price = initialTokenValue × avgProbability × amount  Where probability = targetTokensSold / totalTokensSold for both outcomes  avgProbability = (probabilityBefore + probabilityAfter) / 2 Each pool is identified by a `conditionId` derived from the CTF:  conditionId = keccak256(adapter, questionId, outcomeSlotCount)",
    "errors": {
      "OwnableInvalidOwner(address)": [
        {
          "details": "The owner is not a valid owner account. (eg. `address(0)`)"
        }
      ],
      "OwnableUnauthorizedAccount(address)": [
        {
          "details": "The caller account is not authorized to perform an operation."
        }
      ],
      "ReentrancyGuardReentrantCall()": [
        {
          "details": "Unauthorized reentrant call."
        }
      ]
    },
    "kind": "dev",
    "methods": {
      "buyTokens(bytes32,uint256,uint256,uint256)": {
        "details": "Caller must have approved this contract for `maxUsdcIn` USDC.",
        "params": {
          "conditionId": "The pool's conditionId.",
          "maxUsdcIn": "Maximum USDC willing to pay (slippage protection).",
          "outcome": "0 = YES, 1 = NO.",
          "tokenAmount": "Number of outcome tokens to buy (18 decimals)."
        }
      },
      "createPool(bytes32,uint256,uint256,uint256,uint8,uint8)": {
        "details": "Caller must have already approved this contract to spend `usdcAmount` USDC.      The USDC is split-positioned into YES/NO ERC-1155 tokens by the CTF;      then deposited into the pool as reserves.",
        "params": {
          "conditionId": "The CTF conditionId derived from keccak256(adapter, questionId, 2).",
          "initialYesProbability": "Starting YES probability (1-99).",
          "noTokenId": "ERC-1155 NO positionId from the CTF.",
          "percentageToLock": "% of token supply locked to simulate initial probability (1-99).",
          "usdcAmount": "Amount of USDC to provide as initial liquidity.",
          "yesTokenId": "ERC-1155 YES positionId from the CTF."
        }
      },
      "markResolved(bytes32)": {
        "details": "Anyone can call this once the CTF condition has been resolved.      The actual payout distribution happens via ctf.redeemPositions()."
      },
      "owner()": {
        "details": "Returns the address of the current owner."
      },
      "renounceOwnership()": {
        "details": "Leaves the contract without owner. It will not be possible to call `onlyOwner` functions. Can only be called by the current owner. NOTE: Renouncing ownership will leave the contract without an owner, thereby disabling any functionality that is only available to the owner."
      },
      "sellTokens(bytes32,uint256,uint256,uint256)": {
        "details": "Caller must have called ctf.setApprovalForAll(ammAddress, true) first.",
        "params": {
          "conditionId": "The pool's conditionId.",
          "minUsdcOut": "Minimum USDC to receive (slippage protection).",
          "outcome": "0 = YES, 1 = NO.",
          "tokenAmount": "Number of outcome tokens to sell."
        }
      },
      "supportsInterface(bytes4)": {
        "details": "Returns true if this contract implements the interface defined by `interfaceId`. See the corresponding https://eips.ethereum.org/EIPS/eip-165#how-interfaces-are-identified[EIP section] to learn more about how these ids are created. This function call must use less than 30 000 gas."
      },
      "transferOwnership(address)": {
        "details": "Transfers ownership of the contract to a new account (`newOwner`). Can only be called by the current owner."
      },
      "withdrawAfterResolution(bytes32)": {
        "details": "Wallet-held locked seed tokens must still be redeemed via CTF.redeemPositions by the LP."
      }
    },
    "title": "PredictionMarketAMM",
    "version": 1
  },
  "userdoc": {
    "kind": "user",
    "methods": {
      "addLiquidity(bytes32,uint256)": {
        "notice": "LP owner adds more liquidity to an existing pool."
      },
      "allPools(uint256)": {
        "notice": "List of all conditionIds for enumeration"
      },
      "buyTokens(bytes32,uint256,uint256,uint256)": {
        "notice": "Buys outcome tokens with USDC."
      },
      "collateral()": {
        "notice": "The collateral ERC-20 (USDC on Sepolia: 0x1c7D4B196Cb0C7B01d743Fbc6116a902379C7238)"
      },
      "createPool(bytes32,uint256,uint256,uint256,uint8,uint8)": {
        "notice": "Creates an AMM pool for a CTF binary market and seeds initial liquidity."
      },
      "ctf()": {
        "notice": "The Gnosis CTF contract"
      },
      "getBuyPrice(bytes32,uint256,uint256)": {
        "notice": "Calculate USDC cost to buy `tokenAmount` outcome tokens.  Preserves the original probability-weighted price model."
      },
      "getLpNav(bytes32)": {
        "notice": "Estimated net asset value attributable to the LP (revenue + pool + wallet inventory)."
      },
      "getLpPnLSummary(bytes32)": {
        "notice": "LP PnL snapshot: nav + prior withdrawals minus total deposits."
      },
      "getLpWalletInventoryValue(bytes32,address)": {
        "notice": "Redemption value of an LP wallet's YES/NO balances for this pool."
      },
      "getPoolInventoryValue(bytes32)": {
        "notice": "Mark-to-market (open) or redemption value (resolved) of AMM-held YES/NO reserves."
      },
      "getSellPrice(bytes32,uint256,uint256)": {
        "notice": "Calculate USDC received for selling `tokenAmount` outcome tokens."
      },
      "getYesProbability(bytes32)": {
        "notice": "Returns current implied probability of YES outcome (scaled by PRECISION)."
      },
      "markResolved(bytes32)": {
        "notice": "Marks a pool as resolved so trading is disabled."
      },
      "pools(bytes32)": {
        "notice": "conditionId → Pool"
      },
      "removeLiquidity(bytes32,uint256)": {
        "notice": "LP owner removes liquidity from an existing pool."
      },
      "sellTokens(bytes32,uint256,uint256,uint256)": {
        "notice": "Sells outcome tokens for USDC."
      },
      "withdrawAfterResolution(bytes32)": {
        "notice": "LP owner withdraws trading revenue and redeems AMM-held reserves after resolution."
      }
    },
    "notice": "AMM for trading YES/NO ERC-1155 CTF outcome tokens.",
    "version": 1
  },
  "storageLayout": {
    "storage": [
      {
        "astId": 8,
        "contract": "contracts/PredictionMarketAMM.sol:PredictionMarketAMM",
        "label": "_owner",
        "offset": 0,
        "slot": "0",
        "type": "t_address"
      },
      {
        "astId": 1822,
        "contract": "contracts/PredictionMarketAMM.sol:PredictionMarketAMM",
        "label": "_status",
        "offset": 0,
        "slot": "1",
        "type": "t_uint256"
      },
      {
        "astId": 6067,
        "contract": "contracts/PredictionMarketAMM.sol:PredictionMarketAMM",
        "label": "pools",
        "offset": 0,
        "slot": "2",
        "type": "t_mapping(t_bytes32,t_struct(Pool)6038_storage)"
      },
      {
        "astId": 6071,
        "contract": "contracts/PredictionMarketAMM.sol:PredictionMarketAMM",
        "label": "allPools",
        "offset": 0,
        "slot": "3",
        "type": "t_array(t_bytes32)dyn_storage"
      }
    ],
    "types": {
      "t_address": {
        "encoding": "inplace",
        "label": "address",
        "numberOfBytes": "20"
      },
      "t_array(t_bytes32)dyn_storage": {
        "base": "t_bytes32",
        "encoding": "dynamic_array",
        "label": "bytes32[]",
        "numberOfBytes": "32"
      },
      "t_bool": {
        "encoding": "inplace",
        "label": "bool",
        "numberOfBytes": "1"
      },
      "t_bytes32": {
        "encoding": "inplace",
        "label": "bytes32",
        "numberOfBytes": "32"
      },
      "t_mapping(t_bytes32,t_struct(Pool)6038_storage)": {
        "encoding": "mapping",
        "key": "t_bytes32",
        "label": "mapping(bytes32 => struct PredictionMarketAMM.Pool)",
        "numberOfBytes": "32",
        "value": "t_struct(Pool)6038_storage"
      },
      "t_struct(Pool)6038_storage": {
        "encoding": "inplace",
        "label": "struct PredictionMarketAMM.Pool",
        "members": [
          {
            "astId": 6013,
            "contract": "contracts/PredictionMarketAMM.sol:PredictionMarketAMM",
            "label": "yesTokenId",
            "offset": 0,
            "slot": "0",
            "type": "t_uint256"
          },
          {
            "astId": 6015,
            "contract": "contracts/PredictionMarketAMM.sol:PredictionMarketAMM",
            "label": "noTokenId",
            "offset": 0,
            "slot": "1",
            "type": "t_uint256"
          },
          {
            "astId": 6017,
            "contract": "contracts/PredictionMarketAMM.sol:PredictionMarketAMM",
            "label": "yesReserve",
            "offset": 0,
            "slot": "2",
            "type": "t_uint256"
          },
          {
            "astId": 6019,
            "contract": "contracts/PredictionMarketAMM.sol:PredictionMarketAMM",
            "label": "noReserve",
            "offset": 0,
            "slot": "3",
            "type": "t_uint256"
          },
          {
            "astId": 6021,
            "contract": "contracts/PredictionMarketAMM.sol:PredictionMarketAMM",
            "label": "usdcCollateral",
            "offset": 0,
            "slot": "4",
            "type": "t_uint256"
          },
          {
            "astId": 6023,
            "contract": "contracts/PredictionMarketAMM.sol:PredictionMarketAMM",
            "label": "lpTradingRevenue",
            "offset": 0,
            "slot": "5",
            "type": "t_uint256"
          },
          {
            "astId": 6025,
            "contract": "contracts/PredictionMarketAMM.sol:PredictionMarketAMM",
            "label": "lpTotalDeposited",
            "offset": 0,
            "slot": "6",
            "type": "t_uint256"
          },
          {
            "astId": 6027,
            "contract": "contracts/PredictionMarketAMM.sol:PredictionMarketAMM",
            "label": "lpTotalWithdrawn",
            "offset": 0,
            "slot": "7",
            "type": "t_uint256"
          },
          {
            "astId": 6029,
            "contract": "contracts/PredictionMarketAMM.sol:PredictionMarketAMM",
            "label": "initialYesProbability",
            "offset": 0,
            "slot": "8",
            "type": "t_uint256"
          },
          {
            "astId": 6031,
            "contract": "contracts/PredictionMarketAMM.sol:PredictionMarketAMM",
            "label": "percentageLocked",
            "offset": 0,
            "slot": "9",
            "type": "t_uint256"
          },
          {
            "astId": 6033,
            "contract": "contracts/PredictionMarketAMM.sol:PredictionMarketAMM",
            "label": "lpOwner",
            "offset": 0,
            "slot": "10",
            "type": "t_address"
          },
          {
            "astId": 6035,
            "contract": "contracts/PredictionMarketAMM.sol:PredictionMarketAMM",
            "label": "resolved",
            "offset": 20,
            "slot": "10",
            "type": "t_bool"
          },
          {
            "astId": 6037,
            "contract": "contracts/PredictionMarketAMM.sol:PredictionMarketAMM",
            "label": "exists",
            "offset": 21,
            "slot": "10",
            "type": "t_bool"
          }
        ],
        "numberOfBytes": "352"
      },
      "t_uint256": {
        "encoding": "inplace",
        "label": "uint256",
        "numberOfBytes": "32"
      }
    }
  }
}